:100000000C9435010C9466010C9466010C94660105
:100010000C9466010C9466010C9466010C946601C4
:100020000C9466010C9466010C9466010C946601B4
:100030000C9466010C9466010C9466010C946601A4
:100040000C9466010C9466010C9466010C94660194
:100050000C9466010C9466010C9466010C94640681
:100060000C9466010C94D8060C94AE060C946601B0
:100070000C9466010C9466010C9466010C94660164
:100080000C9466010C9466010C9466010C94660154
:100090000C9466010C9466010C9466010C94660144
:1000A0000C9466010C9466010C9466010C94660134
:1000B0000C9466010C9466010C9466010C94660124
:1000C0000C9466010C9466010C9466010C94660114
:1000D0000C9466010C9466010C9466010C94660104
:1000E0000C9466010C94B9010C94C7010C94C601E0
:1000F0000C94EA020C9444030C94B3010C94AF01E9
:100100000C9486010C94C1010C940C030C94910383
:100110000C949B010C948C010C940E070C94DB0244
:100120000C94BD010C9494010C94FE020C94980163
:100130000C9490010C94AE020C94A1010C94A501B6
:100140000C94AB010C94CB0100002100240027008B
:100150002A002D00300033000101000004010701D6
:100160000A0100002200250028002B002E0031008B
:10017000340002010000050108010B01000020000D
:100180002300260029002C002F003200000100006F
:10019000030106010901050505050705080808080A
:1001A000020202020A0A080804040404010101010F
:1001B000010101010303030303030303040707070A
:1001C0000C0C0C0C0C0C0C0C0202020206060606AF
:1001D000060606060B0B0B0B0B0B0B0B010210207C
:1001E000200808102040102040800201020108046D
:1001F0000201010204081020408080402010080401
:100200000201800402018040201008040201080459
:10021000020101020408102040800102040810209D
:10022000408000000A0B02090C0D0E0807030401B0
:1002300000000000000000000000000000000000BE
:10024000000000000000000000000000000012118B
:10025000100000000000000000000000000000008E
:1002600000000000000000000E0711241FBECFEFA9
:10027000D1E2DEBFCDBF00E00CBF16E0A0E0B2E0EF
:10028000E2EBF8E100E00BBF02C007900D92A4384A
:10029000B107D9F727E0A4E8B6E001C01D92AE3659
:1002A000B207E1F711E0C5E3D1E000E006C0219715
:1002B0000109802FFE010E943B0CC433D10780E06E
:1002C0000807A9F70E944D070C94570C0C940000E6
:1002D0008150823108F05AC0E82FF0E08827EC58AE
:1002E000FE4F8F4F0C943B0C9401980186018C01BA
:1002F0009001C6019B01A101A501AB01AF01B301B2
:10030000B901BD01C601C101C701CB0180918000C7
:100310008F77809380000895809180008F7DF9CF42
:1003200080918000877FF5CF84B58F7784BD089555
:1003300084B58F7DFBCF8091B0008F778093B00024
:1003400008958091B0008F7DF9CF809190008F77D4
:10035000809390000895809190008F7DF9CF8091D7
:100360009000877FF5CF8091A0008F778093A000C9
:1003700008958091A0008F7DF9CF8091A000877FA4
:10038000F5CF809120018F7780932001089580918F
:1003900020018F7DF9CF80912001877FF5CFCF930A
:1003A000DF93282F30E0F901EE5DFD4F8491F901D4
:1003B000E452FE4FD491F901EA56FE4FC491CC238A
:1003C000A1F081110E946801EC2FF0E0EE0FFF1FF9
:1003D000E458FE4FA591B491EC91ED2381E090E0BB
:1003E00009F480E0DF91CF91089580E090E0FACFAA
:1003F0001F93CF93DF93282F30E0F901EE5DFD4F7F
:100400008491F901E452FE4FD491F901EA56FE4F6E
:10041000C491CC23A9F0162F81110E946801EC2F02
:10042000F0E0EE0FFF1FEE59FE4FA591B4918FB78C
:10043000F894EC91111108C0D095DE23DC938FBFA6
:10044000DF91CF911F910895DE2BF8CFCF93DF93EB
:1004500090E0FC01E452FE4F24918A569E4FFC012D
:1004600084918823D1F090E0880F991FFC01E85B0C
:10047000FE4FA591B491FC01EE59FE4FC591D49168
:10048000623071F49FB7F8943C91822F809583235A
:100490008C93E8812E2B28839FBFDF91CF91089505
:1004A0008FB7F894EC912E2B2C938FBFF6CF3FB7DC
:1004B000F8948091C7069091C806A091C906B091A2
:1004C000CA0626B5A89B05C02F3F19F00196A11DAD
:1004D000B11D3FBFBA2FA92F982F8827BC01CD018E
:1004E000620F711D811D911D42E0660F771F881FED
:1004F000991F4A95D1F708958F929F92AF92BF921C
:10050000CF92DF92EF92FF924B015C010E94570263
:100510006B017C010E9457026C197D098E099F09AD
:10052000683E734081059105A8F321E0821A910885
:10053000A108B10888EEC80E83E0D81EE11CF11CAA
:1005400081149104A104B10429F7FF90EF90DF908A
:10055000CF90BF90AF909F908F900895AF92BF9231
:10056000CF92DF92EF92FF920F931F93CF93DF937F
:100570006C017B018B01040F151FEB015E01AE18AE
:10058000BF08C017D10759F06991D601ED91FC91D0
:100590000190F081E02DC6011995892B79F7C501ED
:1005A000DF91CF911F910F91FF90EF90DF90CF904F
:1005B000BF90AF900895FC01538D448D252F30E0FE
:1005C000842F90E0821B930B541710F0CF96089560
:1005D00001970895FC01918D828D981761F0A28D8D
:1005E000AE0FBF2FB11D5D968C91928D9F5F9F7353
:1005F000928F90E008958FEF9FEF0895FC01918D09
:10060000828D981731F0828DE80FF11D858D90E075
:1006100008958FEF9FEF0895FC01918D228D892F12
:1006200090E0805C9F4F821B91098F7399270895FA
:100630008DEC96E00E940C0321E0892B09F420E068
:10064000822F0895FC01A48DA80FB92FB11DA35AC4
:10065000BF4F2C91848D90E001968F739927848FE2
:10066000A689B7892C93A089B1898C918370806405
:100670008C93938D848D981306C00288F389E02DA6
:1006800080818F7D80830895EF92FF920F931F9357
:10069000CF93DF93EC0181E0888F9B8D8C8D981335
:1006A0001AC0E889F989808185FF15C09FB7F89441
:1006B000EE89FF896083E889F9898081837080648D
:1006C00080839FBF81E090E0DF91CF911F910F91D8
:1006D000FF90EF900895F62E0B8D10E00F5F1F4FE7
:1006E0000F731127E02E8C8D8E110CC00FB607FCF6
:1006F000FACFE889F989808185FFF5CFCE010E9484
:100700002203F1CFEB8DEC0FFD2FF11DE35AFF4FCC
:10071000F0829FB7F8940B8FEA89FB898081806211
:10072000CFCFCF93DF93EC01888D8823B9F0AA89CE
:10073000BB89E889F9898C9185FD03C0808186FD9C
:100740000DC00FB607FCF7CF8C9185FFF2CF8081EB
:1007500085FFEDCFCE010E942203E9CFDF91CF913B
:10076000089580E090E0892B29F00E941803811100
:100770000E94000080E090E0892B49F080E090E04A
:10078000892B29F00E94000081110E94000080E066
:1007900090E0892B49F080E090E0892B29F00E94BD
:1007A000000081110E94000080E090E0892B49F058
:1007B00080E090E0892B29F00E94000081110C94C8
:1007C00000000895FC0101900020E9F73197AF0186
:1007D000481B590BBC018DEC96E00C94AE02CF93F4
:1007E000DF930E94E203EC018CEF93E00E94E203AE
:1007F0008C0F9D1FDF91CF9108950F931F93CF937F
:10080000DF938FEF93E00E94EF0364EF71E080E0ED
:1008100090E00E947C02C4EBD6E004E012E0199262
:10082000F80180810E5F1F4F60E00E94F801F6E042
:10083000C03CDF07A1F7DF91CF911F910F91089581
:100840000C94E2038F929F92AF92BF92CF92DF926D
:10085000EF92FF920F931F93CF93DF93CDB7DEB745
:10086000A1970FB6F894DEBF0FBECDBF6C01990FF4
:10087000EE08FF08F7FE41C06DE28DEC96E00E94A5
:1008800044038C0122273327A9012C193D094E0965
:100890005F0919A2CE0181967C019AE0892E912CE4
:1008A000A12CB12CCA01B901A50194010E94190C17
:1008B000605DF70162937F01211531054105510506
:1008C00089F790E080E0309719F0CF010E94E203B1
:1008D000800F911FA1960FB6F894DEBF0FBECDBF5B
:1008E000DF91CF911F910F91FF90EF90DF90CF900C
:1008F000BF90AF909F908F900895A701960119A285
:100900008E010F5D1F4F8AE0C82ED12CE12CF12CF7
:10091000CA01B901A70196010E94190C605DF80196
:1009200062938F01211531054105510589F790E04A
:1009300080E0309779F2CF010E94E203CBCFCF93D2
:10094000DF930E942204EC018CEF93E00E94E2030B
:100950008C0F9D1FDF91CF9108958091CB069091D0
:10096000CC060397B1F081E090E09093CC068093A1
:10097000CB068FE094E00E9420048091CB069091FA
:10098000CC060E949F0464EF71E080E090E00C943C
:100990007C0282E090E0E9CFBF92CF92DF92EF92AB
:1009A000FF920F931F93CF93DF938091C006909196
:1009B000C10601969093C1068093C00684E294E03C
:1009C0000E9420048091C0069091C1060E949F045D
:1009D0008091C0069091C1062091000230910102E1
:1009E00082179307B4F420916C0730916D074FE0A4
:1009F000429FF001439FF00D1124E80FF91FEE0F05
:100A0000FF1FE65CFD4F808191818F3F980709F0C1
:100A100084C0C3E0D0E0BB24B39420ECC22E26E017
:100A2000D22E94E0E92E92E0F92E04EB16E0F801C4
:100A3000B1928F01F7018081F2E0EF0EF11C61E0CD
:100A40000E94F80126E00A3B120789F76CE271E088
:100A500080E090E00E947C020E94FD030AEB16E019
:100A600080E1E82E82E0F82EF801B1928F01F701C3
:100A70008081F2E0EF0EF11C61E00E94F801C016E7
:100A8000D10691F76CE271E080E090E00E947C0278
:100A90000E94FD03219729F680916C0790916D07C4
:100AA00001962FE030E0B9010E94050C90936D078C
:100AB00080936C071092CC061092CB061092C10660
:100AC0001092C00630930102209300022EE1289F6D
:100AD000F001299FF00D1124E65CFD4F808191818A
:100AE00090936B0780936A078FEF9FEF90930302B9
:100AF000809302028CE394E00E94200480916C07B2
:100B000090916D07DF91CF911F910F91FF90EF9022
:100B1000DF90CF90BF900C949F0490936B078093CD
:100B20006A0781E090E09093CC068093CB068CE539
:100B300094E00E94200480916A0790916B07E2CFB5
:100B40001F93CF93DF93EC01162FFC01EE0FFF1FD5
:100B5000EC5FFD4F8081FE01EC54F94F91E09083F2
:100B600061E00E94F80188E694E00E942004CE0132
:100B70000E949F0464EF71E080E090E00E947C029C
:100B80001123F1F0C630D105FCF02697FE01EE0FDF
:100B9000FF1FEC5FFD4F10818EEB95E00E9420045B
:100BA000CE010E949F0464EF71E080E090E00E941B
:100BB0007C0260E0812F0E94F801CC54D94F18824A
:100BC000DF91CF911F9108952696E0CF8F929F924B
:100BD000AF92BF92CF92DF92EF92FF920F931F934B
:100BE000CF93DF938C01000F111F000F111FF8012D
:100BF000EC57F94FC080D180E280F3804A015B015D
:100C00008C189D08AE08BF087501640134EFC31647
:100C100031E0D306E104F10408F447C0B22E6A01C2
:100C20007B01EC01FC01EE0FFF1FEC5FFD4F8081AB
:100C3000FE01EC54F94F608191E0692760830E94C6
:100C4000F80184E794E00E942004CE010E949F04F2
:100C500064EF71E080E090E00E947C02BB20F1F044
:100C6000C630D1057CF12697FE01EE0FFF1FEC5F29
:100C7000FD4F60E080810E94F801FE01EC54F94FC5
:100C800010828FE794E00E942004CE010E949F040E
:100C900064EF71E080E090E00E947C02F801EC5784
:100CA000F94FC082D182E282F382DF91CF911F910E
:100CB0000F91FF90EF90DF90CF90BF90AF909F90FB
:100CC0008F9008952696D0CF1F920F920FB60F9255
:100CD00011242F933F938F939F93AF93BF93809152
:100CE000C3069091C406A091C506B091C606309186
:100CF000C20623E0230F2D3758F50196A11DB11D23
:100D00002093C2068093C3069093C406A093C506A1
:100D1000B093C6068091C7069091C806A091C906F7
:100D2000B091CA060196A11DB11D8093C70690938C
:100D3000C806A093C906B093CA06BF91AF919F9110
:100D40008F913F912F910F900FBE0F901F9018958C
:100D500026E8230F0296A11DB11DD2CF1F920F923C
:100D60000FB60F9211240BB60F922F933F934F9310
:100D70005F936F937F938F939F93AF93BF93EF9303
:100D8000FF938DEC96E00E942203FF91EF91BF91BB
:100D9000AF919F918F917F916F915F914F913F9113
:100DA0002F910F900BBE0F900FBE0F901F901895B4
:100DB0001F920F920FB60F9211240BB60F922F9322
:100DC0008F939F93EF93FF93E091DD06F091DE0602
:100DD0008081E091E306F091E40682FD1DC09081E0
:100DE0008091E6068F5F8F732091E706821741F0AE
:100DF000E091E606F0E0E353F94F958F8093E60625
:100E0000FF91EF919F918F912F910F900BBE0F90BB
:100E10000FBE0F901F9018958081F2CFEDECF6E099
:100E20001382128288EE93E0A0E0B0E08483958381
:100E3000A683B7838CE292E09183808385EC90E077
:100E40009587848784EC90E09787868780EC90E094
:100E5000918B808B81EC90E0938B828B82EC90E085
:100E6000958B848B86EC90E0978B868B118E128EFF
:100E7000138E148E80916C0790916D072EE1289F40
:100E8000F001299FF00D1124E65CFD4F80819181D6
:100E900090936B0780936A070895CF93DF9300D0F8
:100EA0001F92CDB7DEB7789484B5826084BD84B5D7
:100EB000816084BD85B5826085BD85B5816085BD55
:100EC00080916E00816080936E001092810080910D
:100ED0008100826080938100809181008160809395
:100EE0008100809180008160809380008091B100BA
:100EF00084608093B1008091B00081608093B000E5
:100F00008091910082608093910080919100816036
:100F100080939100809190008160809390008091F7
:100F2000A10082608093A1008091A10081608093E4
:100F3000A1008091A00081608093A0008091210198
:100F40008260809321018091210181608093210141
:100F50008091200181608093200180917A008460DB
:100F600080937A0080917A00826080937A008091E9
:100F70007A00816080937A0080917A008068809303
:100F80007A001092C100E091DD06F091DE0682E069
:100F90008083E091D906F091DA061082E091DB06B9
:100FA000F091DC068FEC80831092E506E091E1067B
:100FB000F091E20686E08083E091DF06F091E006A2
:100FC000808180618083E091DF06F091E00680817E
:100FD00088608083E091DF06F091E0068081806880
:100FE0008083E091DF06F091E00680818F7D808331
:100FF0002CE132E03C832B8304E012E0EB81FC81A6
:1010000080813296FC83EB8362E00E942602F80125
:10101000E0800E5F1F4F61E08E2D0E942602F801D6
:10102000F28461E08F2D0E94260260E08E2D0E94E6
:10103000F80160E08F2D0E94F8012B813C8128523D
:101040003240E1F68EE894E00E94EF0364EF71E035
:1010500080E090E00E947C0283E994E00E94EF032C
:1010600064EF71E080E090E00E947C0276E0872EE1
:10107000912CEEE14E2E66246394712C8FB7F89478
:10108000C090C306D090C406E090C506F090C60696
:101090008FBF8091CB069091CC068130910509F4E9
:1010A0000CC108F490C08230910509F46BC103971C
:1010B00009F4C6C210E000E08091C0069091C1061C
:1010C000081719070CF049C380916C0790916D07C0
:1010D0002FE0289FF001299FF00D1124E00FF11F50
:1010E000EE0FFF1FE65CFD4F808191819C838B8317
:1010F000B4010E94050C7C0155245394EB81FC81C2
:1011000036970CF4512CF701EE0FFF1FE45EFD4FF4
:1011100020812983822F0E94CF0131E03A83892BDD
:1011200009F41A8287EA95E00E94EF03EB81FC81C3
:10113000EE0FFF1FEC5FFD4F8081EB81FC81EC54D3
:10114000F94F108260E00E94F8018CEB95E00E945C
:1011500020048B819C810E949F0464EF71E080E0F9
:1011600090E00E947C0218014FEF241A340AA090EC
:10117000C006B090C10680916C0790916D07489EA3
:101180006001499ED00C112491012A153B050CF0F9
:1011900088C2F901EE0FFF1FEC0DFD1DE65CFD4F4F
:1011A0000190F081E02DCF01B4010E94050CE816FA
:1011B000F90631F45524539436970CF4512C8901D7
:1011C0002F5F3F4FE2CF89E994E00E94EF0364EF85
:1011D00071E080E090E00E947C0282E00E94CF01FA
:1011E000892B09F067CF40916C0750916D071092E1
:1011F000CC061092CB068FEF9FEF90930302809363
:101200000202CA014F30510514F08EE090E097FFC2
:1012100002C090E080E090936D0780936C0710927D
:10122000C1061092C006489EF001499EF00D11249F
:10123000E65CFD4F8081918190936B0780936A07F4
:10124000449E9001459E300D112490E080E0582F7F
:10125000492F8F30910561F10196FC01EE0FFF1FC0
:10126000E20FF31FE85CFD4F608171816F3F7F4F9C
:1012700071F750930002409301020E94FD037092A7
:10128000CC066092CB0685EA94E00E94200480910F
:101290006C0790916D070E949F0480EC94E00E947F
:1012A000200480910002909101020E949F0402CFCD
:1012B0009093010280930002E0CF8CEC94E00E94B6
:1012C000EF0364EF71E080E090E00E947C0220E098
:1012D000B701A60180916A0790916B070E94E6050D
:1012E00080916A0790916B07B401863091052CF1CB
:1012F0000E94050CFC01EE0FFF1FE45EFD4F808194
:101300000E94CF01019709F0D5CE89ED94E00E94AB
:10131000EF0364EF71E080E090E00E947C0260E007
:1013200080916A0790916B070E94A00522E030E04F
:101330003093CC062093CB06BDCE0E94050CFC0159
:10134000EE0FFF1FE45EFD4F80810E94CF01892BCD
:1013500009F0B0CE8AEE94E00E94EF0364EF71E0F2
:1013600080E090E00E947C0260E080916A079091AA
:101370006B070E94A00582E090E09093CC068093DA
:10138000CB0698CE8DEF94E00E94EF0364EF71E0FE
:1013900080E090E00E947C028091C0069091C1069E
:1013A00001962091000230910102821793070CF000
:1013B000A7C020916C0730916D074FE0429FF0016C
:1013C000439FF00D1124E80FF91FEE0FFF1FE65C9D
:1013D000FD4F80819181909303028093020289E006
:1013E00095E00E94200480910202909103020E94E5
:1013F0009F0464EF71E080E090E00E947C02009125
:101400000202109103020F3F100709F438C18091C6
:101410006A0790916B07081B190B17FF03C0119502
:10142000019511090630110509F07EC08DE395E0A4
:101430000E94200480916A0790916B070E94220409
:101440008AE195E00E9420048091020290910302BB
:101450000E949F0464EF71E080E090E00E947C02B3
:1014600021E0B701A60180910202909103020E943F
:10147000E605E0910202F0910302FC83EB83E63083
:10148000F1050CF440C0CF01B8010E94050CFC012D
:10149000EE0FFF1FE45EFD4F80810E94CF01892B7C
:1014A00009F408CE8091C0069091C10601969093F0
:1014B000C1068093C0062B813C8130936B0720933B
:1014C0006A077092CC066092CB0684E395E00E9496
:1014D000200480916A0790916B070E9422048AE1A0
:1014E00095E00E94200480910202909103020E94E4
:1014F0009F0464EF71E080E090E00E947C02DACD0E
:101500008FEF9FEF68CF8B819C81B8010E94050C03
:10151000FC01EE0FFF1FE45EFD4F80810E94CF01B2
:10152000892B09F4BFCFC6CD87E795E00E94200440
:1015300080916A0790916B070E9422048AE595E0EA
:101540000E94200480910202909103020E949F0455
:1015500064EF71E080E090E00E947C0261E08091A5
:101560006A0790916B070E94A00521E0B701A601D0
:1015700080910202909103020E94E60580916A0721
:1015800090916B07B401863091057CF00E94050CA8
:10159000FC01EE0FFF1FE45EFD4F80810E94CF0132
:1015A000892B79F40E94AD0485CD0E94050CFC01C5
:1015B000EE0FFF1FE45EFD4F80810E94CF01892B5B
:1015C00089F780910202909103029C838B83B4017E
:1015D0000E94050CFC01EE0FFF1FE45EFD4F8081B1
:1015E000EB81FC8136973CF10E94CF01892B09F4F5
:1015F00061CD8091C0069091C10601969093C1067D
:101600008093C0062B813C8130936B0720936A073F
:1016100083E090E09093CC068093CB068EE695E035
:101620000E94200480916A0790916B070E949F049A
:101630008EE895E056CF0E94CF01892BD1F23ACDAA
:1016400064EF71E080E090E00E947C028BE995E01D
:101650000E94EF038091020290910302B401863050
:10166000910584F00E94050CFC01EE0FFF1FE45E63
:10167000FD4F80810E94CF01019709F093CF0E9416
:10168000CC0418CD0E94050CFC01EE0FFF1FE45E98
:10169000FD4F80810E94CF01892B89F383CF810187
:1016A0000BCD8A818515D9F380916A0790916B07DC
:1016B000B4010E94050C5C01E816F90681F38091E3
:1016C000020290910302B4010E94050C6C01E8161D
:1016D000F90629F389810E94CF0158161906F9F2FB
:1016E0001093C1060093C006EB81FC81F0936B0759
:1016F000E0936A077092CC066092CB060E94FD03CD
:101700008BEC95E00E942004C5010E949F0486EEA8
:1017100095E00E942004C6010E949F0483EF95E09B
:101720000E942004C7010E949F0480E096E00E946E
:1017300020048091C0069091C1060E9422048EE090
:1017400096E00E9420048B819C810E94220464EF19
:1017500071E080E090E00E947C028BE196E00E94C4
:1017600020048091CB069091CC068230910509F43B
:1017700046C0A8F50097D9F10197F1F185E596E00B
:101780000E94200480916C0790916D070E942204B2
:1017900082E696E00E9420048091C0069091C106E6
:1017A0000E9422048CE696E00E94200480916A0741
:1017B00090916B070E94220489E796E00E94200422
:1017C00080910202909103020E949F0464E670E0FF
:1017D00080E090E00E947C020E94B1034FCC8330F5
:1017E000910581F0049751F68FE496E002C083E200
:1017F00096E00E942004C2CF88E296E0FACF85E30B
:1018000096E0F7CF83E496E0F4CF97FB072E16F42B
:10181000009407D077FD09D00E94430C07FC05D047
:101820003EF4909581959F4F0895709561957F4FF7
:101830000895A1E21A2EAA1BBB1BFD010DC0AA1F11
:10184000BB1FEE1FFF1FA217B307E407F50720F029
:10185000A21BB30BE40BF50B661F771F881F991FA4
:101860001A9469F760957095809590959B01AC01ED
:10187000BD01CF010895EE0FFF1F881F8BBF07909A
:10188000F691E02D1994AA1BBB1B51E107C0AA1FBA
:10189000BB1FA617B70710F0A61BB70B881F991F11
:1018A0005A95A9F780959095BC01CD010895F894BB
:0218B000FFCF68
:1018B2000F00FFFF09000A000C000D000E000F00D0
:1018C20010001100120013001400150002000300A2
:1018D2000400050006000700000000004403AE02F9
:1018E200DB0291030C03EA02FE02070008000A0071
:1018F200070006000900030000000100FFFF0000CE
:1019020000000000000000000700010007000100C5
:1019120007000100FFFF00000000000000000000BF
:10192200000000000000060009000000030006009D
:10193200090000000300FFFF00000000000000009B
:101942000000000008000A00070002000100040075
:1019520003000900FFFF000000000000000000007B
:10196200000006000700080009000A00000001004C
:10197200020003000400FFFF00000000000000005E
:10198200090003000000060003000900FFFF000039
:101992000000000000000000000000000000000045
:1019A2000000000000000000000000000000000035
:1019B2000000000000000000000000000000000025
:1019C2000000000000000000000000000000000015
:1019D2000000000000000000000000000000000005
:1019E20000000000000000000000000000000000F5
:1019F20000000000000000000000000000000000E5
:101A020000000000000000000000000000000000D4
:101A120000000000000000000000000000000000C4
:101A220000000000000000000000000000000000B4
:101A320000000000000000000000000000000000A4
:101A42000000000000000000000000000000000094
:101A52000000000000000000000000000000000084
:101A62000000000000000000000000000000000074
:101A72000000000000000000000000000000000064
:101A82000000000000000000000000000000000054
:101A92000000000000000000000000000000000044
:101AA2000000000000000000000000000D0A0072AB
:101AB2006573657420616C6C206C6564733A0054C4
:101AC200726967676572204572726F722073746102
:101AD20074653A00416476616E6365205374657083
:101AE2002070726F6720737465703A0046696E6980
:101AF200736865642070726F6772616D20737461C0
:101B020072742070726F6772616D3A0063757272DF
:101B1200656E745374657000736574206F6E206C0B
:101B220065643A00426C696E6B206C65643A0062CF
:101B32006C696E6B206F6666206C65643A00496E54
:101B420069740053746172740048616E646C65203C
:101B520069646C65005365742070726F6772616DA1
:101B62002063757272656E7450726F6772616D0078
:101B7200546F74616C20737465707300426C696E8B
:101B82006B2054617267657400426C696E6B2054FD
:101B920061726765742072656400426C696E6B20C5
:101BA20054617267657420677265656E0068616E64
:101BB200646C6520576169740068616E646C6520AD
:101BC20057616974206E657874005370656369614A
:101BD2006C2073616D6520627574746F6E206E6522
:101BE20078743A0046696E6973686564205370655B
:101BF2006369616C2073616D6520627574746F6EC8
:101C02002063757272656E743A004E6F726D616C0C
:101C120020627574746F6E206E6578743A0046693E
:101C22006E6973686564204E6F726D616C206275B7
:101C320074746F6E2063757272656E743A004E6FC3
:101C4200726D616C206E6578743A005665726966D1
:101C520079206E657874006D617420636865636BCA
:101C6200206572726F72206F66663A0072657365E4
:101C720074206F6666206C65643A006D617420633F
:101C82006865636B206572726F72206E6578746925
:101C92006E6465783A00667574757265696E64651E
:101CA200783A00627574746F6E496E6465783A00B2
:101CB20070726F6772616D20737465703A0063753C
:101CC2007272656E74537465703A00537461746510
:101CD2003A200049444C4500424C494E4B5F544126
:101CE2005247455400574149545F464F525F484F4F
:101CF2004C44005645524946595F4E45585400459A
:101D020052524F5200207C2050726F6772616D3ABE
:101D12002000207C20537465703A2000207C2043F0
:101D2200757272656E743A2000207C204E6578745C
:041D32003A20000053
:00000001FF
