:100000000C9427010C9458010C9458010C9458013D
:100010000C9458010C9458010C9458010C945801FC
:100020000C9458010C9458010C9458010C945801EC
:100030000C9458010C9458010C9458010C945801DC
:100040000C9458010C9458010C9458010C945801CC
:100050000C9458010C9458010C9458010C94E8032A
:100060000C9458010C9458010C9458010C945801AC
:100070000C9458010C9458010C9458010C9458019C
:100080000C9458010C9458010C9458010C9458018C
:100090000C9458010C9458010C9458010C9458017C
:1000A0000C9458010C9458010C9458010C9458016C
:1000B0000C9458010C9458010C9458010C9458015C
:1000C0000C9458010C9458010C9458010C9458014C
:1000D0000C9458010C9458010C9458010C9458013C
:1000E0000C9458010C94BD010C949D010C94970143
:1000F0000C94B9010C94A1010C94A5010C94D8079F
:100100000C9482010C94B8010C9486010C94B301F8
:100110000C948D010C94AF010C9493010C948A0102
:100120000C947E010C9478010C94AB01000021002A
:10013000240027002A002D003000330001010000B8
:10014000040107010A0100002200250028002B00FD
:100150002E003100340002010000050108010B01EE
:10016000000020002300260029002C002F00320070
:100170000001000003010601090105050505070549
:1001800008080808020202020A0A08080404040413
:10019000010101010101010103030303030303033F
:1001A000040707070C0C0C0C0C0C0C0C02020202CE
:1001B00006060606060606060B0B0B0B0B0B0B0BB7
:1001C0000102102020080810204010204080020169
:1001D000020108040201010204081020408080404E
:1001E000201008040201800402018040201008044D
:1001F00002010804020101020408102040800102EB
:1002000004081020408000000A0B02090C0D0E08A3
:1002100007030401000000000000000000000000CF
:1002200000000000000000000000000000000000CE
:10023000000012111000000000000000000000008B
:10024000000000000000000000000000D80711249A
:100250001FBECFEFD1E2DEBFCDBF00E00CBF13E089
:10026000A0E0B2E0EAE3F0E100E00BBF02C00790DB
:100270000D92AE3EB107D9F724E0AEEEB3E001C077
:100280001D92AB33B207E1F711E0C7E2D1E000E025
:1002900006C021970109802FFE010E94FF07C63288
:1002A000D10780E00807A9F70E9432040C941B08CC
:1002B0000C9400008150823108F05AC0E82FF0E021
:1002C0008827EA59FE4F8F4F0C94FF0786018A0159
:1002D00078017E018201B8018D01930197019D0192
:1002E000A101A501AB01AF01B801B301B901BD0185
:1002F000809180008F7780938000089580918000A6
:100300008F7DF9CF80918000877FF5CF84B58F777F
:1003100084BD089584B58F7DFBCF8091B0008F7729
:100320008093B00008958091B0008F7DF9CF8091C7
:1003300090008F77809390000895809190008F7D3A
:10034000F9CF80919000877FF5CF8091A0008F77C3
:100350008093A00008958091A0008F7DF9CF8091B7
:10036000A000877FF5CF809120018F7780932001B7
:100370000895809120018F7DF9CF80912001877FA2
:10038000F5CFCF93DF93282F30E0F901EA5FFD4FDF
:100390008491F901E054FE4FD491F901E658FE4FE3
:1003A000C491CC23A1F081110E945A01EC2FF0E0FE
:1003B000EE0FFF1FE05AFE4FA591B491EC91ED2393
:1003C00081E090E009F480E0DF91CF91089580E032
:1003D00090E0FACF1F93CF93DF93282F30E0F901FD
:1003E000EA5FFD4F8491F901E054FE4FD491F90189
:1003F000E658FE4FC491CC23A9F0162F81110E941C
:100400005A01EC2FF0E0EE0FFF1FEA5BFE4FA591C3
:10041000B4918FB7F894EC91111108C0D095DE23F8
:10042000DC938FBFDF91CF911F910895DE2BF8CF22
:10043000CF93DF9390E0FC01E054FE4F2491865867
:100440009E4FFC0184918823D1F090E0880F991F82
:10045000FC01E45DFE4FA591B491FC01EA5BFE4F07
:10046000C591D491623071F49FB7F8943C91822F7A
:10047000809583238C93E8812E2B28839FBFDF9167
:10048000CF9108958FB7F894EC912E2B2C938FBFBA
:10049000F6CF3FB7F8948091370490913804A0913B
:1004A0003904B0913A0426B5A89B05C02F3F19F036
:1004B0000196A11DB11D3FBFBA2FA92F982F8827E4
:1004C000BC01CD01620F711D811D911D42E0660FBF
:1004D000771F881F991F4A95D1F708958F929F9291
:1004E000AF92BF92CF92DF92EF92FF924B015C01ED
:1004F0000E9449026B017C010E9449026C197D092E
:100500008E099F09683E734081059105A8F321E09B
:10051000821A9108A108B10888EEC80E83E0D81E9F
:10052000E11CF11C81149104A104B10429F7FF908E
:10053000EF90DF90CF90BF90AF909F908F900895F5
:100540000F931F93CF93DF93CEE1D4E008E012E046
:100550001992F80180810E5F1F4F60E00E94EA014E
:10056000F4E0CA32DF07A1F7DF91CF911F910F911D
:1005700008959F92AF92BF92CF92DF92EF92FF9237
:100580000F931F93CF93DF9380912E0490912F04AC
:10059000019690932F0480932E04C0912C04D09147
:1005A0002D0420910602309107028217930794F4DC
:1005B0002FE02C9FF0012D9FF00D1124E80FF91F63
:1005C000EE0FFF1FE45DFD4F808191818F3F980703
:1005D00009F089C003E010E0992493944AE2A42E24
:1005E00044E0B42E28E0C22E22E0D22E3EE1E32EDB
:1005F00034E0F32EF70191927F01F6018081F2E061
:10060000CF0ED11C61E00E94EA0124E2E21624E050
:10061000F20681F76CE271E080E090E00E946E02E9
:100620000E94A00284E2E82E84E0F82E94E1C92E14
:1006300092E0D92EF70191927F01F6018081F2E0DC
:10064000CF0ED11C61E00E94EA01AE14BF0491F705
:100650006CE271E080E090E00E946E020E94A002D5
:100660000150110909F0BECFCE0101962FE030E014
:10067000B9010E94EB0790932D0480932C041092F3
:1006800031041092300410922F0410922E043093F3
:100690000702209306022FEF3FEF309301022093D1
:1006A00000024EE1489FF001499FF00D1124E45DE6
:1006B000FD4F8081918190932B0480932A04309385
:1006C0000302209302023093050220930402DF917B
:1006D000CF911F910F91FF90EF90DF90CF90BF903F
:1006E000AF909F90089520912A0430912B0430936D
:1006F00001022093000290932B0480932A0481E04E
:1007000090E09093310480933004E1CF8F929F92D8
:10071000AF92BF92CF92DF92EF92FF920F931F930F
:10072000CF93DF938C01000F111F000F111FF801F1
:10073000E251FC4FC080D180E280F3804A015B012E
:100740008C189D08AE08BF087501640134EFC3160C
:1007500031E0D306E104F10460F1B22E6A017B01BD
:10076000EC01FC01EE0FFF1FE85FFD4F8081FE01F1
:10077000E25EFB4F608191E0692760830E94EA019D
:10078000BB2081F0C630D1050CF12697FE01EE0F9B
:10079000FF1FE85FFD4F60E080810E94EA01C25EBA
:1007A000DB4F1882F801E251FC4FC082D182E28215
:1007B000F382DF91CF911F910F91FF90EF90DF9027
:1007C000CF90BF90AF909F908F9008952696DECFE8
:1007D0001F920F920FB60F9211242F933F938F9376
:1007E0009F93AF93BF938091330490913404A09171
:1007F0003504B09136043091320423E0230F2D37B5
:1008000058F50196A11DB11D209332048093330445
:1008100090933404A0933504B09336048091370448
:1008200090913804A0913904B0913A040196A11D29
:10083000B11D8093370490933804A0933904B0938A
:100840003A04BF91AF919F918F913F912F910F905B
:100850000FBE0F901F90189526E8230F0296A11D3A
:10086000B11DD2CFCF93DF9300D01F921F92CDB78F
:10087000DEB7789484B5826084BD84B5816084BD20
:1008800085B5826085BD85B5816085BD80916E002E
:10089000816080936E00109281008091810082605F
:1008A000809381008091810081608093810080919C
:1008B00080008160809380008091B100846080938B
:1008C000B1008091B00081608093B0008091910070
:1008D000826080939100809191008160809391006B
:1008E000809190008160809390008091A10082604F
:1008F0008093A1008091A10081608093A1008091EC
:10090000A00081608093A00080912101826080938B
:10091000210180912101816080932101809120013A
:1009200081608093200180917A00846080937A00B6
:1009300080917A00826080937A0080917A00816051
:1009400080937A0080917A00806880937A00109278
:10095000C10020E232E03B832A8308E012E08CE20F
:10096000C82E82E0D82EEA81FB8180813296FB83FB
:10097000EA8362E00E941802F801E0800E5F1F4FD8
:1009800061E08E2D0E941802F801F28461E08F2D43
:100990000E94180260E08E2D0E94EA0160E08F2D17
:1009A0000E94EA012A813B81C216D306E1F616E0D5
:1009B000812E912C22242A94322C8FB7F8944090C7
:1009C00033045090340460903504709036048FBF27
:1009D000E0903004F090310431E0E316F10409F4C2
:1009E00021C108F4BAC062E0E616F10409F45EC160
:1009F00083E0E816F10409F469C2E0902E04F09057
:100A00002F0480910602909107020197E816F906DB
:100A10000CF0C1C293E0E916F1040CF4BCC2F7017A
:100A20003397FD83EC832C813D81E216F30609F4B4
:100A3000B2C280910402909105022F5F3F4F3B8329
:100A40002A83EC81FD81E817F90709F4ACC201960D
:100A5000E817F90709F4A7C260902C0470902D04E0
:100A60002FE0269DF001279DF00D11248C819D81A2
:100A7000E80FF91FEE0FFF1FE45DFD4FC080D1802E
:100A8000C601B4010E94EB078C01BB24B39496E02D
:100A9000C916D1040CF4B12CF801EE0FFF1FE05E73
:100AA000FD4FA0808A2D0E94C101E1E0E983892BDE
:100AB00009F4198280912A0490912B04B4010E94B8
:100AC000EB072C010817190709F180910202909198
:100AD0000302B4010E94EB0708171907B9F08091CF
:100AE000000290910102B4010E94EB070817190758
:100AF00069F0F601EE0FFF1FE85FFD4F8081F60100
:100B0000E25EFB4F108260E00E94EA012A813B8195
:100B1000FEE1F69D6001F79DD00C11242E153F05D6
:100B20000CF000C2F901EE0FFF1FEC0DFD1DE45D9E
:100B3000FD4F0190F081E02DCF01B4010E94EB0741
:100B40000817190739F4BB24B39436970CF4B12C69
:100B50003D832C832F5F3F4FE1CF82E00E94C10194
:100B6000892B09F04ACF40912C0450912D0410920A
:100B7000310410923004309201022092000230922F
:100B80000302209202023092050220920402CA015E
:100B90004F30510514F08EE090E097FF02C090E0D6
:100BA00080E090932D0480932C0410922F041092D7
:100BB0002E046EE1689FF001699FF00D1124E45D41
:100BC000FD4F8081918190932B0480932A04649F30
:100BD0009001659F300D112490E080E0582F492F3F
:100BE0008F309105D1F00196FC01EE0FFF1FE20F4F
:100BF000F31FE65DFD4F608171816F3F7F4F71F79D
:100C000050930602409307020E94A00221E030E0C8
:100C10003093310420933004F0CE909307028093F8
:100C20000602F2CF80912A0490912B049B838A8341
:100C300020E0B301A2010E9486038A819B81B40156
:100C40000E94EB07FC01EE0FFF1FE05EFD4F80816D
:100C5000EA81FB813697CCF00E94C101019709F02F
:100C6000CCCEEA81FB81EE0FFF1FE85FFD4F808154
:100C70002A813B81225E3B4FF90121E0208361E024
:100C80000E94EA0182E090E017C10E94C101892B15
:100C900009F0B3CEEA81FB81EE0FFF1FE85FFD4F45
:100CA0008081EA81FB81E25EFB4FE7CF20912E0439
:100CB00030912F0459019FEFA91AB90A80910602B9
:100CC00090910702A816B9060CF078C040912C0448
:100CD00050912D04EFE0E49FC001E59F900D112499
:100CE000FC01EA0DFB1DEE0FFF1FE45DFD4F40818F
:100CF000518150930302409302021216130674F4BA
:100D0000F9013197E80FF91FEE0FFF1FE45DFD4F6A
:100D10008081918190930102809300028091020270
:100D2000909103029B838A838F3F980709F4E9C05F
:100D300000912A0410912B046C01C01AD10AD7FE2D
:100D400003C0D194C194D108F6E0CF16D10409F0C4
:100D50003FC0309305022093040221E0B301A201B9
:100D60008A819B810E9486038A819B81B6010E94B1
:100D7000EB07FC01EE0FFF1FE05EFD4F80812A8133
:100D80003B8126303105FCF00E94C101892B09F41A
:100D900034CEB0922F04A0922E041093010200933F
:100DA00000028A819B8190932B0480932A04E1E0C6
:100DB000F0E0F0933104E09330041FCE3092030250
:100DC00020920202ABCF0E94C101892B11F315CEF4
:100DD000F801EE0FFF1FE85FFD4F8081F801E25E32
:100DE000FB4F21E0208361E00E94EA0168010630A8
:100DF0001105B4F136E0C31AD108F601EE0FFF1F5A
:100E0000E85FFD4F60E080810E94EA01F601E25E4A
:100E1000FB4F108221E0B301A2018A819B810E94D5
:100E20008603C801B4010E94EB07FC01EE0FFF1F0F
:100E3000E05EFD4F808106301105B4F00E94C101D3
:100E4000892BB1F48091300490913104039719F00B
:100E5000EE24E394F12CF0923104E0923004CDCDF5
:100E600046E0C40ED11CC9CF0E94C101892B51F7A5
:100E70008A819B81B4010E94EB07FC01EE0FFF1FEA
:100E8000E05EFD4F8081EA81FB813697D4F00E94BD
:100E9000C101892B09F4B1CDB0922F04A0922E0488
:100EA00010930102009300022A813B8130932B04AE
:100EB00020932A0483E090E09093310480933004DF
:100EC0009CCD0E94C101892B39F397CD64EF71E06D
:100ED00080E090E00E946E022091020230910302B5
:100EE000C901B4010E94EB07FC01EE0FFF1FE05E99
:100EF000FD4F8081263031053CF00E94C1010197F1
:100F000039F40E94B90279CD0E94C101892BC9F33D
:100F10008091300490913104039709F4B3CE81E0BD
:100F200090E0CACF29812B15F1F104151505D9F1EF
:100F30008091020290910302B4010E94EB0708170E
:100F4000190789F18A2D0E94C101B816190659F1B5
:100F50008C819D8190932F0480932E04EFE0E69D79
:100F6000C001E79D900D11242C813D81280F391F70
:100F7000220F331F245D3D4FF901808191819093B1
:100F80002B0480932A0421E030E030933104209335
:100F900030040E94A002E0E0F0E0EF2B09F40DCD58
:100FA0000E9400000ACD8A819B819D838C833BCD6A
:100FB00080912C0490912D042EE1289FF001299F0F
:100FC000F00D1124E45DFD4F8081918190932B04FD
:100FD00080932A04089597FB072E16F4009407D0F7
:100FE00077FD09D00E94070807FC05D03EF49095D4
:100FF00081959F4F0895709561957F4F0895EE0FED
:10100000FF1F881F8BBF0790F691E02D1994AA1B34
:10101000BB1B51E107C0AA1FBB1FA617B70710F0E3
:10102000A61BB70B881F991F5A95A9F78095909515
:0A103000BC01CD010895F894FFCF34
:10103A00FFFFFFFFFFFF0F0009000A000C000D0071
:10104A000E000F001000110012001300140015000A
:10105A000200030004000500060007000700010063
:10106A000800030009000100020001000700010056
:10107A00FFFF000000000000000006000700080053
:10108A0009000A0000000100020003000400FFFF3B
:10109A000000000000000000070008000A00070026
:1010AA0006000900030000000100FFFF0000000025
:1010BA00000000000000060009000000030006000E
:1010CA00090000000300FFFF00000000000000000C
:1010DA000000000008000A000700020001000400E6
:1010EA0003000900FFFF00000000000000000000EC
:1010FA000000090003000000060003000900FFFFCA
:10110A0000000000000000000000000000000000D5
:10111A0000000000000000000000000000000000C5
:10112A0000000000000000000000000000000000B5
:10113A0000000000000000000000000000000000A5
:10114A000000000000000000000000000000000095
:10115A000000000000000000000000000000000085
:10116A000000000000000000000000000000000075
:10117A000000000000000000000000000000000065
:10118A000000000000000000000000000000000055
:10119A000000000000000000000000000000000045
:1011AA000000000000000000000000000000000035
:1011BA000000000000000000000000000000000025
:1011CA000000000000000000000000000000000015
:1011DA000000000000000000000000000000000005
:1011EA0000000000000000000000000000000000F5
:1011FA0000000000000000000000000000000000E5
:10120A0000000000000000000000000000000000D4
:0E121A000000000000000000000000000000C6
:00000001FF
