:100000000C9435010C9466010C9466010C94660105
:100010000C9466010C9466010C9466010C946601C4
:100020000C9466010C9466010C9466010C946601B4
:100030000C9466010C9466010C9466010C946601A4
:100040000C9466010C9466010C9466010C94660194
:100050000C9466010C9466010C9466010C946D0678
:100060000C9466010C94E1060C94B7060C9466019E
:100070000C9466010C9466010C9466010C94660164
:100080000C9466010C9466010C9466010C94660154
:100090000C9466010C9466010C9466010C94660144
:1000A0000C9466010C9466010C9466010C94660134
:1000B0000C9466010C9466010C9466010C94660124
:1000C0000C9466010C9466010C9466010C94660114
:1000D0000C9466010C9466010C9466010C94660104
:1000E0000C9466010C949B010C94C7010C94C10103
:1000F0000C9494010C9498010C94AF020C94AF01F1
:100100000C94C6010C94B3010C94CB010C94A10186
:100110000C9445030C940D030C9490010C94DC0298
:100120000C94A5010C94BD010C94B9010C9492039C
:100130000C9417070C94AB010C94FF020C94EB0287
:100140000C948C010C9486010000210024002700EF
:100150002A002D00300033000101000004010701D6
:100160000A0100002200250028002B002E0031008B
:10017000340002010000050108010B01000020000D
:100180002300260029002C002F003200000100006F
:10019000030106010901050505050705080808080A
:1001A000020202020A0A080804040404010101010F
:1001B000010101010303030303030303040707070A
:1001C0000C0C0C0C0C0C0C0C0202020206060606AF
:1001D000060606060B0B0B0B0B0B0B0B010210207C
:1001E000200808102040102040800201020108046D
:1001F0000201010204081020408080402010080401
:100200000201800402018040201008040201080459
:10021000020101020408102040800102040810209D
:10022000408000000A0B02090C0D0E0807030401B0
:1002300000000000000000000000000000000000BE
:10024000000000000000000000000000000012118B
:10025000100000000000000000000000000000008E
:100260000000000000000000170711241FBECFEFA0
:10027000D1E2DEBFCDBF00E00CBF1CE0A0E0B2E0E9
:10028000E4E4FBE100E00BBF02C007900D92A63250
:10029000B107D9F72DE0A6E2BCE001C01D92A03164
:1002A000B207E1F711E0C5E3D1E000E006C0219715
:1002B0000109802FFE010E94840DC433D10780E024
:1002C0000807A9F70E9456070C94A00D0C94000093
:1002D0008150823108F05AC0E82FF0E08827EC58AE
:1002E000FE4F8F4F0C94840D9401980186018C0170
:1002F0009001C6019B01A101A501AB01AF01B301B2
:10030000B901BD01C601C101C701CB0180918000C7
:100310008F77809380000895809180008F7DF9CF42
:1003200080918000877FF5CF84B58F7784BD089555
:1003300084B58F7DFBCF8091B0008F778093B00024
:1003400008958091B0008F7DF9CF809190008F77D4
:10035000809390000895809190008F7DF9CF8091D7
:100360009000877FF5CF8091A0008F778093A000C9
:1003700008958091A0008F7DF9CF8091A000877FA4
:10038000F5CF809120018F7780932001089580918F
:1003900020018F7DF9CF80912001877FF5CFCF930A
:1003A000DF93282F30E0F901EE5DFD4F8491F901D4
:1003B000E452FE4FD491F901EA56FE4FC491CC238A
:1003C000A1F081110E946801EC2FF0E0EE0FFF1FF9
:1003D000E458FE4FA591B491EC91ED2381E090E0BB
:1003E00009F480E0DF91CF91089580E090E0FACFAA
:1003F0001F93CF93DF93282F30E0F901EE5DFD4F7F
:100400008491F901E452FE4FD491F901EA56FE4F6E
:10041000C491CC23A9F0162F81110E946801EC2F02
:10042000F0E0EE0FFF1FEE59FE4FA591B4918FB78C
:10043000F894EC91111108C0D095DE23DC938FBFA6
:10044000DF91CF911F910895DE2BF8CFCF93DF93EB
:1004500090E0FC01E452FE4F24918A569E4FFC012D
:1004600084918823D1F090E0880F991FFC01E85B0C
:10047000FE4FA591B491FC01EE59FE4FC591D49168
:10048000623071F49FB7F8943C91822F809583235A
:100490008C93E8812E2B28839FBFDF91CF91089505
:1004A0008FB7F894EC912E2B2C938FBFF6CF3FB7DC
:1004B000F8948091690C90916A0CA0916B0CB091AA
:1004C0006C0C26B5A89B05C02F3F19F00196A11D05
:1004D000B11D3FBFBA2FA92F982F8827BC01CD018E
:1004E000620F711D811D911D42E0660F771F881FED
:1004F000991F4A95D1F708958F929F92AF92BF921C
:10050000CF92DF92EF92FF926B017C010E94570223
:100510004B015C01C114D104E104F104B9F00E9463
:100520005702681979098A099B09683E7340810559
:10053000910580F321E0C21AD108E108F10888EEA4
:10054000880E83E0981EA11CB11CE4CFFF90EF90B1
:10055000DF90CF90BF90AF909F908F900895AF9213
:10056000BF92CF92DF92EF92FF920F931F93CF93A0
:10057000DF936C017B018B01040F151FEB015E0102
:10058000AE18BF08C017D10759F06991D601ED9197
:10059000FC910190F081E02DC6011995892B79F726
:1005A000C501DF91CF911F910F91FF90EF90DF90E8
:1005B000CF90BF90AF900895FC01538D448D252FAF
:1005C00030E0842F90E0821B930B541710F0CF96ED
:1005D000089501970895FC01918D828D981761F01F
:1005E000A28DAE0FBF2FB11D5D968C91928D9F5F36
:1005F0009F73928F90E008958FEF9FEF0895FC0115
:10060000918D828D981731F0828DE80FF11D858DC7
:1006100090E008958FEF9FEF0895FC01918D228D5A
:10062000892F90E0805C9F4F821B91098F739927DF
:1006300008958FE69CE00E940D0321E0892B09F4C8
:1006400020E0822F0895FC01A48DA80FB92FB11DC1
:10065000A35ABF4F2C91848D90E001968F739927F8
:10066000848FA689B7892C93A089B1898C918370D6
:1006700080648C93938D848D981306C00288F389CF
:10068000E02D80818F7D80830895EF92FF920F93FC
:100690001F93CF93DF93EC0181E0888F9B8D8C8D2E
:1006A00098131AC0E889F989808185FF15C09FB722
:1006B000F894EE89FF896083E889F98980818370E5
:1006C000806480839FBF81E090E0DF91CF911F9194
:1006D0000F91FF90EF900895F62E0B8D10E00F5FB5
:1006E0001F4F0F731127E02E8C8D8E110CC00FB68B
:1006F00007FCFACFE889F989808185FFF5CFCE0123
:100700000E942303F1CFEB8DEC0FFD2FF11DE35A77
:10071000FF4FF0829FB7F8940B8FEA89FB898081A5
:100720008062CFCFCF93DF93EC01888D8823B9F01F
:10073000AA89BB89E889F9898C9185FD03C08081EC
:1007400086FD0DC00FB607FCF7CF8C9185FFF2CF69
:10075000808185FFEDCFCE010E942303E9CFDF9199
:10076000CF91089580E090E0892B29F00E94190331
:1007700081110E94000080E090E0892B49F080E028
:1007800090E0892B29F00E94000081110E94000056
:1007900080E090E0892B49F080E090E0892B29F0FF
:1007A0000E94000081110E94000080E090E0892BEF
:1007B00049F080E090E0892B29F00E94000081112F
:1007C0000C9400000895FC0101900020E9F7319796
:1007D000AF01481B590BBC018FE69CE00C94AF02A3
:1007E000CF93DF930E94E303EC018EE899E00E942F
:1007F000E3038C0F9D1FDF91CF9108950F931F93FB
:10080000CF93DF9381E999E00E94F00364EF71E0F8
:1008100080E090E00E947C02C6E5DCE000EB15E0A1
:100820001992F80180810E5F1F4F60E00E94F8016D
:10083000FCE0C236DF07A1F7DF91CF911F910F9146
:1008400008950C94E3038F929F92AF92BF92CF9240
:10085000DF92EF92FF920F931F93CF93DF93CDB769
:10086000DEB7A1970FB6F894DEBF0FBECDBF6C0107
:10087000990FEE08FF08F7FE41C06DE28FE69CE09D
:100880000E9445038C0122273327A9012C193D0919
:100890004E095F0919A2CE0181967C019AE0892E4A
:1008A000912CA12CB12CCA01B901A50194010E947F
:1008B000620D605DF70162937F01211531054105ED
:1008C000510589F790E080E0309719F0CF010E9440
:1008D000E303800F911FA1960FB6F894DEBF0FBE01
:1008E000CDBFDF91CF911F910F91FF90EF90DF90DF
:1008F000CF90BF90AF909F908F900895A7019601E1
:1009000019A28E010F5D1F4F8AE0C82ED12CE12C59
:10091000F12CCA01B901A70196010E94620D605D28
:10092000F80162938F01211531054105510589F7C1
:1009300090E080E0309779F2CF010E94E303CBCFC3
:10094000CF93DF930E942304EC018EE899E00E948C
:10095000E3038C0F9D1FDF91CF91089580916D0C63
:1009600090916E0C0397B1F081E090E090936E0C43
:1009700080936D0C81EA99E00E94210480916D0CB6
:1009800090916E0C0E94A00464EF71E080E090E012
:100990000C947C0282E090E0E9CFBF92CF92DF928C
:1009A000EF92FF920F931F93CF93DF938091620C8E
:1009B0009091630C01969093630C8093620C86EB8C
:1009C00099E00E9421048091620C9091630C0E9436
:1009D000A0048091620C9091630C209102023091EE
:1009E000030282179307B4F420910E0D30910F0D7E
:1009F0004DE0429FF001439FF00D1124E80FF91FD5
:100A0000EE0FFF1FEA51FA4F808191818F3F9807C7
:100A100009F084C0C3E0D0E0BB24B39422E6C22E28
:100A20002CE0D22E90EBE92E95E0F92E06E51CE0A5
:100A3000F801B1928F01F7018081F2E0EF0EF11C15
:100A400061E00E94F8012CE00C35120789F76CE296
:100A500071E080E090E00E947C020E94FE030CE5C1
:100A60001CE08CEBE82E85E0F82EF801B1928F01A6
:100A7000F7018081F2E0EF0EF11C61E00E94F801C5
:100A8000C016D10691F76CE271E080E090E00E9420
:100A90007C020E94FE03219729F610926E0C1092A0
:100AA0006D0C1092630C1092620C8DE090E09093AC
:100AB0000302809302028FEF9FEF909307028093CF
:100AC000060220910E0D30910F0D4AE1429FF00178
:100AD000439FF00D1124EA51FA4F20813181309368
:100AE0000D0D20930C0D90930502809304029093BA
:100AF0000102809300028EEC99E00E942104809113
:100B00000E0D90910F0DDF91CF911F910F91FF90DE
:100B1000EF90DF90CF90BF900C94A00420910C0D2B
:100B200030910D0D309307022093060290930D0D26
:100B300080930C0D81E090E090936E0C80936D0C8F
:100B40008EEE99E00E94210480910C0D90910D0D84
:100B5000DACF1F93CF93DF93EC01162FFC01EE0F3A
:100B6000FF1FE055FA4F8081FE01EA5AF34F91E0F2
:100B7000908361E00E94F8018AEF99E00E942104CD
:100B8000CE010E94A00464EF71E080E090E00E943A
:100B90007C021123F1F0C630D105FCF02697FE014E
:100BA000EE0FFF1FE055FA4F108181E99BE00E9494
:100BB0002104CE010E94A00464EF71E080E090E087
:100BC0000E947C0260E0812F0E94F801CA5AD34F34
:100BD0001882DF91CF911F9108952696E0CF8F92D2
:100BE0009F92AF92BF92CF92DF92EF92FF920F93BC
:100BF0001F93CF93DF938C01000F111F000F111F64
:100C0000F801EA5DF34FC080D180E280F3804A01B1
:100C10005B018C189D08AE08BF087501640134EFB4
:100C2000C31631E0D306E104F10408F447C0B22E44
:100C30006A017B01EC01FC01EE0FFF1FE055FA4F4A
:100C40008081FE01EA5AF34F608191E06927608359
:100C50000E94F80186E09AE00E942104CE010E94E1
:100C6000A00464EF71E080E090E00E947C02BB2071
:100C7000F1F0C630D1057CF12697FE01EE0FFF1F83
:100C8000E055FA4F60E080810E94F801FE01EA5AC7
:100C9000F34F108281E19AE00E942104CE010E946C
:100CA000A00464EF71E080E090E00E947C02F80113
:100CB000EA5DF34FC082D182E282F382DF91CF916D
:100CC0001F910F91FF90EF90DF90CF90BF90AF906A
:100CD0009F908F9008952696D0CF1F920F920FB6B7
:100CE0000F9211242F933F938F939F93AF93BF93B2
:100CF0008091650C9091660CA091670CB091680C86
:100D00003091640C23E0230F2D3758F50196A11D77
:100D1000B11D2093640C8093650C9093660CA09396
:100D2000670CB093680C8091690C90916A0CA0914B
:100D30006B0CB0916C0C0196A11DB11D8093690CD8
:100D400090936A0CA0936B0CB0936C0CBF91AF9115
:100D50009F918F913F912F910F900FBE0F901F90F9
:100D6000189526E8230F0296A11DB11DD2CF1F9220
:100D70000F920FB60F9211240BB60F922F933F9341
:100D80004F935F936F937F938F939F93AF93BF9393
:100D9000EF93FF938FE69CE00E942303FF91EF9176
:100DA000BF91AF919F918F917F916F915F914F9183
:100DB0003F912F910F900BBE0F900FBE0F901F9081
:100DC00018951F920F920FB60F9211240BB60F9227
:100DD0002F938F939F93EF93FF93E0917F0CF0916C
:100DE000800C8081E091850CF091860C82FD1DC005
:100DF00090818091880C8F5F8F732091890C82176E
:100E000041F0E091880CF0E0E159F34F958F809329
:100E1000880CFF91EF919F918F912F910F900BBEB6
:100E20000F900FBE0F901F9018958081F2CFEFE6C4
:100E3000FCE01382128288EE93E0A0E0B0E08483AD
:100E40009583A683B78388ED95E09183808385ECB5
:100E500090E09587848784EC90E09787868780EC84
:100E600090E0918B808B81EC90E0938B828B82EC75
:100E700090E0958B848B86EC90E0978B868B118E1F
:100E8000128E138E148E80910E0D90910F0D2AE10B
:100E9000289FF001299FF00D1124EA51FA4F80811B
:100EA000918190930D0D80930C0D0895CF93DF9356
:100EB00000D000D01F92CDB7DEB7789484B58260A1
:100EC00084BD84B5816084BD85B5826085BD85B5EE
:100ED000816085BD80916E00816080936E0010926C
:100EE00081008091810082608093810080918100E7
:100EF0008160809381008091800081608093800078
:100F00008091B10084608093B1008091B0008160D5
:100F10008093B000809191008260809391008091D5
:100F20009100816080939100809190008160809316
:100F300090008091A10082608093A1008091A10027
:100F400081608093A1008091A00081608093A000C7
:100F50008091210182608093210180912101816033
:100F600080932101809120018160809320018091F4
:100F70007A00846080937A0080917A008260809306
:100F80007A0080917A00816080937A0080917A0063
:100F9000806880937A001092C10028EC35E03B8392
:100FA0002A8300EB15E034EDC32E35E0D32EEA8121
:100FB000FB8180813296FB83EA8362E00E942602F5
:100FC000F801E0800E5F1F4F61E08E2D0E94260227
:100FD000F801F28461E08F2D0E94260261E08E2DDF
:100FE0000E94F80164EF71E080E090E00E947C02D2
:100FF00060E08E2D0E94F80161E08F2D0E94F801C3
:1010000064EF71E080E090E00E947C0260E08F2D50
:101010000E94F8012A813B81C216D30641F6E09175
:101020007F0CF091800C82E08083E0917B0CF0914A
:101030007C0C1082E0917D0CF0917E0C8FEC808313
:101040001092870CE091830CF091840C86E08083F1
:10105000E091810CF091820C808180618083E0912D
:10106000810CF091820C808188608083E091810CFA
:10107000F091820C808180688083E091810CF091F6
:10108000820C80818F7D808380E29AE00E94F00351
:1010900064EF71E080E090E00E947C0285E29AE0DB
:1010A0000E94F00364EF71E080E090E00E947C0217
:1010B00006E010E022242A94322C9AE1592E2DE0E9
:1010C000722E8FB7F8948090650C9090660CA0906B
:1010D000670CB090680C8FBF80916D0C90916E0C76
:1010E0008130910509F48EC108F4D5C08230910594
:1010F00009F4EDC1039709F4C9C38091620C909182
:10110000630C9B838A838091020290910302019772
:10111000EA81FB81E817F9070CF057C4E330F105C9
:101120000CF453C43397FF83EE838091620C90914B
:10113000630C2E813F81281739070CF046C480913B
:101140000002909101022F5F3F4F3D832C83EE817F
:10115000FF81E817F90709F487C40196E817F90732
:1011600009F482C480910E0D90910F0D789EF001CC
:10117000799EF00D11242E813F81E20FF31FEE0FB7
:10118000FF1FEA51FA4FC080D180C601B8010E940A
:101190004E0D7C016624639436E0C316D1040CF432
:1011A000612CF701EE0FFF1FE853FA4F4080842DAA
:1011B0000E94CF01E1E0E983892B09F419828AE7D3
:1011C0009BE00E94F00380910C0D90910D0DB801F1
:1011D0000E944E0DE816F90671F18091040290917B
:1011E0000502B8010E944E0DE816F90621F1809122
:1011F000060290910702B8010E944E0DE816F9060A
:10120000D1F0F601EE0FFF1FE055FA4F8081F60195
:10121000EA5AF34F108260E00E94F8018FE89BE0E9
:101220000E942104C6010E94A00464EF71E080E0E6
:1012300090E00E947C022C813D818090620C909015
:10124000630C80910E0D90910F0D9B838A83589EA5
:101250005001599EB00C1124281539050CF045C3D6
:10126000F901EE0FFF1FEA0DFB1DEA51FA4F019045
:10127000F081E02DCF01B8010E944E0DE816F9066D
:1012800039F46624639436970CF4612C3F832E83E3
:101290002F5F3F4FE1CF8BE29AE00E94F00364EFB3
:1012A00071E080E090E00E947C0220910E0D309170
:1012B0000F0D10926E0C10926D0C3092070220925E
:1012C000060230920502209204023092010220921E
:1012D0000002C9012F30310514F08EE090E097FF35
:1012E00002C090E080E090930F0D80930E0D10925D
:1012F000630C1092620C589EF001599EF00D11245F
:10130000EA51FA4F8081918190930D0D80930C0DDD
:10131000529EA001539E500D112490E080E09C014C
:101320008D30910539F490930302809302020E945C
:10133000FE0313C00196FC01EE0FFF1FE40FF51F23
:10134000EC51FA4F608171816F3F7F4F41F73093CD
:10135000030220930202232B51F721E030E0309367
:101360006E0C20936D0C80910E0D90910F0D589E78
:10137000F001599EF00D1124EA51FA4F80819181BC
:10138000019621F410926E0C10926D0C87E39AE096
:101390000E94210480910E0D90910F0D0E94A004D7
:1013A00082E59AE00E94210480910202909103025A
:1013B0000E94A0048EE59AE00E94210480916D0CA9
:1013C00090916E0C82309105B9F040F4009779F05D
:1013D000019709F092CE8BE69AE00BC0833091051D
:1013E00071F0049709F089CE82E99AE002C086E69E
:1013F0009AE00E94210481CE88E79AE0FACF86E83D
:101400009AE0F7CF88E99AE00E94F00364EF71E078
:1014100080E090E00E947C0220E0B501A401809170
:101420000C0D90910D0D0E94EF0580910C0D909187
:101430000D0DB801863091052CF10E944E0DFC0176
:10144000EE0FFF1FE853FA4F80810E94CF010197F2
:1014500009F053CE85EA9AE00E94F00364EF71E050
:1014600080E090E00E947C0260E080910C0D909101
:101470000D0D0E94A90582E090E090936E0C809380
:101480006D0C3BCE0E944E0DFC01EE0FFF1FE8538A
:10149000FA4F80810E94CF01892B09F02ECE86EB76
:1014A0009AE00E94F00364EF71E080E090E00E9417
:1014B0007C0260E080910C0D90910D0D0E94A905B9
:1014C000E2E0F0E0F0936E0CE0936D0C16CE89EC48
:1014D0009AE00E94F00364EF71E080E090E00E94E7
:1014E0007C0285ED9AE00E94210480910E0D90917E
:1014F0000F0D789EF001799EF00D11248091620C01
:101500009091630CE80FF91FEE0FFF1FE85FFD4F8E
:10151000808191810E94A004E091620CF091630CA3
:10152000DF0111968091020290910302A817B9077A
:101530000CF0EEC040910E0D50910F0D749EC00145
:10154000759E900D1124A80FB91FAA0FBB1FAA5199
:10155000BA4F2D913C9130930502209304021E1640
:101560001F066CF43197E80FF91FEE0FFF1FEA51C9
:10157000FA4F8081918190930702809306028CED4F
:101580009AE00E94210480910402909105020E9439
:10159000A00464EF71E080E090E00E947C02E090A3
:1015A0000402F0900502FFEFEF16FF0609F48DC16B
:1015B00080910C0D90910D0DE81AF90AF7FE03C009
:1015C000F194E194F10826E0E216F10409F0B6C0C6
:1015D0008091620C9091630C9093010280930002C1
:1015E00080E19BE00E94210480910C0D90910D0DF3
:1015F0000E9423048DEE9AE00E942104809104024F
:10160000909105020E94A00464EF71E080E090E0F8
:101610000E947C0280910E0D90910F0D789EF0013A
:10162000799EF00D11248091620C9091630CE80F6B
:10163000F91FEE0FFF1FE85FFD4F80819181E8EEFB
:10164000F3E08E9FB0018F9F700D9E9F700D11244F
:10165000072E000C880B990B0E947C0221E0B5013B
:10166000A40180910402909105020E94EF0520914F
:101670000402309105023B832A83263031050CF4A5
:101680004CC0C901B7010E944E0DFC01EE0FFF1FB7
:10169000E853FA4F80810E94CF01892B09F42DCDA8
:1016A0008091620C9091630C01969093630C8093EF
:1016B000620C80910C0D90910D0D90930702809318
:1016C00006028A819B8190930D0D80930C0DE1E0C1
:1016D000F0E0F0936E0CE0936D0C87E09BE00E94CD
:1016E000210480910C0D90910D0D0E9423048DEE2C
:1016F0009AE00E94210480910402909105020E94C8
:10170000A00464EF71E080E090E00E947C02F5CCE0
:10171000309205022092040232CF8A819B81B70168
:101720000E944E0DFC01EE0FFF1FE853FA4F80811F
:101730000E94CF01892B09F4B3CFDFCC8AE49BE070
:101740000E94210480910C0D90910D0D0E942304A4
:101750008DE29BE00E942104809104029091050299
:101760000E94A00464EF71E080E090E00E947C029F
:1017700061E080910C0D90910D0D0E94A905809162
:101780000E0D90910F0D789EF001799EF00D1124B1
:101790008091620C9091630CE80FF91FEE0FFF1F10
:1017A000E85FFD4F8081918128EE33E0829FB00198
:1017B000839F700D929F700D1124072E000C880BD3
:1017C000990B0E947C0280910C0D90910D0DB80137
:1017D0008630910584F00E944E0DFC01EE0FFF1F34
:1017E000E853FA4F80810E94CF0131E03983892B81
:1017F00081F419820EC00E944E0DFC01EE0FFF1FF6
:10180000E853FA4F80810E94CF01E1E0E983892B00
:1018100081F721E0B501A4018091040290910502B5
:101820000E94EF05F981F11103C00E94AE0465CC5E
:101830002091040230910502C901B8010E944E0DA9
:10184000FC01EE0FFF1FE853FA4F8081263031056F
:10185000C4F00E94CF01892B09F44FCC23E030E083
:1018600030936E0C20936D0C81E49BE00E94210468
:1018700080910C0D90910D0D0E94A00481E69BE0DB
:1018800038CF0E94CF01892B49F337CC64EF71E048
:1018900080E090E00E947C028EE69BE00E94F003D4
:1018A0008091040290910502B8018630910584F080
:1018B0000E944E0DFC01EE0FFF1FE853FA4F80818E
:1018C0000E94CF01019709F0B0CF0E94CD0415CC42
:1018D0000E944E0DFC01EE0FFF1FE853FA4F80816E
:1018E0000E94CF01892B89F3A0CF9981961509F425
:1018F000BBC080910C0D90910D0DB8010E944E0D52
:101900004C01E816F90609F4AFC0809104029091E9
:101910000502B8010E944E0D5C01E816F90609F4B3
:10192000A3C0842D0E94CF016816190609F49CC03B
:10193000EE81FF81F093630CE093620C2A813B817E
:10194000729EC001739E900D1124E80FF91FEE0FD7
:10195000FF1FEA51FA4F8081918190930D0D809382
:101960000C0D81E090E090936E0C80936D0C0E94C2
:10197000FE038EE99BE00E942104C4010E94A004A2
:1019800089EB9BE00E942104C5010E94A00486EC23
:101990009BE00E942104C7010E94A00483ED9BE00C
:1019A0000E9421048091620C9091630C0E94A0041B
:1019B00081EE9BE00E942104C6010E94A00464EF16
:1019C00071E080E090E00E947C028EE59AE00E9447
:1019D000210480916D0C90916E0C8230910509F478
:1019E00057C008F044C0009709F44AC0019709F4B1
:1019F0004CC08EEE9BE00E94210480910E0D9091D0
:101A00000F0D0E9423048BEF9BE00E942104809124
:101A1000620C9091630C0E94230485E09CE00E947C
:101A2000210480910602909107020E9423048EE017
:101A30009CE00E94210480910C0D90910D0D0E945C
:101A400023048BE19CE00E94210480910402909188
:101A500005020E94A00464E670E080E090E00E942D
:101A60007C020E94B2032DCBEC81FD815CCB8330E4
:101A7000910589F0049709F0BCCF82E99AE002C091
:101A800086E69AE00E942104B4CF8BE69AE0FACF72
:101A900088E79AE0F7CF86E89AE0F4CF97FB072E25
:101AA00016F4009407D077FD09D00E948C0D07FC36
:101AB00005D03EF4909581959F4F0895709561955E
:101AC0007F4F0895A1E21A2EAA1BBB1BFD010DC07A
:101AD000AA1FBB1FEE1FFF1FA217B307E407F507DE
:101AE00020F0A21BB30BE40BF50B661F771F881FBA
:101AF000991F1A9469F760957095809590959B0150
:101B0000AC01BD01CF010895EE0FFF1F881F8BBFF1
:101B10000790F691E02D1994AA1BBB1B51E107C059
:101B2000AA1FBB1FA617B70710F0A61BB70B881F6D
:101B3000991F5A95A9F780959095BC01CD010895FC
:041B4000F894FFCF47
:101B4400FFFF0D00FFFFFFFF000005000000000085
:101B5400000000000000140000000000000000006D
:101B6400000000000000000000000000050000006C
:101B7400000000000500000000000000000000005C
:101B8400000000000300000003000000000000004B
:101B94000000000000000000000000000000000041
:101BA400000003000000030000000000000000002B
:101BB400000000000000000000001E000000000003
:101BC400050000000000000000000000000000000C
:101BD400000000001E0000000000050000000000DE
:101BE40000000000000000000000000007000200E8
:101BF40007000200000000000000000000000000D8
:101C040000000000000000000000000000000000D0
:101C140000000000000000000000000000000000C0
:101C240000000500000000000000050000000000A6
:101C34000000000000000000070000000000000099
:101C44000700000000000000000000000000000089
:101C5400000000000000000000000500000000007B
:101C6400000000000000000000000000000005006B
:101C74000000050000000500000000000000000056
:101C8400000000000000000000000500000000004B
:101C9400000005000000000000000000000000003B
:101CA4000000000005000000050000000000000026
:101CB400000000000000000000000500000000001B
:101CC4000000000000000000000000000000000010
:101CD40000000000000005000000050000000000F6
:101CE40000000000000000000000000000000000F0
:101CF40000000500000000000000050000000000D6
:101D040000000000000000000700000000000000C8
:101D140007000000000000000000000000000000B8
:101D2400000000000000000000001E000000000091
:101D3400000000000000000000000000000000009F
:101D4400000000000000000000000000000000008F
:101D54000000000000000000000000000000190066
:101D640000000000FFFF0000000000000000000071
:101D74000000000000000000190000000000FFFF48
:101D8400000000000000000000000000000000004F
:101D9400000000000000000000000000000000003F
:101DA400000000000000000000000000000000002F
:101DB400000000000000000000000000000000001F
:101DC4000000070000000000000000000000000008
:101DD40000000000000000000000000000000000FF
:101DE40000000000000000000000000000000000EF
:101DF40000000000000000000000000000000000DF
:101E040000000000000000000000000000000000CE
:101E140000000000000000000000000000000000BE
:101E240000000000000000000000050000000000A9
:101E3400000000000000000000000000000000009E
:101E4400000000000000000000000000000000008E
:101E5400000000000000000000000000000000007E
:101E6400000000000000000000000000000000006E
:101E7400000000000000000000000000000000005E
:101E8400000000000000000000000000000000004E
:101E9400000000000000000000000000000000003E
:101EA400000000000000000000000000000000002E
:101EB400000000000000000000000000000000001E
:101EC400000000000000000000000000000000000E
:101ED40000000000000000000000000000000000FE
:101EE40000000000000000000000000000000000EE
:101EF40009000A000C000D000E000F001000110074
:101F04001200130014001500020003000400050071
:101F140006000700000000004503AF02DC02920344
:101F24000D03EB02FF02FFFF0100020003000400A7
:101F340005000800090002000300FFFF0000000084
:101F44000000010002000300060009000000030075
:101F54000700080001000200FFFF00000100040068
:101F640005000B0005000A000400FFFF000000004C
:101F74000000000000000100080009000400050042
:101F84000700010006000000FFFF00000000000041
:101F94000100FFFF0000000000000000000000003E
:101FA400000000000000000000000100050009001E
:101FB400050003000B000500030009000300FFFFF8
:101FC400000000000100040005000B000B000A00E3
:101FD4000A00FFFF0000000000000000FFFF0000F7
:101FE40000000000000000000000000000000000ED
:101FF40000000000000000000100020003000600D1
:102004000900000003000700080001000200FFFFB0
:1020140000000100020003000000010002000300B0
:10202400FFFF0000000000000000000001000200AB
:1020340003000400050006000700FFFF0000000085
:10204400000000000000010002000300070001007E
:10205400060000000600FFFF000000000000000072
:10206400010002000300060009000000030007004D
:10207400080001000200FFFF00000100020003004D
:102084000600090007000800FFFF00000000000030
:102094000000020003000900080002000300FFFF23
:1020A4000000000000000000000000000400050023
:1020B400020003000B0005000A000400FFFF0000FB
:1020C4000000000000000000010002000300060000
:1020D4000900000003000700080001000200FFFFE0
:1020E40000000100020003000000010002000300E0
:1020F400FFFF0000000000000000000001000200DB
:1021040003000600090002000300FFFF00000000B6
:1021140000000000FFFF00000000000000000000BD
:1021240000000000000000000000000000000000AB
:10213400010008000900040005000A00080004006A
:102144000200FFFF00000000000001000800090079
:10215400040005000B00090005000300FFFF000058
:102164000000FFFF0000000000000000000000006D
:10217400000000000000000000000000FFFF00005D
:10218400000000000000000000000000000000004B
:102194000000000000000000010008000900040025
:1021A400050006000700080009000A000B00FFFFF5
:1021B400FFFF00000000000000000000000000001D
:1021C40000000000000000000000FFFF000000000D
:1021D40000000000000000000000000000000000FB
:1021E40000000000FFFF00000000000000000000ED
:1021F40000000000000000000000000000000000DB
:1022040001000800090004000500FFFF00000000B1
:102214000000000000000000FFFF000000000000BC
:1022240000000000000000000000000000000000AA
:102234000000FFFF0000000000000000000000009C
:10224400000000000000000000000000FFFF00008C
:10225400000000000000000000000000000000007A
:10226400000000000000FFFF00000000000000006C
:10227400000000000000000000000000000000005A
:10228400FFFF00000000000000000000000000004C
:1022940000000000000000000000FFFF000000003C
:1022A400000000000000000000000000000000002A
:1022B40000000000FFFF000000000000000000001C
:1022C40000000000000000000000000000000D0AF3
:1022D40000726573657420616C6C206C6564733A7C
:1022E4000054726967676572204572726F72207359
:1022F400746174653A00416476616E636520537459
:1023040065702070726F6720737465703A00466957
:102314006E69736865642070726F6772616D207393
:10232400746172742070726F6772616D3A006375C4
:102334007272656E745374657000736574206F6E89
:10234400206C65643A00426C696E6B206C65643A7B
:1023540000626C696E6B206F6666206C65643A007F
:10236400496E69740053746172740048616E646CE0
:10237400652069646C65005365742070726F6772C0
:10238400616D2063757272656E7450726F677261ED
:102394006D00546F74616C207374657073005374B2
:1023A4006174653A200049444C4500424C494E4B07
:1023B4005F54415247455400574149545F464F5278
:1023C4005F484F4C44005645524946595F4E455864
:1023D40054004552524F5200426C696E6B20546156
:1023E4007267657400426C696E6B20546172676534
:1023F400742072656400426C696E6B20546172676C
:10240400657420677265656E0068616E646C652032
:102414005761697400484F4C443A200068616E6407
:102424006C652057616974206E657874005370651B
:102434006369616C2073616D6520627574746F6E7D
:10244400206E6578743A0046696E69736865642025
:102454005370656369616C2073616D652062757486
:10246400746F6E2063757272656E743A004E6F728B
:102474006D616C20627574746F6E206E6578743A49
:102484000046696E6973686564204E6F726D616C95
:1024940020627574746F6E2063757272656E743A1F
:1024A400004E6F726D616C206E6578743A005665EB
:1024B40072696679206E657874006D617420636852
:1024C40065636B206572726F72206F66663A007284
:1024D40065736574206F6666206C65643A006D618F
:1024E4007420636865636B206572726F72206E6519
:1024F4007874696E6465783A006675747572656996
:102504006E6465783A00627574746F6E496E6465C2
:10251400783A0070726F6772616D20737465703AF7
:102524000063757272656E74537465703A00207C32
:102534002050726F6772616D3A2000207C205374C2
:1025440065703A2000207C205072653A2000207C7F
:102554002043757272656E743A2000207C204E65AB
:0625640078743A2000002B
:00000001FF
