:100000000C9435010C9466010C9466010C94660105
:100010000C9466010C9466010C9466010C946601C4
:100020000C9466010C9466010C9466010C946601B4
:100030000C9466010C9466010C9466010C946601A4
:100040000C9466010C9466010C9466010C94660194
:100050000C9466010C9466010C9466010C944A069B
:100060000C9466010C94BE060C9494060C946601E4
:100070000C9466010C9466010C9466010C94660164
:100080000C9466010C9466010C9466010C94660154
:100090000C9466010C9466010C9466010C94660144
:1000A0000C9466010C9466010C9466010C94660134
:1000B0000C9466010C9466010C9466010C94660124
:1000C0000C9466010C9466010C9466010C94660114
:1000D0000C9466010C9466010C9466010C94660104
:1000E0000C9466010C94A1010C9490010C948C0169
:1000F0000C9492030C94C6010C9486010C94AF01ED
:100100000C9494010C94EB020C94DC020C94C70147
:100110000C9498010C94B3010C94FF020C94BD0153
:100120000C94F4060C94AB010C94AF020C940D03E8
:100130000C949B010C94CB010C94A5010C944503E9
:100140000C94B9010C94C101000021002400270087
:100150002A002D00300033000101000004010701D6
:100160000A0100002200250028002B002E0031008B
:10017000340002010000050108010B01000020000D
:100180002300260029002C002F003200000100006F
:10019000030106010901050505050705080808080A
:1001A000020202020A0A080804040404010101010F
:1001B000010101010303030303030303040707070A
:1001C0000C0C0C0C0C0C0C0C0202020206060606AF
:1001D000060606060B0B0B0B0B0B0B0B010210207C
:1001E000200808102040102040800201020108046D
:1001F0000201010204081020408080402010080401
:100200000201800402018040201008040201080459
:10021000020101020408102040800102040810209D
:10022000408000000A0B02090C0D0E0807030401B0
:1002300000000000000000000000000000000000BE
:10024000000000000000000000000000000012118B
:10025000100000000000000000000000000000008E
:100260000000000000000000F40611241FBECFEFC4
:10027000D1E2DEBFCDBF00E00CBF1BE0A0E0B2E0EA
:10028000E8E8F7E100E00BBF02C007900D92A83A42
:10029000B107D9F72CE0A8EABBE001C01D92A23952
:1002A000B207E1F711E0C5E3D1E000E006C0219715
:1002B0000109802FFE010E94A60BC433D10780E004
:1002C0000807A9F70E9433070C94C20B0C94000096
:1002D0008150823108F05AC0E82FF0E08827EC58AE
:1002E000FE4F8F4F0C94A60B9401980186018C0150
:1002F0009001C6019B01A101A501AB01AF01B301B2
:10030000B901BD01C601C101C701CB0180918000C7
:100310008F77809380000895809180008F7DF9CF42
:1003200080918000877FF5CF84B58F7784BD089555
:1003300084B58F7DFBCF8091B0008F778093B00024
:1003400008958091B0008F7DF9CF809190008F77D4
:10035000809390000895809190008F7DF9CF8091D7
:100360009000877FF5CF8091A0008F778093A000C9
:1003700008958091A0008F7DF9CF8091A000877FA4
:10038000F5CF809120018F7780932001089580918F
:1003900020018F7DF9CF80912001877FF5CFCF930A
:1003A000DF93282F30E0F901EE5DFD4F8491F901D4
:1003B000E452FE4FD491F901EA56FE4FC491CC238A
:1003C000A1F081110E946801EC2FF0E0EE0FFF1FF9
:1003D000E458FE4FA591B491EC91ED2381E090E0BB
:1003E00009F480E0DF91CF91089580E090E0FACFAA
:1003F0001F93CF93DF93282F30E0F901EE5DFD4F7F
:100400008491F901E452FE4FD491F901EA56FE4F6E
:10041000C491CC23A9F0162F81110E946801EC2F02
:10042000F0E0EE0FFF1FEE59FE4FA591B4918FB78C
:10043000F894EC91111108C0D095DE23DC938FBFA6
:10044000DF91CF911F910895DE2BF8CFCF93DF93EB
:1004500090E0FC01E452FE4F24918A569E4FFC012D
:1004600084918823D1F090E0880F991FFC01E85B0C
:10047000FE4FA591B491FC01EE59FE4FC591D49168
:10048000623071F49FB7F8943C91822F809583235A
:100490008C93E8812E2B28839FBFDF91CF91089505
:1004A0008FB7F894EC912E2B2C938FBFF6CF3FB7DC
:1004B000F8948091ED0B9091EE0BA091EF0BB09121
:1004C000F00B26B5A89B05C02F3F19F00196A11D82
:1004D000B11D3FBFBA2FA92F982F8827BC01CD018E
:1004E000620F711D811D911D42E0660F771F881FED
:1004F000991F4A95D1F708958F929F92AF92BF921C
:10050000CF92DF92EF92FF926B017C010E94570223
:100510004B015C01C114D104E104F104B9F00E9463
:100520005702681979098A099B09683E7340810559
:10053000910580F321E0C21AD108E108F10888EEA4
:10054000880E83E0981EA11CB11CE4CFFF90EF90B1
:10055000DF90CF90BF90AF909F908F900895AF9213
:10056000BF92CF92DF92EF92FF920F931F93CF93A0
:10057000DF936C017B018B01040F151FEB015E0102
:10058000AE18BF08C017D10759F06991D601ED9197
:10059000FC910190F081E02DC6011995892B79F726
:1005A000C501DF91CF911F910F91FF90EF90DF90E8
:1005B000CF90BF90AF900895FC01538D448D252FAF
:1005C00030E0842F90E0821B930B541710F0CF96ED
:1005D000089501970895FC01918D828D981761F01F
:1005E000A28DAE0FBF2FB11D5D968C91928D9F5F36
:1005F0009F73928F90E008958FEF9FEF0895FC0115
:10060000918D828D981731F0828DE80FF11D858DC7
:1006100090E008958FEF9FEF0895FC01918D228D5A
:10062000892F90E0805C9F4F821B91098F739927DF
:10063000089581EF9BE00E940D0321E0892B09F4CE
:1006400020E0822F0895FC01A48DA80FB92FB11DC1
:10065000A35ABF4F2C91848D90E001968F739927F8
:10066000848FA689B7892C93A089B1898C918370D6
:1006700080648C93938D848D981306C00288F389CF
:10068000E02D80818F7D80830895EF92FF920F93FC
:100690001F93CF93DF93EC0181E0888F9B8D8C8D2E
:1006A00098131AC0E889F989808185FF15C09FB722
:1006B000F894EE89FF896083E889F98980818370E5
:1006C000806480839FBF81E090E0DF91CF911F9194
:1006D0000F91FF90EF900895F62E0B8D10E00F5FB5
:1006E0001F4F0F731127E02E8C8D8E110CC00FB68B
:1006F00007FCFACFE889F989808185FFF5CFCE0123
:100700000E942303F1CFEB8DEC0FFD2FF11DE35A77
:10071000FF4FF0829FB7F8940B8FEA89FB898081A5
:100720008062CFCFCF93DF93EC01888D8823B9F01F
:10073000AA89BB89E889F9898C9185FD03C08081EC
:1007400086FD0DC00FB607FCF7CF8C9185FFF2CF69
:10075000808185FFEDCFCE010E942303E9CFDF9199
:10076000CF91089580E090E0892B29F00E94190331
:1007700081110E94000080E090E0892B49F080E028
:1007800090E0892B29F00E94000081110E94000056
:1007900080E090E0892B49F080E090E0892B29F0FF
:1007A0000E94000081110E94000080E090E0892BEF
:1007B00049F080E090E0892B29F00E94000081112F
:1007C0000C9400000895FC0101900020E9F7319796
:1007D000AF01481B590BBC0181EF9BE00C94AF02A9
:1007E000CF93DF930E94E303EC018CE899E00E9431
:1007F000E3038C0F9D1FDF91CF9108950F931F93FB
:10080000CF93DF938FE899E00E94F00364EF71E0EB
:1008100080E090E00E947C02C8EDDBE006E012E0A0
:100820001992F80180810E5F1F4F60E00E94F8016D
:10083000FBE0C43EDF07A1F7DF91CF911F910F913D
:1008400008950C94E3038F929F92AF92BF92CF9240
:10085000DF92EF92FF920F931F93CF93DF93CDB769
:10086000DEB7A1970FB6F894DEBF0FBECDBF6C0107
:10087000990FEE08FF08F7FE41C06DE281EF9BE0A3
:100880000E9445038C0122273327A9012C193D0919
:100890004E095F0919A2CE0181967C019AE0892E4A
:1008A000912CA12CB12CCA01B901A50194010E947F
:1008B000840B605DF70162937F01211531054105CD
:1008C000510589F790E080E0309719F0CF010E9440
:1008D000E303800F911FA1960FB6F894DEBF0FBE01
:1008E000CDBFDF91CF911F910F91FF90EF90DF90DF
:1008F000CF90BF90AF909F908F900895A7019601E1
:1009000019A28E010F5D1F4F8AE0C82ED12CE12C59
:10091000F12CCA01B901A70196010E94840B605D08
:10092000F80162938F01211531054105510589F7C1
:1009300090E080E0309779F2CF010E94E303CBCFC3
:10094000CF93DF930E942304EC018CE899E00E948E
:10095000E3038C0F9D1FDF91CF910895BF92CF923B
:10096000DF92EF92FF920F931F93CF93DF938091CB
:10097000E40B9091E50B01969093E50B8093E40BCB
:100980008FE999E00E9421048091E40B9091E50B9E
:100990000E94A0048091E40B9091E50B209100024D
:1009A0003091010282179307B4F42091900C30919A
:1009B000910C4DE0429FF001439FF00D1124E80F90
:1009C000F91FEE0FFF1FEC51FA4F808191818F3F8D
:1009D000980709F080C0C3E0D0E0BB24B39424EEB4
:1009E000C22E2BE0D22E96E0E92E92E0F92E08EDF1
:1009F0001BE0F801B1928F01F7018081F2E0EF0E68
:100A0000F11C61E00E94F8012BE00E3D120789F70E
:100A10006CE271E080E090E00E947C020E94FE03A4
:100A20000EED1BE082E1E82E82E0F82EF801B19293
:100A30008F01F7018081F2E0EF0EF11C61E00E946E
:100A4000F801C016D10691F76CE271E080E090E009
:100A50000E947C020E94FE03219729F61092E70B68
:100A60001092E60B1092E50B1092E40B8DE090E0F3
:100A700090930102809300028FEF9FEF9093050205
:100A8000809304022091900C3091910C4AE1429F96
:100A9000F001439FF00D1124EC51FA4F2081318178
:100AA00030938F0C20938E0C90930302809302025C
:100AB00087EB99E00E9421048091900C9091910C19
:100AC000DF91CF911F910F91FF90EF90DF90CF902A
:100AD000BF900C94A00420918E0C30918F0C309319
:100AE00005022093040290938F0C80938E0C81E07A
:100AF00090E09093E70B8093E60B87ED99E00E94DE
:100B0000210480918E0C90918F0CDACF1F93CF939C
:100B1000DF93EC01162FFC01EE0FFF1FEA5FFD4F84
:100B20008081FE01E852F44F91E0908361E00E94E1
:100B3000F80183EE99E00E942104CE010E94A004F6
:100B400064EF71E080E090E00E947C021123F1F0FC
:100B5000C630D105FCF02697FE01EE0FFF1FEA5FBD
:100B6000FD4F10818FEE99E00E942104CE010E947A
:100B7000A00464EF71E080E090E00E947C0260E0FD
:100B8000812F0E94F801C852D44F1882DF91CF9173
:100B90001F9108952696E0CF8F929F92AF92BF92B9
:100BA000CF92DF92EF92FF920F931F93CF93DF9339
:100BB0008C01000F111F000F111FF801E855F44FB1
:100BC000C080D180E280F3804A015B018C189D08CF
:100BD000AE08BF087501640134EFC31631E0D306D7
:100BE000E104F10408F447C0B22E6A017B01EC0174
:100BF000FC01EE0FFF1FEA5FFD4F8081FE01E8520E
:100C0000F44F608191E0692760830E94F8018CEFC6
:100C100099E00E942104CE010E94A00464EF71E0DB
:100C200080E090E00E947C02BB20F1F0C630D1054C
:100C30007CF12697FE01EE0FFF1FEA5FFD4F60E09B
:100C400080810E94F801FE01E852F44F108287E093
:100C50009AE00E942104CE010E94A00464EF71E09A
:100C600080E090E00E947C02F801E855F44FC082D9
:100C7000D182E282F382DF91CF911F910F91FF9099
:100C8000EF90DF90CF90BF90AF909F908F9008959E
:100C90002696D0CF1F920F920FB60F9211242F934A
:100CA0003F938F939F93AF93BF938091E90B909164
:100CB000EA0BA091EB0BB091EC0B3091E80B23E029
:100CC000230F2D3758F50196A11DB11D2093E80B78
:100CD0008093E90B9093EA0BA093EB0BB093EC0B92
:100CE0008091ED0B9091EE0BA091EF0BB091F00B7A
:100CF0000196A11DB11D8093ED0B9093EE0BA09377
:100D0000EF0BB093F00BBF91AF919F918F913F91FB
:100D10002F910F900FBE0F901F90189526E8230F6C
:100D20000296A11DB11DD2CF1F920F920FB60F9246
:100D300011240BB60F922F933F934F935F936F93B2
:100D40007F938F939F93AF93BF93EF93FF9381EF25
:100D50009BE00E942303FF91EF91BF91AF919F9180
:100D60008F917F916F915F914F913F912F910F9054
:100D70000BBE0F900FBE0F901F9018951F920F92F1
:100D80000FB60F9211240BB60F922F938F939F9350
:100D9000EF93FF93E091010CF091020C8081E091C0
:100DA000070CF091080C82FD1DC0908180910A0C07
:100DB0008F5F8F7320910B0C821741F0E0910A0C2A
:100DC000F0E0EF50F44F958F80930A0CFF91EF9174
:100DD0009F918F912F910F900BBE0F900FBE0F9090
:100DE0001F9018958081F2CFE1EFFBE01382128211
:100DF00088EE93E0A0E0B0E084839583A683B78378
:100E000086ED95E09183808385EC90E095878487DB
:100E100084EC90E09787868780EC90E0918B808BC4
:100E200081EC90E0938B828B82EC90E0958B848BAD
:100E300086EC90E0978B868B118E128E138E148E1B
:100E40008091900C9091910C2AE1289FF001299FAC
:100E5000F00D1124EC51FA4F8081918190938F0C09
:100E600080938E0C0895789484B5826084BD84B597
:100E7000816084BD85B5826085BD85B5816085BD95
:100E800080916E00816080936E001092810080914D
:100E900081008260809381008091810081608093D5
:100EA0008100809180008160809380008091B100FA
:100EB00084608093B1008091B00081608093B00025
:100EC0008091910082608093910080919100816077
:100ED0008093910080919000816080939000809138
:100EE000A10082608093A1008091A1008160809325
:100EF000A1008091A00081608093A00080912101D9
:100F00008260809321018091210181608093210181
:100F10008091200181608093200180917A0084601B
:100F200080937A0080917A00826080937A00809129
:100F30007A00816080937A0080917A008068809343
:100F40007A001092C100C6ECD5E006E012E088817C
:100F5000229662E00E942602F801E0800E5F1F4F99
:100F600061E08E2D0E942602F801F28461E08F2D4F
:100F70000E94260261E08E2D0E94F80164EF71E06C
:100F800080E090E00E947C0260E08E2D0E94F801DB
:100F900061E08F2D0E94F80164EF71E080E090E045
:100FA0000E947C0260E08F2D0E94F801F5E0C23DB6
:100FB000DF0769F6E091010CF091020C82E080837A
:100FC000E091FD0BF091FE0B1082E091FF0BF09190
:100FD000000C8FEC80831092090CE091050CF091CD
:100FE000060C86E08083E091030CF091040C808174
:100FF00080618083E091030CF091040C8081886013
:101000008083E091030CF091040C808180688083E0
:10101000E091030CF091040C80818F7D808386E148
:101020009AE00E94F00364EF71E080E090E00E949B
:101030007C028BE19AE00E94F00364EF71E080E0B3
:1010400090E00E947C02C2E04C2E512CEE24EA94E7
:10105000FE2C1AE1212E66246394712C8DE0382E2B
:1010600098EEC92E93E0D92E06E010E08FB7F894E1
:101070008090E90B9090EA0BA090EB0BB090EC0BFA
:101080008FBF8091E60B9091E70B8130910509F4B9
:1010900009C108F456C08230910509F450C1039784
:1010A00009F4E5C284E59AE00E9421048091E60BF0
:1010B0009091E70B8230910509F40CC308F0F9C256
:1010C000009709F4FFC2019709F401C380E79BE090
:1010D0000E9421048091900C9091910C0E94230415
:1010E0008DE79BE00E9421048091E40B9091E50B39
:1010F0000E94230487E89BE00E942104809104025F
:10110000909105020E94230480E99BE00E94210443
:1011100080918E0C90918F0C0E9423048DE99BE0AE
:101120000E94210480910202909103020E94A00477
:1011300064E670E080E090E00E947C020E94B203CE
:1011400095CF81E29AE00E94F00364EF71E080E0C5
:1011500090E00E947C022091900C3091910C1092B2
:10116000E70B1092E60BF0920502E0920402F09277
:101170000302E0920202C9012F30310514F08EE023
:1011800090E097FF02C090E080E09093910C8093F4
:10119000900C1092E50B1092E40B289EF001299E12
:1011A000F00D1124EC51FA4F8081918190938F0CB6
:1011B00080938E0C229EA001239E500D112490E05E
:1011C00080E09C018D30910539F490930102809369
:1011D00000020E94FE0313C00196FC01EE0FFF1FE8
:1011E000E40FF51FEE51FA4F608171816F3F7F4F21
:1011F00041F73093010220930002232B51F77092A4
:10120000E70B6092E60B8091900C9091910C289ED8
:10121000F001299EF00D1124EC51FA4F808191814B
:10122000019621F41092E70B1092E60B8DE29AE002
:101230000E9421048091900C9091910C0E94A00436
:1012400088E49AE00E9421048091000290910102BA
:101250000E94A00484E59AE00E9421048091E60B9C
:101260009091E70B82309105B9F040F4009779F046
:10127000019709F017CF81E69AE00BC08330910502
:1012800071F0049709F00ECF88E89AE002C08CE56F
:101290009AE00E94210406CF8EE69AE0FACF8CE70E
:1012A0009AE0F7CF8EE89AE00E94F00364EF71E0D5
:1012B00080E090E00E947C0220E0B501A4018091D2
:1012C0008E0C90918F0C0E94CC0580918E0C909189
:1012D0008F0C0697E4F060ED77E080E090E00E94EC
:1012E0007C028BE99AE00E94F00364EF71E080E0F9
:1012F00090E00E947C0260E080918E0C90918F0CB7
:101300000E9486055092E70B4092E60BCBCE8CEA0A
:101310009AE00E94F00364EF71E080E090E00E94A8
:101320007C0260E080918E0C90918F0C0E9486056B
:1013300060ED77E080E090E00E947C02E3CF8FEBED
:101340009AE00E94F00364EF71E080E090E00E9478
:101350007C028BEC9AE00E9421042091900C309149
:10136000910C329EC001339E900D1124E091E40B4C
:10137000F091E50BE80FF91FEE0FFF1FE25EFD4F46
:10138000808191810E94A0044091E40B5091E50B73
:10139000FA0131968091000290910102E817F90755
:1013A0000CF0DDC06091900C7091910C369EC001E4
:1013B000379E900D1124E80FF91FEE0FFF1FEC511F
:1013C000FA4F2081318130930302209302021416D8
:1013D00015067CF441505109480F591FFA01EE0FD0
:1013E000FF1FEC51FA4F8081918190930502809309
:1013F000040282ED9AE00E94210480910202909101
:1014000003020E94A00464EF71E080E090E00E947B
:101410007C02C0910202D0910302CF3FDC0709F4A5
:1014200045C180918E0C90918F0CC81BD90BD7FFB2
:1014300003C0D195C195D109C630D10509F094C03A
:1014400086E09BE00E94210480918E0C90918F0C8D
:101450000E94230483EE9AE00E94210480910202FC
:10146000909103020E94A00464EF71E080E090E09C
:101470000E947C028091900C9091910C389E90017A
:10148000399E300D1124E091E40BF091E50BE20F51
:10149000F31FEE0FFF1FE25EFD4F808191818C9D57
:1014A000B0018D9D700D9C9D700D1124072E000CB8
:1014B000880B990B0E947C0268EE73E080E090E05C
:1014C0000E947C0221E0B501A4018091020290916A
:1014D00003020E94CC05A0900202B0900302C50155
:1014E000BE010E94700BFC01EE0FFF1FEA53FA4F82
:1014F00080810E94CF018091E40B9091E50B0196D1
:101500009093E50B8093E40B80918E0C90918F0C5F
:101510009093050280930402B0928F0CA0928E0CDF
:101520007092E70B6092E60B8DEF9AE00E94210427
:1015300080918E0C90918F0C0E94230483EE9AE090
:101540000E94210480910202909103020E94A00453
:1015500064EF71E080E090E00E947C02A3CDF09205
:101560000302E092020245CF80E49BE00E94210446
:1015700080918E0C90918F0C0E94230483E29BE05B
:101580000E94210480910202909103020E94A00413
:1015900064EF71E080E090E00E947C0261E0809165
:1015A0008E0C90918F0C0E9486052091900C3091AA
:1015B000910C329EC001339E900D1124E091E40BFA
:1015C000F091E50BE80FF91FEE0FFF1FE25EFD4FF4
:1015D000808191818C9DB0018D9D700D9C9D700DC1
:1015E0001124072E000C880B990B0E947C0268EED8
:1015F00073E080E090E00E947C0280918E0C9091DC
:101600008F0CB8010E94700BFC01EE0FFF1FEA5314
:10161000FA4F80810E94CF0121E0B501A4018091A1
:101620000202909103020E94CC05809102029091E7
:101630000302B8010E94700BFC01EE0FFF1FEA537A
:10164000FA4F80810E94CF01E3E0F0E0F093E70BD6
:10165000E093E60B87E39BE00E94210480918E0CCF
:1016600090918F0C0E94A00487E59BE069CF64EF06
:1016700071E080E090E00E947C0284E69BE00E94A2
:10168000F0038091020290910302B8010E94700B56
:10169000FC01EE0FFF1FEA53FA4F80810E94CF0139
:1016A00064EF71E080E090E00E947C020E94AE0452
:1016B000F9CC8330910589F0049709F007CD88E8CB
:1016C0009AE002C08CE59AE00E942104FFCC81E6FA
:1016D0009AE0FACF8EE69AE0F7CF8CE79AE0F4CF63
:1016E00097FB072E16F4009407D077FD09D00E94CF
:1016F000AE0B07FC05D03EF4909581959F4F089561
:10170000709561957F4F0895A1E21A2EAA1BBB1B0D
:10171000FD010DC0AA1FBB1FEE1FFF1FA217B307BD
:10172000E407F50720F0A21BB30BE40BF50B661FD3
:10173000771F881F991F1A9469F760957095809597
:1017400090959B01AC01BD01CF010895EE0FFF1FE5
:10175000881F8BBF0790F691E02D1994AA1BBB1B25
:1017600051E107C0AA1FBB1FA617B70710F0A61BA1
:10177000B70B881F991F5A95A9F780959095BC01C2
:08178000CD010895F894FFCF9C
:101788000D00FFFFFFFF09000A000C000D000E000E
:101798000F001000110012001300140015000000C3
:1017A8000500000000000000000000001400000018
:1017B8000000000000000000000000000000000021
:1017C8000000050000000000000005000000000007
:1017D80000000000000000000000030000000300FB
:1017E80000000000000000000000000000000000F1
:1017F80000000000000000000300000003000000DB
:1018080000000000000000000000000000000000D0
:101818001E0000000000050000000000000000009D
:10182800000000000000000000001E000000000092
:10183800050000000000000000000000000000009B
:10184800000007000200070002000000000000007E
:101858000000000000000000000000000000000080
:101868000000000000000000000000000000000070
:10187800000000000000000005000000000000005B
:101888000500000000000000000000000000070044
:101898000000000000000700000000000000000039
:1018A8000000000000000000000000000000000030
:1018B800050000000000000000000000000000001B
:1018C8000000000005000000050000000500000001
:1018D8000000000000000000000000000000000000
:1018E80005000000000000000500000000000000E6
:1018F80000000000000000000000050000000500D6
:1019080000000000000000000000000000000000CF
:1019180005000000000000000000000000000000BA
:1019280000000000000000000000000005000000AA
:10193800050000000000000000000000000000009A
:10194800000000000000000005000000000000008A
:101958000500000000000000000000000000070073
:101968000000000000000700000000000000000068
:10197800000000000000000000000000000000005F
:101988001E00000000000000000000000000000031
:10199800000000000000000000000000000000003F
:1019A800000000000000000000000000000000002F
:1019B80000000000190000000000FFFF0000000008
:1019C80000000000000000000000000000001900F6
:1019D80000000000FFFF0000000000000000000001
:1019E80000000000000000000000000000000000EF
:1019F80000000000000000000000000000000000DF
:101A080000000000000000000000000000000000CE
:101A180000000000000000000700000000000000B7
:101A280000000000000000000000000000000000AE
:101A3800000000000000000000000000000000009E
:101A4800000000000000000000000000000000008E
:101A5800000000000000000000000000000000007E
:101A6800000000000000000000000000000000006E
:101A7800000000000000000000000000000000005E
:101A88000500000000000000000000000000000049
:101A9800000000000000000000000000000000003E
:101AA800000000000000000000000000000000002E
:101AB800000000000000000000000000000000001E
:101AC800000000000000000000000000000000000E
:101AD80000000000000000000000000000000000FE
:101AE80000000000000000000000000000000000EE
:101AF80000000000000000000000000000000000DE
:101B080000000000000000000000000000000000CD
:101B180000000000000000000000000000000000BD
:101B280000000000000000000000000000000000AD
:101B3800000000000000000000000000000000009D
:101B48000000000000000200030004000500060079
:101B58000700000000004503AF02DC0292030D03FA
:101B6800EB02FF0200000100020003000400050070
:101B78000800090002000300FFFF00000000000049
:101B8800010002000300060009000000030007002E
:101B9800080001000200FFFF00000100040005002A
:101BA8000B0005000A000400FFFF00000000000011
:101BB80000000000010008000900040005000700FB
:101BC800010006000000FFFF000000000000010007
:101BD800FFFF0000000000000000000000000000FF
:101BE80000000000000000000100050009000500D9
:101BF80003000B000500030009000300FFFF0000BD
:101C080000000100040005000B000B000A000A0098
:101C1800FFFF0000000000000000FFFF00000000C0
:101C280000000000000000000000000000000000AC
:101C38000000000000000100020003000600090087
:101C4800000003000700080001000200FFFF000079
:101C58000100020003000000010002000300FFFF72
:101C68000000000000000000000001000200030066
:101C78000400050006000700FFFF00000000000048
:101C88000000000001000200030007000100060038
:101C980000000600FFFF0000000000000000010037
:101CA8000200030006000900000003000700080006
:101CB80001000200FFFF000001000200030006000F
:101CC800090007000800FFFF0000000000000000F6
:101CD800020003000900080002000300FFFF0000E3
:101CE80000000000000000000000040005000200E1
:101CF80003000B0005000A000400FFFF00000000BD
:101D080000000000000001000200030006000900B6
:101D1800000003000700080001000200FFFF0000A8
:101D28000100020003000000010002000300FFFFA1
:101D38000000000000000000000001000200030095
:101D48000600090002000300FFFF00000000000079
:101D58000000FFFF0000000000000000000000007D
:101D6800000000000000000000000000000001006A
:101D780008000900040005000A0008000400020029
:101D8800FFFF000000000000010008000900040037
:101D980005000B00090005000300FFFF000000001C
:101DA800FFFF00000000000000000000000000002D
:101DB80000000000000000000000FFFF000000001D
:101DC800000000000000000000000000000000000B
:101DD80000000000000001000800090004000500E0
:101DE80006000700080009000A000B00FFFFFFFFBC
:101DF80000000000000000000000000000000000DB
:101E08000000000000000000FFFF000000000000CC
:101E180000000000000000000000000000000000BA
:101E28000000FFFF000000000000000000000000AC
:101E38000000000000000000000000000000010099
:101E48000800090004000500FFFF00000000000072
:101E5800000000000000FFFF00000000000000007C
:101E6800000000000000000000000000000000006A
:101E7800FFFF00000000000000000000000000005C
:101E880000000000000000000000FFFF000000004C
:101E9800000000000000000000000000000000003A
:101EA80000000000FFFF000000000000000000002C
:101EB8000000000000000000000000000000FFFF1C
:101EC800000000000000000000000000000000000A
:101ED8000000000000000000FFFF000000000000FC
:101EE80000000000000000000000000000000000EA
:101EF8000000FFFF000000000000000000000000DC
:101F08000000000000000000000000000D0A007240
:101F18006573657420616C6C206C6564733A00416C
:101F28006476616E636520537465702070726F67A4
:101F380020737465703A0046696E69736865642039
:101F480070726F6772616D20737461727420707241
:101F58006F6772616D3A0063757272656E7453745F
:101F6800657000736574206F6E206C65643A007349
:101F78006574206F6666206C65643A00426C696E11
:101F88006B206C65643A00626C696E6B206F6666E4
:101F9800206C65643A00496E697400537461727408
:101FA8000048616E646C652069646C6500536574F3
:101FB8002070726F6772616D2063757272656E74DE
:101FC80050726F6772616D00546F74616C20737426
:101FD8006570730053746174653A200049444C4538
:101FE80000424C494E4B5F544152474554005741BB
:101FF80049545F464F525F484F4C4400564552493A
:1020080046595F4E455854004552524F5200426C53
:10201800696E6B2054617267657400426C696E6BFF
:10202800205461726765742072656400426C696E41
:102038006B2054617267657420677265656E00680D
:10204800616E646C65205761697400484F4C443A6E
:10205800200068616E646C652057616974206E6544
:102068007874005370656369616C2073616D6520D5
:10207800627574746F6E206E6578743A0046696E86
:102088006973686564205370656369616C20736166
:102098006D6520627574746F6E2063757272656EFB
:1020A800743A004E6F726D616C20627574746F6E55
:1020B800206E6578743A0046696E697368656420B5
:1020C8004E6F726D616C20627574746F6E206375EB
:1020D8007272656E743A004E6F726D616C206E6537
:1020E80078743A00566572696679206E657874006E
:1020F800207C2050726F6772616D3A2000207C202E
:10210800537465703A2000207C205072653A200094
:10211800207C2043757272656E743A2000207C2002
:082128004E6578743A200000B6
:00000001FF
