:100000000C9427010C9458010C9458010C9458013D
:100010000C9458010C9458010C9458010C945801FC
:100020000C9458010C9458010C9458010C945801EC
:100030000C9458010C9458010C9458010C945801DC
:100040000C9458010C9458010C9458010C945801CC
:100050000C9458010C9458010C9458010C94BC0356
:100060000C9458010C9458010C9458010C945801AC
:100070000C9458010C9458010C9458010C9458019C
:100080000C9458010C9458010C9458010C9458018C
:100090000C9458010C9458010C9458010C9458017C
:1000A0000C9458010C9458010C9458010C9458016C
:1000B0000C9458010C9458010C9458010C9458015C
:1000C0000C9458010C9458010C9458010C9458014C
:1000D0000C9458010C9458010C9458010C9458013C
:1000E0000C9458010C942A070C94A9010C94C0019B
:1000F0000C94A1010C94A5010C94D6010C94AD01B3
:100100000C94D2010C94DB010C94C8010C94B00146
:100110000C94B6010C949B010C94BA010C94C4018C
:100120000C94E0010C94CE010C94DC010000210041
:10013000240027002A002D003000330001010000B8
:10014000040107010A0100002200250028002B00FD
:100150002E003100340002010000050108010B01EE
:10016000000020002300260029002C002F00320070
:100170000001000003010601090105050505070549
:1001800008080808020202020A0A08080404040413
:10019000010101010101010103030303030303033F
:1001A000040707070C0C0C0C0C0C0C0C02020202CE
:1001B00006060606060606060B0B0B0B0B0B0B0BB7
:1001C0000102102020080810204010204080020169
:1001D000020108040201010204081020408080404E
:1001E000201008040201800402018040201008044D
:1001F00002010804020101020408102040800102EB
:1002000004081020408000000A0B02090C0D0E08A3
:1002100007030401000000000000000000000000CF
:1002200000000000000000000000000000000000CE
:10023000000012111000000000000000000000008B
:100240000000000000000000000000002A07112448
:100250001FBECFEFD1E2DEBFCDBF00E00CBF13E089
:10026000A0E0B2E0EEEDFEE000E00BBF02C00790C0
:100270000D92AA3EB107D9F724E0AAEEB3E001C07F
:100280001D92A430B207E1F711E0C7E2D1E000E02F
:1002900006C021970109802FFE010E945107C63236
:1002A000D10780E00807A9F70E9406040C946D07A7
:1002B0000C9400002FB7F8948091FA039091FB03FF
:1002C000A091FC03B091FD032FBF80930004909395
:1002D0000104A0930204B09303048091FE03909163
:1002E000FF03039739F081E090E09093FF03809340
:1002F000FE03089582E090E0F8CF8150823108F04B
:100300005AC0E82FF0E08827E757FE4F8F4F0C9434
:100310005107A901AD019B01A101A501DB01B001BC
:10032000B601BA01C001C401C801CE01D201DB018E
:10033000D601DC01E001809180008F7780938000FE
:100340000895809180008F7DF9CF80918000877F14
:10035000F5CF84B58F7784BD089584B58F7DFBCFAD
:100360008091B0008F778093B00008958091B000A5
:100370008F7DF9CF809190008F77809390000895C2
:10038000809190008F7DF9CF80919000877FF5CF8D
:100390008091A0008F778093A00008958091A000A5
:1003A0008F7DF9CF8091A000877FF5CF80912001CC
:1003B0008F77809320010895809120018F7DF9CF60
:1003C00080912001877FF5CFCF93DF93282F30E0F6
:1003D000F901EA5FFD4F8491F901E054FE4FD49199
:1003E000F901E658FE4FC491CC23A1F081110E947F
:1003F0007D01EC2FF0E0EE0FFF1FE05AFE4FA591BC
:10040000B491EC91ED2381E090E009F480E0DF917C
:10041000CF91089580E090E0FACF1F93CF93DF93C0
:10042000282F30E0F901EA5FFD4F8491F901E05493
:10043000FE4FD491F901E658FE4FC491CC23A9F0A8
:10044000162F81110E947D01EC2FF0E0EE0FFF1FAF
:10045000EA5BFE4FA591B4918FB7F894EC9111111E
:1004600008C0D095DE23DC938FBFDF91CF911F9121
:100470000895DE2BF8CFCF93DF9390E0FC01E0549A
:10048000FE4F249186589E4FFC0184918823D1F021
:1004900090E0880F991FFC01E45DFE4FA591B49197
:1004A000FC01EA5BFE4FC591D491623071F49FB7B5
:1004B000F8943C91822F809583238C93E8812E2B96
:1004C00028839FBFDF91CF9108958FB7F894EC9167
:1004D0002E2B2C938FBFF6CF3FB7F8948091F60365
:1004E0009091F703A091F803B091F90326B5A89B6A
:1004F00005C02F3F19F00196A11DB11D3FBFBA2FB6
:10050000A92F982F8827BC01CD01620F711D811D75
:10051000911D42E0660F771F881F991F4A95D1F7FA
:1005200008958F929F92AF92BF92CF92DF92EF92F7
:10053000FF924B015C010E946C026B017C010E94E6
:100540006C026C197D098E099F09683E7340810514
:100550009105A8F321E0821A9108A108B10888EE5C
:10056000C80E83E0D81EE11CF11C81149104A10483
:10057000B10429F7FF90EF90DF90CF90BF90AF903C
:100580009F908F900895CF93DF931092EE03C4E075
:10059000D2E08881229660E00E940D0282E0CC3198
:1005A000D807B9F7DF91CF910895AF92BF92CF925C
:1005B000DF92EF92FF920F931F93CF93DF9380917F
:1005C000F3039091F40301969093F4038093F30363
:1005D000C091F103D091F203209100023091010209
:1005E0008217930794F42FE02C9FF0012D9FF00DBC
:1005F0001124E80FF91FEE0FFF1FE85DFD4F80810A
:1006000091818F3F980709F054C003E010E020E18A
:10061000A22E22E0B22E3CE1C32E32E0D32E94E093
:10062000E92E92E0F92EF7018081F2E0EF0EF11C45
:1006300061E00E940D02AE14BF04A9F76CE271E004
:1006400080E090E00E9491020E94C30280E1E82EC7
:1006500082E0F82EF7018081F2E0EF0EF11C61E0FC
:100660000E940D02CE14DF04A9F76CE271E080E075
:1006700090E00E9491020E94C3020150110979F694
:10068000CE0101966FE070E00E943D079093F20367
:100690008093F1031092FF031092FE03DF91CF913C
:1006A0001F910F91FF90EF90DF90CF90BF90AF9090
:1006B00008959093F0038093EF0381E090E090938E
:1006C000FF038093FE03EACF8F929F92AF92BF9277
:1006D000CF92DF92EF92FF921F93CF93DF93C09060
:1006E000EA03D090EB03E090EC03F090ED034A01B5
:1006F0005B018C189D08AE08BF087501640134EFDA
:10070000C31631E0D306E104F10440F1122F6A016F
:100710007B01EC016091EE0381E068276093EE03BA
:10072000FE01EE0FFF1FEC5FFD4F80810E940D0266
:10073000112361F0C630D105ECF02697CC0FDD1FF8
:10074000CC5FDD4F60E088810E940D02C092EA0319
:10075000D092EB03E092EC03F092ED03DF91CF91A6
:100760001F91FF90EF90DF90CF90BF90AF909F9040
:100770008F9008952696E2CF1F920F920FB60F9298
:1007800011242F933F938F939F93AF93BF938091A7
:10079000FA039091FB03A091FC03B091FD0330910B
:1007A000F50323E0230F2D3758F50196A11DB11D48
:1007B0002093F5038093FA039093FB03A093FC032B
:1007C000B093FD038091F6039091F703A091F80395
:1007D000B091F9030196A11DB11D8093F60390938A
:1007E000F703A093F803B093F903BF91AF919F91E2
:1007F0008F913F912F910F900FBE0F901F901895E2
:1008000026E8230F0296A11DB11DD2CFCF93DF930F
:1008100000D01F921F92CDB7DEB7789484B5826066
:1008200084BD84B5816084BD85B5826085BD85B594
:10083000816085BD80916E00816080936E00109212
:10084000810080918100826080938100809181008D
:10085000816080938100809180008160809380001E
:100860008091B10084608093B1008091B00081607C
:100870008093B0008091910082608093910080917C
:1008800091008160809391008091900081608093BD
:1008900090008091A10082608093A1008091A100CE
:1008A00081608093A1008091A00081608093A0006E
:1008B00080912101826080932101809121018160DA
:1008C000809321018091200181608093200180919B
:1008D0007A00846080937A0080917A0082608093AD
:1008E0007A0080917A00816080937A0080917A000A
:1008F000806880937A001092C1002CE132E03B8343
:100900002A8304E012E0E8E2CE2EE2E0DE2EEA8165
:10091000FB8180813296FB83EA8362E00E943B0286
:10092000F801E0800E5F1F4F61E08E2D0E943B02B8
:10093000F801F28461E08F2D0E943B0260E08E2D71
:100940000E940D0260E08F2D0E940D022A813B81E2
:10095000C216D306E1F606E010E022242394312CDF
:100960008FB7F8944090FA035090FB036090FC031B
:100970007090FD038FBF8091FE039091FF03823042
:10098000910509F444C108F078C0009709F49EC0AD
:10099000019709F4F9C01D821C828090F3039090A6
:1009A000F4032C813D81281539050CF04BC2C09011
:1009B000F103D090F2033FE03C9DF0013D9DF00D2E
:1009C00011248C819D81E80FF91FEE0FFF1FE85D58
:1009D000FD4FA080B180C501B8010E943D077C0198
:1009E0007724739496E0A916B1040CF4712CF701E6
:1009F000EE0FFF1FE45EFD4F6080862D0E94E40134
:100A0000E1E0E983892B09F41982F501EE0FFF1F5C
:100A1000EC5FFD4F60E080810E940D024C805D80A4
:100A2000FFEF4F1A5F0A8EE18C9D90018D9D300D76
:100A300011243B832A8392018216930609F4DFC1B5
:100A4000F901EE0FFF1F8A819B81E80FF91FE85D16
:100A5000FD4F0190F081E02DCF01B8010E943D07CC
:100A6000E816F90639F47724739436970CF4712C50
:100A70003D832C832F5F3F4FDFCF8330910509F4F7
:100A800097C1049709F087CF2FB7F8948091FA03A4
:100A90009091FB03A091FC03B091FD032FBF409107
:100AA0000004509101046091020470910304841BBE
:100AB000950BA60BB70B813D9740A105B10508F436
:100AC0006ACF1092FF031092FE0365CF82E00E946E
:100AD000E401892B09F05FCF4091F1035091F203BB
:100AE0001092FF031092FE038FEF9FEF909303028B
:100AF00080930202CA014F30510514F08EE090E05D
:100B000097FF02C090E080E09093F2038093F1039E
:100B10001092F4031092F3032EE1289FF001299F15
:100B2000F00D1124E85DFD4F808191819093F003D9
:100B30008093EF038EE1849F9001859F300D1124F7
:100B400090E080E0582F492F8F309105C1F0019639
:100B5000FC01EE0FFF1FE20FF31FEA5DFD4F608106
:100B600071816F3F7F4F71F75093000240930102F4
:100B70000E94C3023092FF032092FE030CCF909399
:100B8000010280930002F4CF2091EF033091F00333
:100B90003B832A8320E0B301A2018A819B810E94CA
:100BA00064038A819B81B8010E943D07FC01EE0F1E
:100BB000FF1FE45EFD4F8081EA81FB813697BCF028
:100BC0000E94E401019709F0E6CE2A813B81220FC1
:100BD000331F2C5F3D4F61E0F90180810E940D02BF
:100BE00022E030E03093FF032093FE03D4CE0E9436
:100BF000E401892B09F0CFCE8A819B81880F991F50
:100C00008C5F9D4F9B838A8361E0FC01E6CFC0909F
:100C1000F303D090F4033FEFC31AD30A809100028C
:100C200090910102C816D9060CF056C08091F103CC
:100C30009091F2032FE0289FF001299FF00D1124DD
:100C4000EC0DFD1DEE0FFF1FE85DFD4F80819181D2
:100C50009093030280930202E0910202F09103025A
:100C6000FB83EA83EF3FFE0709F4BEC0E090EF0389
:100C7000F090F0035F01AE18BF08B7FE03C0B19457
:100C8000A194B10836E0A316B10471F521E0B301D7
:100C9000A2018A819B810E9464038A819B81B501A4
:100CA0000E943D07FC01EE0FFF1FE45EFD4F8081B7
:100CB000EA81FB8136979CF00E94E401892B09F4BC
:100CC0006ACED092F403C092F3032A813B81309321
:100CD000F0032093EF034ECF8FEF9FEFB9CF0E9429
:100CE000E401892B71F357CEF701EE0FFF1FEC5F84
:100CF000FD4F61E080810E940D02C70136E0E316DE
:100D0000F10434F10697880F991FFC01EC5FFD4F49
:100D100060E080810E940D0221E0B301A2018A817E
:100D20009B810E946403C701B8010E943D07FC013A
:100D3000EE0FFF1FE45EFD4F808196E0E916F1049F
:100D40004CF00E94E401892B49F40E945A0123CE01
:100D50000696D9CF0E94E401892BB9F78A819B813D
:100D6000B8010E943D07FC01EE0FFF1FE45EFD4F3E
:100D70008081EA81FB813697B4F00E94E401892BDF
:100D800009F409CED092F403C092F3032A813B8187
:100D90003093F0032093EF0383E090E09093FF0300
:100DA0008093FE03F8CD0E94E401892B59F3F3CD23
:100DB00064EF71E080E090E00E94910220910202D5
:100DC00030910302C901B8010E943D07FC01EE0FFA
:100DD000FF1FE45EFD4F80812630310544F00E9404
:100DE000E401019709F0B1CF0E94D502D4CD0E9451
:100DF000E401892BC9F3A9CF5D824C82CECD9981C4
:100E00009715D1F38091EF039091F003B8010E9400
:100E10003D07E816F90681F3862D0E94E401781655
:100E2000190651F3EC81FD81F093F403E093F30391
:100E3000B092F003A092EF033092FF032092FE03E2
:100E40000E94C30220E030E0232B09F489CD0E94E8
:100E5000000086CD8091F1039091F2032EE1289F4E
:100E6000F001299FF00D1124E85DFD4F80819181F3
:100E70009093F0038093EF03089597FB072E16F4E9
:100E8000009407D077FD09D00E94590707FC05D0D0
:100E90003EF4909581959F4F0895709561957F4F91
:100EA0000895EE0FFF1F881F8BBF0790F691E02D6E
:100EB0001994AA1BBB1B51E107C0AA1FBB1FA61791
:100EC000B70710F0A61BB70B881F991F5A95A9F7F3
:0E0ED00080959095BC01CD010895F894FFCF58
:100EDE000F00FFFF09000A000C000D000E000F00AE
:100EEE001000110012001300140015000200030080
:100EFE000400050006000700070008000A000700AE
:100F0E000600090003000000040007000A000000AC
:100F1E0000000000000001000200030004000700B2
:100F2E0001000A00040007000A0000000000000093
:100F3E00000000000100080001000300FFFF000098
:100F4E000000000000000000000000000000000093
:100F5E0000000A0003000200FFFFFFFF0000000078
:100F6E000000000000000000000000000000000073
:100F7E000000000000000000000000000000000063
:100F8E000000000000000000000000000000000053
:100F9E000000000000000000000000000000000043
:100FAE000000000000000000000000000000000033
:100FBE000000000000000000000000000000000023
:100FCE000000000000000000000000000000000013
:100FDE000000000000000000000000000000000003
:100FEE0000000000000000000000000000000000F3
:100FFE0000000000000000000000000000000000E3
:10100E0000000000000000000000000000000000D2
:10101E0000000000000000000000000000000000C2
:10102E0000000000000000000000000000000000B2
:10103E0000000000000000000000000000000000A2
:10104E000000000000000000000000000000000092
:10105E000000000000000000000000000000000082
:10106E000000000000000000000000000000000072
:10107E000000000000000000000000000000000062
:10108E000000000000000000000000000000000052
:10109E000000000000000000000000000000000042
:1010AE000000000000000000000000000000000032
:0A10BE000000000000000000000028
:00000001FF
