:100000000C9435010C9466010C9466010C94660105
:100010000C9466010C9466010C9466010C946601C4
:100020000C9466010C9466010C9466010C946601B4
:100030000C9466010C9466010C9466010C946601A4
:100040000C9466010C9466010C9466010C94660194
:100050000C9466010C9466010C9466010C94750670
:100060000C9466010C94E9060C94BF060C9466018E
:100070000C9466010C9466010C9466010C94660164
:100080000C9466010C9466010C9466010C94660154
:100090000C9466010C9466010C9466010C94660144
:1000A0000C9466010C9466010C9466010C94660134
:1000B0000C9466010C9466010C9466010C94660124
:1000C0000C9466010C9466010C9466010C94660114
:1000D0000C9466010C9466010C9466010C94660104
:1000E0000C9466010C94A1010C949B010C94A50145
:1000F0000C94BD010C948C010C9494010C94C101DE
:100100000C94CB010C94AB010C940D030C94C7011F
:100110000C9486010C94B9010C94AF010C94EB0281
:100120000C9498010C9492030C94FF020C94DC0242
:100130000C941F070C94C6010C94B3010C94450356
:100140000C9490010C94AF020000210024002700C1
:100150002A002D00300033000101000004010701D6
:100160000A0100002200250028002B002E0031008B
:10017000340002010000050108010B01000020000D
:100180002300260029002C002F003200000100006F
:10019000030106010901050505050705080808080A
:1001A000020202020A0A080804040404010101010F
:1001B000010101010303030303030303040707070A
:1001C0000C0C0C0C0C0C0C0C0202020206060606AF
:1001D000060606060B0B0B0B0B0B0B0B010210207C
:1001E000200808102040102040800201020108046D
:1001F0000201010204081020408080402010080401
:100200000201800402018040201008040201080459
:10021000020101020408102040800102040810209D
:10022000408000000A0B02090C0D0E0807030401B0
:1002300000000000000000000000000000000000BE
:10024000000000000000000000000000000012118B
:10025000100000000000000000000000000000008E
:1002600000000000000000001F0711241FBECFEF98
:10027000D1E2DEBFCDBF00E00CBF18E0A0E0B2E0ED
:10028000E4EBFAE100E00BBF02C007900D92AA3543
:10029000B107D9F729E0AAE5B8E001C01D92A4345E
:1002A000B207E1F711E0C5E3D1E000E006C0219715
:1002B0000109802FFE010E943C0DC433D10780E06C
:1002C0000807A9F70E945E070C94580D0C940000D3
:1002D0008150823108F05AC0E82FF0E08827EC58AE
:1002E000FE4F8F4F0C943C0D9401980186018C01B8
:1002F0009001C6019B01A101A501AB01AF01B301B2
:10030000B901BD01C601C101C701CB0180918000C7
:100310008F77809380000895809180008F7DF9CF42
:1003200080918000877FF5CF84B58F7784BD089555
:1003300084B58F7DFBCF8091B0008F778093B00024
:1003400008958091B0008F7DF9CF809190008F77D4
:10035000809390000895809190008F7DF9CF8091D7
:100360009000877FF5CF8091A0008F778093A000C9
:1003700008958091A0008F7DF9CF8091A000877FA4
:10038000F5CF809120018F7780932001089580918F
:1003900020018F7DF9CF80912001877FF5CFCF930A
:1003A000DF93282F30E0F901EE5DFD4F8491F901D4
:1003B000E452FE4FD491F901EA56FE4FC491CC238A
:1003C000A1F081110E946801EC2FF0E0EE0FFF1FF9
:1003D000E458FE4FA591B491EC91ED2381E090E0BB
:1003E00009F480E0DF91CF91089580E090E0FACFAA
:1003F0001F93CF93DF93282F30E0F901EE5DFD4F7F
:100400008491F901E452FE4FD491F901EA56FE4F6E
:10041000C491CC23A9F0162F81110E946801EC2F02
:10042000F0E0EE0FFF1FEE59FE4FA591B4918FB78C
:10043000F894EC91111108C0D095DE23DC938FBFA6
:10044000DF91CF911F910895DE2BF8CFCF93DF93EB
:1004500090E0FC01E452FE4F24918A569E4FFC012D
:1004600084918823D1F090E0880F991FFC01E85B0C
:10047000FE4FA591B491FC01EE59FE4FC591D49168
:10048000623071F49FB7F8943C91822F809583235A
:100490008C93E8812E2B28839FBFDF91CF91089505
:1004A0008FB7F894EC912E2B2C938FBFF6CF3FB7DC
:1004B000F89480919D0890919E08A0919F08B0911A
:1004C000A00826B5A89B05C02F3F19F00196A11DD5
:1004D000B11D3FBFBA2FA92F982F8827BC01CD018E
:1004E000620F711D811D911D42E0660F771F881FED
:1004F000991F4A95D1F708958F929F92AF92BF921C
:10050000CF92DF92EF92FF926B017C010E94570223
:100510004B015C01C114D104E104F104B9F00E9463
:100520005702681979098A099B09683E7340810559
:10053000910580F321E0C21AD108E108F10888EEA4
:10054000880E83E0981EA11CB11CE4CFFF90EF90B1
:10055000DF90CF90BF90AF909F908F900895AF9213
:10056000BF92CF92DF92EF92FF920F931F93CF93A0
:10057000DF936C017B018B01040F151FEB015E0102
:10058000AE18BF08C017D10759F06991D601ED9197
:10059000FC910190F081E02DC6011995892B79F726
:1005A000C501DF91CF911F910F91FF90EF90DF90E8
:1005B000CF90BF90AF900895FC01538D448D252FAF
:1005C00030E0842F90E0821B930B541710F0CF96ED
:1005D000089501970895FC01918D828D981761F01F
:1005E000A28DAE0FBF2FB11D5D968C91928D9F5F36
:1005F0009F73928F90E008958FEF9FEF0895FC0115
:10060000918D828D981731F0828DE80FF11D858DC7
:1006100090E008958FEF9FEF0895FC01918D228D5A
:10062000892F90E0805C9F4F821B91098F739927DF
:10063000089583EA98E00E940D0321E0892B09F4D4
:1006400020E0822F0895FC01A48DA80FB92FB11DC1
:10065000A35ABF4F2C91848D90E001968F739927F8
:10066000848FA689B7892C93A089B1898C918370D6
:1006700080648C93938D848D981306C00288F389CF
:10068000E02D80818F7D80830895EF92FF920F93FC
:100690001F93CF93DF93EC0181E0888F9B8D8C8D2E
:1006A00098131AC0E889F989808185FF15C09FB722
:1006B000F894EE89FF896083E889F98980818370E5
:1006C000806480839FBF81E090E0DF91CF911F9194
:1006D0000F91FF90EF900895F62E0B8D10E00F5FB5
:1006E0001F4F0F731127E02E8C8D8E110CC00FB68B
:1006F00007FCFACFE889F989808185FFF5CFCE0123
:100700000E942303F1CFEB8DEC0FFD2FF11DE35A77
:10071000FF4FF0829FB7F8940B8FEA89FB898081A5
:100720008062CFCFCF93DF93EC01888D8823B9F01F
:10073000AA89BB89E889F9898C9185FD03C08081EC
:1007400086FD0DC00FB607FCF7CF8C9185FFF2CF69
:10075000808185FFEDCFCE010E942303E9CFDF9199
:10076000CF91089580E090E0892B29F00E94190331
:1007700081110E94000080E090E0892B49F080E028
:1007800090E0892B29F00E94000081110E94000056
:1007900080E090E0892B49F080E090E0892B29F0FF
:1007A0000E94000081110E94000080E090E0892BEF
:1007B00049F080E090E0892B29F00E94000081112F
:1007C0000C9400000895FC0101900020E9F7319796
:1007D000AF01481B590BBC0183EA98E00C94AF02AF
:1007E000CF93DF930E94E303EC0182EC95E00E943B
:1007F000E3038C0F9D1FDF91CF9108950F931F93FB
:10080000CF93DF9385EC95E00E94F00364EF71E0F5
:1008100080E090E00E947C02CAE8D8E00AEC13E095
:100820001992F80180810E5F1F4F60E00E94F8016D
:10083000F8E0C639DF07A1F7DF91CF911F910F9143
:1008400008950C94E3038F929F92AF92BF92CF9240
:10085000DF92EF92FF920F931F93CF93DF93CDB769
:10086000DEB7A1970FB6F894DEBF0FBECDBF6C0107
:10087000990FEE08FF08F7FE41C06DE283EA98E0A9
:100880000E9445038C0122273327A9012C193D0919
:100890004E095F0919A2CE0181967C019AE0892E4A
:1008A000912CA12CB12CCA01B901A50194010E947F
:1008B0001A0D605DF70162937F0121153105410535
:1008C000510589F790E080E0309719F0CF010E9440
:1008D000E303800F911FA1960FB6F894DEBF0FBE01
:1008E000CDBFDF91CF911F910F91FF90EF90DF90DF
:1008F000CF90BF90AF909F908F900895A7019601E1
:1009000019A28E010F5D1F4F8AE0C82ED12CE12C59
:10091000F12CCA01B901A70196010E941A0D605D70
:10092000F80162938F01211531054105510589F7C1
:1009300090E080E0309779F2CF010E94E303CBCFC3
:10094000CF93DF930E942304EC0182EC95E00E9498
:10095000E3038C0F9D1FDF91CF9108958091A10833
:100960009091A2080397B1F081E090E09093A208E3
:100970008093A10885ED95E00E9421048091A10853
:100980009091A2080E94A00464EF71E080E090E0E2
:100990000C947C0282E090E0E9CFBF92CF92DF928C
:1009A000EF92FF920F931F93CF93DF93809196085E
:1009B00090919708019690939708809396088AEEF5
:1009C00095E00E94210480919608909197080E94DA
:1009D000A00480919608909197082091020230918E
:1009E000030282179307B4F420914209309143091E
:1009F0004FE0429FF001439FF00D1124E80FF91FD3
:100A0000EE0FFF1FE050FC4F808191818F3F9807D0
:100A100009F08CC0C3E0D0E0BB24B39426E9C22E19
:100A200028E0D22E9AECE92E93E0F92E0AE818E09D
:100A3000F801B1928F01F7018081F2E0EF0EF11C15
:100A400061E00E94F80128E00039120789F76CE2A2
:100A500071E080E090E00E947C020E94FE0300E9C9
:100A600018E086EDE82E83E0F82EF801B1928F01B0
:100A7000F7018081F2E0EF0EF11C61E00E94F801C5
:100A8000C016D10691F76CE271E080E090E00E9420
:100A90007C020E94FE03219729F6809142099091E1
:100AA000430901962FE030E0B9010E94060D9093B2
:100AB0004309809342091092A2081092A108109253
:100AC00097081092960830930302209302022FEFAA
:100AD0003FEF30930702209306024EE1489FF0015A
:100AE000499FF00D1124E050FC4F8081918190933B
:100AF000410980934009309305022093040230930A
:100B000001022093000282E096E00E94210480917D
:100B1000420990914309DF91CF911F910F91FF906E
:100B2000EF90DF90CF90BF900C94A00420914009EB
:100B300030914109309307022093060290934109B6
:100B40008093400981E090E09093A2088093A108EF
:100B500082E296E00E94210480914009909141092F
:100B6000DACF1F93CF93DF93EC01162FFC01EE0F2A
:100B7000FF1FE653FC4F8081FE01E657F74F91E0DF
:100B8000908361E00E94F8018EE296E00E942104C9
:100B9000CE010E94A00464EF71E080E090E00E942A
:100BA0007C021123F1F0C630D105FCF02697FE013E
:100BB000EE0FFF1FE653FC4F10818BE897E00E9479
:100BC0002104CE010E94A00464EF71E080E090E077
:100BD0000E947C0260E0812F0E94F801C657D74F27
:100BE0001882DF91CF911F9108952696E0CF8F92C2
:100BF0009F92AF92BF92CF92DF92EF92FF920F93AC
:100C00001F93CF93DF938C01000F111F000F111F53
:100C1000F801E65AF74FC080D180E280F3804A01A4
:100C20005B018C189D08AE08BF087501640134EFA4
:100C3000C31631E0D306E104F10408F447C0B22E34
:100C40006A017B01EC01FC01EE0FFF1FE653FC4F34
:100C50008081FE01E657F74F608191E0692760834C
:100C60000E94F8018AE396E00E942104CE010E94CE
:100C7000A00464EF71E080E090E00E947C02BB2061
:100C8000F1F0C630D1057CF12697FE01EE0FFF1F73
:100C9000E653FC4F60E080810E94F801FE01E657B8
:100CA000F74F108285E496E00E942104CE010E9455
:100CB000A00464EF71E080E090E00E947C02F80103
:100CC000E65AF74FC082D182E282F382DF91CF9160
:100CD0001F910F91FF90EF90DF90CF90BF90AF905A
:100CE0009F908F9008952696D0CF1F920F920FB6A7
:100CF0000F9211242F933F938F939F93AF93BF93A2
:100D00008091990890919A08A0919B08B0919C08B5
:100D10003091980823E0230F2D3758F50196A11D37
:100D2000B11D209398088093990890939A08A093F6
:100D30009B08B0939C0880919D0890919E08A0917B
:100D40009F08B091A0080196A11DB11D80939D0838
:100D500090939E08A0939F08B093A008BF91AF9175
:100D60009F918F913F912F910F900FBE0F901F90E9
:100D7000189526E8230F0296A11DB11DD2CF1F9210
:100D80000F920FB60F9211240BB60F922F933F9331
:100D90004F935F936F937F938F939F93AF93BF9383
:100DA000EF93FF9383EA98E00E942303FF91EF9172
:100DB000BF91AF919F918F917F916F915F914F9173
:100DC0003F912F910F900BBE0F900FBE0F901F9071
:100DD00018951F920F920FB60F9211240BB60F9217
:100DE0002F938F939F93EF93FF93E091B308F0912C
:100DF000B4088081E091B908F091BA0882FD1DC065
:100E000090818091BC088F5F8F732091BD088217FD
:100E100041F0E091BC08F0E0ED55F74F958F8093DD
:100E2000BC08FF91EF919F918F912F910F900BBE76
:100E30000F900FBE0F901F9018958081F2CFE3EABC
:100E4000F8E01382128288EE93E0A0E0B0E08483A1
:100E50009583A683B78382EF93E09183808385ECAB
:100E600090E09587848784EC90E09787868780EC74
:100E700090E0918B808B81EC90E0938B828B82EC65
:100E800090E0958B848B86EC90E0978B868B118E0F
:100E9000128E138E148E80914209909143092EE197
:100EA000289FF001299FF00D1124E050FC4F808114
:100EB000918190934109809340090895CF93DF93E6
:100EC00000D000D01F921F92CDB7DEB7789484B5C2
:100ED000826084BD84B5816084BD85B5826085BD36
:100EE00085B5816085BD80916E00816080936E00C4
:100EF00010928100809181008260809381008091B6
:100F00008100816080938100809180008160809366
:100F100080008091B10084608093B1008091B00026
:100F200081608093B00080919100826080939100F5
:100F30008091910081608093910080919000816008
:100F4000809390008091A10082608093A1008091A5
:100F5000A10081608093A1008091A00081608093B6
:100F6000A000809121018260809321018091210164
:100F70008160809321018091200181608093200114
:100F800080917A00846080937A0080917A008260F8
:100F900080937A0080917A00816080937A008091BA
:100FA0007A00806880937A001092C10022EE33E0CC
:100FB0003C832B830AEC13E0EB81FC818081329629
:100FC000FC83EB8362E00E942602F801E0800E5F62
:100FD0001F4F61E08E2D0E942602F801F28461E02D
:100FE0008F2D0E94260260E08E2D0E94F80160E0A5
:100FF0008F2D0E94F8012B813C812E5E3340E1F65B
:10100000E091B308F091B40882E08083E091AF08EA
:10101000F091B0081082E091B108F091B2088FEC25
:1010200080831092BB08E091B708F091B80886E081
:101030008083E091B508F091B6088081806180835B
:10104000E091B508F091B608808188608083E091D6
:10105000B508F091B608808180688083E091B5087A
:10106000F091B60880818F7D808384E596E00E94B0
:10107000F00364EF71E080E090E00E947C0289E57B
:1010800096E00E94F00364EF71E080E090E00E943F
:101090007C0206E010E022242A94322C442443945B
:1010A000512C2FE0722E8FB7F89480909908909071
:1010B0009A08A0909B08B0909C088FBF8091A108CF
:1010C0009091A2088130910509F458C108F4D3C069
:1010D0008230910509F4B7C1039709F490C32091B8
:1010E0009608309197083C832B838091020290915F
:1010F00003020197281739070CF01FC4233031056C
:101100000CF41BC42350310938872F838091960833
:1011100090919708EF81F885E817F9070CF00DC456
:1011200080910002909101023196FE83ED832F8120
:1011300038852817390709F44FC40196281739074D
:1011400009F44AC48091420990914309789EF001C4
:10115000799EF00D1124E20FF31FEE0FFF1FE050F8
:10116000FC4FC080D180C601B8010E94060D7C01F1
:101170006624639436E0C316D1040CF4612CF701A5
:10118000EE0FFF1FEE51FC4F40814983842F0E94D8
:10119000CF01E1E0EA83892B09F41A8284E797E022
:1011A0000E94F0038091400990914109B8010E948A
:1011B000060DE816F90671F180910402909105027E
:1011C000B8010E94060DE816F90621F18091060289
:1011D00090910702B8010E94060DE816F906D1F0B9
:1011E000F601EE0FFF1FE653FC4F8081F601E65734
:1011F000F74F108260E00E94F80189E897E00E94B2
:101200002104C6010E94A00464EF71E080E090E038
:101210000E947C022D813E818090960890909708D4
:1012200080914209909143099C838B83EEE1E89F72
:101230005001E99FB00C1124281539050CF00EC39C
:10124000F901EE0FFF1FEA0DFB1DE050FC4F01906E
:10125000F081E02DCF01B8010E94060DE816F906D5
:1012600039F46624639436970CF4612C38872F8305
:101270002F5F3F4FE1CF8FE596E00E94F00364EFD0
:1012800071E080E090E00E947C0282E00E94CF0149
:10129000892B09F024CF2091420930914309109203
:1012A000A2081092A1083092070220920602309202
:1012B0000502209204023092010220920002C9012C
:1012C0002F30310514F08EE090E097FF02C090E0DF
:1012D00080E09093430980934209109297081092FE
:1012E00096084EE1489FF001499FF00D1124E0500F
:1012F000FC4F8081918190934109809340098EE158
:10130000829FA001839F500D112490E080E09C01FA
:101310008F30910559F490930302809302020E944A
:10132000FE035092A2084092A10813C00196FC014E
:10133000EE0FFF1FE40FF51FE250FC4F608171813B
:101340006F3F7F4F21F73093030220930202232B3C
:1013500031F78BE696E00E9421048091420990913A
:1013600043090E94A00486E896E00E94210480912F
:101370000202909103020E94A004B1CE82E996E09D
:101380000E94F00364EF71E080E090E00E947C0234
:1013900020E0B501A40180914009909141090E948B
:1013A000F7058091400990914109B8018630910577
:1013B0002CF10E94060DFC01EE0FFF1FEE51FC4FB9
:1013C00080810E94CF01019709F089CE8FE996E0D4
:1013D0000E94F00364EF71E080E090E00E947C02E4
:1013E00060E080914009909141090E94B10522E09E
:1013F00030E03093A2082093A10871CE0E94060D20
:10140000FC01EE0FFF1FEE51FC4F80810E94CF01C7
:10141000892B09F064CE80EB96E00E94F00364EF24
:1014200071E080E090E00E947C0260E080914009E1
:10143000909141090E94B10582E090E09093A2084A
:101440008093A1084CCE83EC96E00E94F00364EFF9
:1014500071E080E090E00E947C028FEC96E00E94B8
:1014600021048091420990914309789EF001799E70
:10147000F00D11248091960890919708E80FF91FBC
:10148000EE0FFF1FE85FFD4F808191810E94A00455
:10149000E0919608F0919708DF0111968091020281
:1014A00090910302A817B9070CF0EBC040914209D4
:1014B00050914309749EC001759E900D1124A80F90
:1014C000B91FAA0FBB1FA050BC4F2D913C91309368
:1014D0000502209304021E161F066CF43197E80FD4
:1014E000F91FEE0FFF1FE050FC4F80819181909318
:1014F00007028093060286ED96E00E942104809107
:101500000402909105020E94A00464EF71E080E063
:1015100090E00E947C02E0900402F09005029FEFB0
:10152000E916F90609F48AC18091400990914109B0
:10153000E81AF90AF7FE03C0F194E194F108E6E035
:10154000EE16F10409F0B3C08091960890919708C7
:1015500090930102809300028AE097E00E942104A8
:1015600080914009909141090E94230487EE96E002
:101570000E94210480910402909105020E94A0041F
:1015800064EF71E080E090E00E947C02809142096B
:1015900090914309789EF001799EF00D112480917D
:1015A000960890919708E80FF91FEE0FFF1FE85F6C
:1015B000FD4F8081918128EE33E0829FB001839FAF
:1015C000700D929F700D1124072E000C880B990B43
:1015D0000E947C0221E0B501A40180910402909157
:1015E00005020E94F70580910402909105029C83F8
:1015F0008B83863091050CF449C0B7010E94060D1B
:10160000FC01EE0FFF1FEE51FC4F80810E94CF01C5
:10161000892B09F464CD80919608909197080196E2
:101620009093970880939608809140099091410982
:101630009093070280930602EB81FC81F0934109AD
:10164000E09340095092A2084092A10881E097E0FF
:101650000E94210480914009909141090E94230435
:1016600087EE96E00E942104809104029091050289
:101670000E94A00464EF71E080E090E00E947C0290
:101680002ECD309205022092040235CF8B819C81B1
:10169000B7010E94060DFC01EE0FFF1FEE51FC4F3B
:1016A00080810E94CF01892B09F4B5CF18CD84E445
:1016B00097E00E94210480914009909141090E9485
:1016C000230487E297E00E94210480910402909114
:1016D00005020E94A00464EF71E080E090E00E94A7
:1016E0007C0261E080914009909141090E94B1051E
:1016F0008091420990914309789EF001799EF00D06
:1017000011248091960890919708E80FF91FEE0F29
:10171000FF1FE85FFD4F8081918128EE33E0829FBB
:10172000B001839F700D929F700D1124072E000C45
:10173000880B990B0E947C0280914009909141098D
:10174000B8018630910584F00E94060DFC01EE0F71
:10175000FF1FEE51FC4F80810E94CF0131E03983A1
:10176000892B81F419820EC00E94060DFC01EE0F38
:10177000FF1FEE51FC4F80810E94CF0141E0498361
:10178000892B81F721E0B501A40180910402909199
:1017900005020E94F7058981811103C00E94AE04F1
:1017A0009ECC2091040230910502C901B8010E942B
:1017B000060DFC01EE0FFF1FEE51FC4F808126301D
:1017C0003105C4F00E94CF01892B09F488CCE3E0F5
:1017D000F0E0F093A208E093A1088BE397E00E9469
:1017E000210480914009909141090E94A0048BE559
:1017F00097E038CF0E94CF01892B49F370CC64EF7A
:1018000071E080E090E00E947C0288E697E00E9410
:10181000F0038091040290910502B8018630910591
:1018200084F00E94060DFC01EE0FFF1FEE51FC4FED
:1018300080810E94CF01019709F0B0CF0E94CD04B2
:101840004ECC0E94060DFC01EE0FFF1FEE51FC4F27
:1018500080810E94CF01892B89F3A0CFFA81F615F0
:1018600009F4BAC08091400990914109B8010E94E1
:10187000060D4C01E816F90609F4AEC08091040289
:1018800090910502B8010E94060D5C01E816F90668
:1018900009F4A2C089810E94CF016816190609F4D3
:1018A0009BC02F8138853093970820939608EB8151
:1018B000FC817E9EC0017F9E900D1124280F391F50
:1018C000220F331F20503C4FF9018081918190936A
:1018D0004109809340095092A2084092A1080E94B9
:1018E000FE0388E997E00E942104C4010E94A0043D
:1018F00083EB97E00E942104C5010E94A00480ECC4
:1019000097E00E942104C7010E94A0048DEC97E09B
:101910000E94210480919608909197080E94A0044B
:101920008BED97E00E942104C6010E94A00464EFA1
:1019300071E080E090E00E947C0288EE97E00E94D7
:1019400021048091A1089091A2088230910509F4A8
:1019500057C008F044C0009709F44AC0019709F441
:101960004CC082E298E00E9421048091420990914B
:1019700043090E9423048FE298E00E942104809191
:101980009608909197080E94230489E398E00E94AA
:10199000210480910602909107020E94230482E4B0
:1019A00098E00E94210480914009909141090E9491
:1019B00023048FE498E00E94210480910402909116
:1019C00005020E94A00464E670E080E090E00E94BE
:1019D0007C020E94B20367CB2D813E8195CB833080
:1019E000910589F0049709F0BCCF8CE198E002C022
:1019F00080EF97E00E942104B4CF85EF97E0FACF03
:101A000082E098E0F7CF80E198E0F4CF97FB072ED3
:101A100016F4009407D077FD09D00E94440D07FC0E
:101A200005D03EF4909581959F4F089570956195EE
:101A30007F4F0895A1E21A2EAA1BBB1BFD010DC00A
:101A4000AA1FBB1FEE1FFF1FA217B307E407F5076E
:101A500020F0A21BB30BE40BF50B661F771F881F4A
:101A6000991F1A9469F760957095809590959B01E0
:101A7000AC01BD01CF010895EE0FFF1F881F8BBF82
:101A80000790F691E02D1994AA1BBB1B51E107C0EA
:101A9000AA1FBB1FA617B70710F0A61BB70B881FFE
:101AA000991F5A95A9F780959095BC01CD0108958D
:041AB000F894FFCFD8
:101AB400FFFF0F00FFFFFFFF000000000000000019
:101AC4000000000000000000000000000000000012
:101AD4000000000000000000000000000000000002
:101AE40000000000140000000000000000000000DE
:101AF40000000000000000000000000000000500DD
:101B040000000000000005000000000000000000CC
:101B140000000000000000000000030000000300BB
:101B240000000000000000000000000000000000B1
:101B3400000000000000000000000000030000009E
:101B4400030000000000000000000000000000008E
:101B540000000000000000001E000000000005005E
:101B64000000000000000000000000000000000071
:101B74000000000000001E0000000000050000003E
:101B84000000000000000000000000000000000051
:101B9400000007000200070002000000000000002F
:101BA4000000000000000000000000000000000031
:101BB4000000000000000000000000000000000021
:101BC4000000000000000000000000000000000011
:101BD4000000000000000000000000000000000001
:101BE40000000000000000000000000000000000F1
:101BF40000000000000000000000000000000000E1
:101C040000000000000000000000000000000000D0
:101C140000000000000000000000000000000000C0
:101C240000000000000000000000000000000000B0
:101C340000000000000000000000000000000000A0
:101C44000000000000000000000000000000000090
:101C54000000000000000000000000000000000080
:101C64000000000000000000000000000000000070
:101C74000000000000000000000009000A000C0041
:101C84000D000E000F0010001100120013001400CC
:101C94001500020003000400050006000700000010
:101CA40000004503AF02DC0292030D03EB02FF02C6
:101CB400FFFF000000000000000000000000000022
:101CC4000000000000000000000000000000000010
:101CD40001000200030004000500080009000200DE
:101CE4000300FFFF000000000000000000000100EE
:101CF40002000300060009000000030007000800BA
:101D040001000200FFFF00000000000001000400C9
:101D140005000B0005000A000400FFFF000000009E
:101D2400000000000000000000000100080009009D
:101D3400040005000700010006000000FFFF00008A
:101D4400000000000000000001000400080004007E
:101D540002000A000400020008000200FFFF000065
:101D64000000000000000100050009000500030058
:101D74000B000500030009000300FFFF0000000042
:101D8400000000000100040005000B000B000A0025
:101D94000A00FFFF00000000000000000000000037
:101DA400FFFF000000000000000000000000000031
:101DB400000000000000000000000000000000001F
:101DC400000000000000000000000000000000000F
:101DD40000000000000000000000000000000000FF
:101DE40000000000000000000000000000000000EF
:101DF40000000000000000000000000000000000DF
:101E040000000000000000000000000000000000CE
:101E140000000000000000000000000000000000BE
:101E240000000000000000000000000000000000AE
:101E3400000000000000000000000000000000009E
:101E4400000000000000000000000000000000008E
:101E5400000000000000000000000000000000007E
:101E6400000000000000000000000000000000006E
:101E740000000D0A00726573657420616C6C206C3F
:101E84006564733A005472696767657220457272BB
:101E94006F722073746174653A00416476616E6395
:101EA4006520537465702070726F67207374657059
:101EB4003A0046696E69736865642070726F677270
:101EC400616D2073746172742070726F6772616DDA
:101ED4003A0063757272656E74537465700073654D
:101EE40074206F6E206C65643A00426C696E6B20DE
:101EF4006C65643A00626C696E6B206F6666206C78
:101F040065643A00496E69740053746172740048E0
:101F1400616E646C652069646C650053657420703F
:101F2400726F6772616D2063757272656E74507240
:101F34006F6772616D00546F74616C2073746570A7
:101F44007300426C696E6B20546172676574004261
:101F54006C696E6B205461726765742072656400ED
:101F6400426C696E6B205461726765742067726598
:101F7400656E0068616E646C652057616974004821
:101F84004F4C443A200068616E646C652057616967
:101F940074206E657874005370656369616C207396
:101FA400616D6520627574746F6E206E6578743A25
:101FB4000046696E6973686564205370656369617E
:101FC4006C2073616D6520627574746F6E20637527
:101FD4007272656E743A004E6F726D616C20627538
:101FE40074746F6E206E6578743A0046696E697316
:101FF400686564204E6F726D616C20627574746FD5
:102004006E2063757272656E743A004E6F726D6104
:102014006C206E6578743A00566572696679206E34
:10202400657874006D617420636865636B20657204
:10203400726F72206F66663A007265736574206F02
:102044006666206C65643A006D617420636865633C
:102054006B206572726F72206E657874696E646548
:10206400783A00667574757265696E6465783A00CD
:10207400627574746F6E496E6465783A0070726F3D
:102084006772616D20737465703A0063757272656E
:102094006E74537465703A0053746174653A200029
:1020A40049444C4500424C494E4B5F5441524745CC
:1020B4005400574149545F464F525F484F4C4400C7
:1020C4005645524946595F4E455854004552524F61
:1020D4005200207C2050726F6772616D3A2000209C
:1020E4007C20537465703A2000207C205072653A3D
:1020F4002000207C2043757272656E743A200020A3
:0A2104007C204E6578743A2000003C
:00000001FF
