:100000000C9462000C948A000C948A000C948A0070
:100010000C948A000C948A000C948A000C948A0038
:100020000C948A000C948A000C948A000C948A0028
:100030000C948A000C948A000C948A000C948A0018
:100040000C94AB020C948A000C948A000C948A00E5
:100050000C948A000C948A000C948A000C948A00F8
:100060000C948A000C948A000000000024002700F1
:100070002A0000000000250028002B0000000000DE
:1000800023002600290004040404040404040202DA
:100090000202020203030303030301020408102007
:1000A0004080010204081020010204081020000012
:1000B0000008000201000003040700000000000027
:1000C0000000D40511241FBECFEFD8E0DEBFCDBFA6
:1000D00012E0A0E0B1E0EEE2FCE002C005900D927B
:1000E000A83AB107D9F722E0A8EAB2E001C01D9210
:1000F000A23CB207E1F710E0C2E6D0E004C02197CD
:10010000FE010E940F06C136D107C9F70E94F50211
:100110000C9415060C9400002FB7F8948091B80247
:100120009091B902A091BA02B091BB022FBF809307
:10013000BE029093BF02A093C002B093C10280910F
:10014000BC029091BD02039739F081E090E090935A
:10015000BD028093BC02089582E090E0F8CF833026
:1001600081F028F4813099F08230A9F00895873029
:10017000A9F08830C9F08430B1F4809180008F7D7F
:1001800003C0809180008F7780938000089584B5AC
:100190008F7784BD089584B58F7DFBCF8091B000AB
:1001A0008F778093B00008958091B0008F7DF9CF54
:1001B000CF93DF93282F30E0F901E255FF4F849170
:1001C000F901E656FF4FD491F901EA57FF4FC49168
:1001D000CC23A1F081110E94AF00EC2FF0E0EE0FD4
:1001E000FF1FE458FF4FA591B491EC91ED2381E0FE
:1001F00090E009F480E0DF91CF91089580E090E0F5
:10020000FACF1F93CF93DF93282F30E0F901E25507
:10021000FF4F8491F901E656FF4FD491F901EA5757
:10022000FF4FC491CC23A9F0162F81110E94AF007B
:10023000EC2FF0E0EE0FFF1FEE58FF4FA591B491A9
:100240008FB7F894EC91111108C0D095DE23DC93A0
:100250008FBFDF91CF911F910895DE2BF8CFCF9301
:10026000DF9390E0FC01E656FF4F24918A579F4FA1
:10027000FC0184918823D1F090E0880F991FFC0144
:10028000E859FF4FA591B491FC01EE58FF4FC5917D
:10029000D491623071F49FB7F8943C91822F80958D
:1002A00083238C93E8812E2B28839FBFDF91CF91EE
:1002B00008958FB7F894EC912E2B2C938FBFF6CF27
:1002C0003FB7F8948091B4029091B502A091B60224
:1002D000B091B70226B5A89B05C02F3F19F0019633
:1002E000A11DB11D3FBFBA2FA92F982F8827BC0190
:1002F000CD01620F711D811D911D42E0660F771FB8
:10030000881F991F4A95D1F708958F929F92AF92B7
:10031000BF92CF92DF92EF92FF924B015C010E945D
:1003200060016B017C010E9460016C197D098E09DE
:100330009F09683E734081059105A8F321E0821A68
:100340009108A108B10888EEC80E83E0D81EE11C10
:10035000F11C81149104A104B10429F7FF90EF90DE
:10036000DF90CF90BF90AF909F908F900895CF93E4
:10037000DF93C4E0D1E08881229660E00E94010111
:1003800081E0C831D807B9F7DF91CF910895CF92B6
:10039000DF92EF92FF920F931F93CF93DF938091A1
:1003A000B1029091B20201969093B2028093B10291
:1003B000C091AF02D091B0022091000130910101B3
:1003C0008217930794F42FE02C9FF0012D9FF00DDE
:1003D0001124E80FF91FEE0FFF1FEE5DFE4F808125
:1003E00091818F3F980709F053C003E010E09EE031
:1003F000C92E91E0D92E84E0E82E81E0F82EF70195
:100400008081F2E0EF0EF11C61E00E940101CE1448
:10041000DF04A9F76CE271E080E090E00E948501C2
:100420000E94B70161E089E00E94010161E08AE079
:100430000E94010161E08BE00E94010161E08CE01B
:100440000E94010161E08DE00E9401016CE271E017
:1004500080E090E00E9485010E94B70101501109DF
:1004600051F6CE0101966DE070E00E94E705909391
:10047000B0028093AF021092BD021092BC02DF91D5
:10048000CF911F910F91FF90EF90DF90CF90089543
:100490009093AE028093AD0281E090E09093BD0214
:1004A0008093BC02ECCF8F929F92AF92BF92CF927B
:1004B000DF92EF92FF921F93CF93DF93C090A90238
:1004C000D090AA02E090AB02F090AC024A015B012E
:1004D0008C189D08AE08BF087501640134EFC3167F
:1004E00031E0D306E104F10440F1122F6A017B01EF
:1004F000EC016091A80281E068276093A802FE01E8
:10050000EE0FFF1FEC5FFE4F80810E94010111235F
:1005100061F0C530D105ECF02597CC0FDD1FCC5F25
:10052000DE4F60E088810E940101C092A902D09252
:10053000AA02E092AB02F092AC02DF91CF911F9140
:10054000FF90EF90DF90CF90BF90AF909F908F90F3
:1005500008952596E2CF1F920F920FB60F921124A5
:100560002F933F938F939F93AF93BF938091B80244
:100570009091B902A091BA02B091BB023091B3023E
:1005800023E0230F2D3758F50196A11DB11D2093AF
:10059000B3028093B8029093B902A093BA02B093C9
:1005A000BB028091B4029091B502A091B602B091C5
:1005B000B7020196A11DB11D8093B4029093B502BC
:1005C000A093B602B093B702BF91AF919F918F9164
:1005D0003F912F910F900FBE0F901F90189526E816
:1005E000230F0296A11DB11DD2CFCF93DF9300D070
:1005F00000D0CDB7DEB7789484B5826084BD84B571
:10060000816084BD85B5826085BD85B5816085BD0D
:1006100080916E00816080936E00109281008091C5
:10062000810082608093810080918100816080934D
:100630008100809180008160809380008091B10072
:1006400084608093B1008091B00081608093B0009D
:1006500080917A00846080937A0080917A00826031
:1006600080937A0080917A00816080937A008091F3
:100670007A00806880937A001092C10028E131E00E
:100680003A83298304E011E0E2E2CE2EE1E0DE2E9F
:10069000E981FA8180813296FA83E98362E00E94DF
:1006A0002F01F801E0800E5F1F4F61E08E2D0E9448
:1006B0002F01F801F08461E08F2D0E942F0160E08E
:1006C0008E2D0E94010160E08F2D0E940101298181
:1006D0003A81C216D306E1F605E010E02224239405
:1006E000312C8FB7F8944090B8025090B9026090C6
:1006F000BA027090BB028FBF8091BC029091BD0284
:100700008230910509F435C108F073C0009709F4EF
:1007100099C0019709F4EAC0B12CA12C6090B102F4
:100720007090B202A614B7040CF036C2C090AF02AB
:10073000D090B0022FE02C9DF0012D9DF00D1124E2
:10074000EA0DFB1DEE0FFF1FEE5DFE4F80819181D4
:100750009C838B83B8010E94E7057C015524539448
:10076000EB81FC8135970CF4512CF701EE0FFF1F44
:10077000E85EFE4F80810E94D80044244394892B78
:1007800009F4412CEB81FC81EE0FFF1FEC5FFE4F63
:1007900060E080810E9401014501FFEF8F1A9F0AEE
:1007A0008EE18C9D90018D9D300D11243A8329831B
:1007B00094016216730609F4D3C1F901EE0FFF1F0D
:1007C00089819A81E80FF91FEE5DFE4F0190F0815B
:1007D000E02DCF01B8010E94E705E816F90631F4D3
:1007E0005524539435970CF4512C59012F5F3F4FEA
:1007F000E0CF8330910509F48DC1049709F08CCFC7
:100800002FB7F8948091B8029091B902A091BA02E2
:10081000B091BB022FBF4091BE025091BF026091C8
:10082000C0027091C102841B950BA60BB70B813DD2
:100830009740A105B10508F46FCF1092BD02109248
:10084000BC026ACF80E00E94D800892B09F064CFF7
:100850004091AF025091B002CA014D30510514F0E1
:100860008CE090E097FF02C090E080E09093B002AF
:100870008093AF021092B2021092B1023EE1389F13
:10088000F001399FF00D1124EE5DFE4F80819181C2
:100890009093AE028093AD028EE1849F9001859F7C
:1008A000300D112490E080E0582F492F8F309105B2
:1008B000C1F00196FC01EE0FFF1FE20FF31FE05E97
:1008C000FE4F608171816F3F7F4F71F75093000140
:1008D000409301010E94B7013092BD022092BC02F8
:1008E0001BCF9093010180930001F4CF2091AD02C2
:1008F0003091AE023A83298320E0B301A2018981BD
:100900009A810E94530289819A81B8010E94E70569
:10091000FC01EE0FFF1FE85EFE4F8081E981FA8146
:100920003597BCF00E94D800019709F0F5CE2981D7
:100930003A81220F331F2C5F3E4F61E0F901808125
:100940000E94010122E030E03093BD022093BC02FE
:10095000E3CE0E94D800892B09F0DECE89819A81EE
:10096000880F991F8C5F9E4F9A83898361E0FC01F9
:10097000E6CFC090B102D090B2023FEFC31AD30AC3
:100980008091000190910101C816D9060CF056C063
:100990008091AF029091B0022FE0289FF001299F33
:1009A000F00D1124EC0DFD1DEE0FFF1FEE5DFE4F4F
:1009B000808191819093030180930201E091020173
:1009C000F0910301FA83E983EF3FFE0709F4BEC00B
:1009D000E090AD02F090AE025F01AE18BF08B7FE26
:1009E00003C0B194A194B10835E0A316B10471F528
:1009F00021E0B301A20189819A810E945302898179
:100A00009A81B5010E94E705FC01EE0FFF1FE85E29
:100A1000FE4F8081E981FA8135979CF00E94D800D1
:100A2000892B09F479CED092B202C092B102298109
:100A30003A813093AE022093AD024ECF8FEF9FEFFD
:100A4000B9CF0E94D800892B71F366CEF701EE0F63
:100A5000FF1FEC5FFE4F61E080810E940101C70132
:100A600035E0E316F10434F10597880F991FFC0176
:100A7000EC5FFE4F60E080810E94010121E0B30144
:100A8000A20189819A810E945302C701B8010E9484
:100A9000E705FC01EE0FFF1FE85EFE4F808195E049
:100AA000E916F1044CF00E94D800892B49F40E9409
:100AB0008C0032CE0596D9CF0E94D800892BB9F789
:100AC00089819A81B8010E94E705FC01EE0FFF1FA2
:100AD000E85EFE4F8081E981FA813597B4F00E948B
:100AE000D800892B09F418CED092B202C092B1027C
:100AF00029813A813093AE022093AD0283E090E0E9
:100B00009093BD028093BC0207CE0E94D800892B2F
:100B100059F302CE64EF71E080E090E00E9485011D
:100B20002091020130910301C901B8010E94E7053B
:100B3000FC01EE0FFF1FE85EFE4F8081253031057E
:100B400044F00E94D800019709F0B1CF0E94C7017C
:100B5000E3CD0E94D800892BC9F3A9CF5401DECD83
:100B60004514E1F38091AD029091AE02B8010E946C
:100B7000E705E816F90691F3B092B202A092B1022D
:100B8000EB81FC81F093AE02E093AD023092BD02A6
:100B90002092BC020E94B70120E030E0232B09F430
:100BA000A0CD0E9400009DCD8091AF029091B00237
:100BB0002EE1289FF001299FF00D1124EE5DFE4FDC
:100BC000808191819093AE028093AD02089597FB4E
:100BD000072E16F4009407D077FD09D00E94FB057C
:100BE00007FC05D03EF4909581959F4F0895709530
:100BF00061957F4F0895AA1BBB1B51E107C0AA1F37
:100C0000BB1FA617B70710F0A61BB70B881F991FAD
:100C10005A95A9F780959095BC01CD010895EE0FE6
:0E0C2000FF1F0590F491E02D0994F894FFCF8A
:100C2E000F00FFFF04000500060007000800090082
:100C3E000A000B000C000D00000001000200030072
:100C4E000E0006000700090006000500080003005C
:100C5E000000040006000900000000000000000073
:100C6E000100020003000400060001000900040058
:100C7E000600090000000000000000000000010056
:100C8E00070001000300FFFF00000000000000004D
:100C9E00000000000000000000000000090003003A
:100CAE000200FFFFFFFF0000000000000000000038
:100CBE000000000000000000000000000000000026
:100CCE000000000000000000000000000000000016
:100CDE000000000000000000000000000000000006
:100CEE0000000000000000000000000000000000F6
:100CFE0000000000000000000000000000000000E6
:100D0E0000000000000000000000000000000000D5
:100D1E0000000000000000000000000000000000C5
:100D2E0000000000000000000000000000000000B5
:100D3E0000000000000000000000000000000000A5
:100D4E000000000000000000000000000000000095
:100D5E000000000000000000000000000000000085
:100D6E000000000000000000000000000000000075
:100D7E000000000000000000000000000000000065
:100D8E000000000000000000000000000000000055
:100D9E000000000000000000000000000000000045
:100DAE000000000000000000000000000000000035
:100DBE000000000000000000000000000000000025
:080DCE0000000000000000001D
:00000001FF
