:100000000C9462000C948A000C948A000C948A0070
:100010000C948A000C948A000C948A000C948A0038
:100020000C948A000C948A000C948A000C948A0028
:100030000C948A000C948A000C948A000C948A0018
:100040000C94AF020C948A000C948A000C948A00E1
:100050000C948A000C948A000C948A000C948A00F8
:100060000C948A000C948A000000000024002700F1
:100070002A0000000000250028002B0000000000DE
:1000800023002600290004040404040404040202DA
:100090000202020203030303030301020408102007
:1000A0004080010204081020010204081020000012
:1000B0000008000201000003040700000000000027
:1000C0000000E60511241FBECFEFD8E0DEBFCDBF94
:1000D00012E0A0E0B1E0E2E5FCE002C005900D9284
:1000E000A034B107D9F722E0A0E4B2E001C01D922C
:1000F000AB35B207E1F710E0C2E6D0E004C02197CB
:10010000FE010E942106C136D107C9F70E94F902FB
:100110000C9427060C9400002FB7F894809151029C
:1001200090915202A0915302B09154022FBF80933C
:10013000570290935802A0935902B0935A028091AB
:10014000550290915602039739F081E090E0909328
:10015000560280935502089582E090E0F8CF8330F4
:1001600081F028F4813099F08230A9F00895873029
:10017000A9F08830C9F08430B1F4809180008F7D7F
:1001800003C0809180008F7780938000089584B5AC
:100190008F7784BD089584B58F7DFBCF8091B000AB
:1001A0008F778093B00008958091B0008F7DF9CF54
:1001B000CF93DF93282F30E0F901E255FF4F849170
:1001C000F901E656FF4FD491F901EA57FF4FC49168
:1001D000CC23A1F081110E94AF00EC2FF0E0EE0FD4
:1001E000FF1FE458FF4FA591B491EC91ED2381E0FE
:1001F00090E009F480E0DF91CF91089580E090E0F5
:10020000FACF1F93CF93DF93282F30E0F901E25507
:10021000FF4F8491F901E656FF4FD491F901EA5757
:10022000FF4FC491CC23A9F0162F81110E94AF007B
:10023000EC2FF0E0EE0FFF1FEE58FF4FA591B491A9
:100240008FB7F894EC91111108C0D095DE23DC93A0
:100250008FBFDF91CF911F910895DE2BF8CFCF9301
:10026000DF9390E0FC01E656FF4F24918A579F4FA1
:10027000FC0184918823D1F090E0880F991FFC0144
:10028000E859FF4FA591B491FC01EE58FF4FC5917D
:10029000D491623071F49FB7F8943C91822F80958D
:1002A00083238C93E8812E2B28839FBFDF91CF91EE
:1002B00008958FB7F894EC912E2B2C938FBFF6CF27
:1002C0003FB7F89480914D0290914E02A0914F0259
:1002D000B091500226B5A89B05C02F3F19F001969A
:1002E000A11DB11D3FBFBA2FA92F982F8827BC0190
:1002F000CD01620F711D811D911D42E0660F771FB8
:10030000881F991F4A95D1F708958F929F92AF92B7
:10031000BF92CF92DF92EF92FF924B015C010E945D
:1003200060016B017C010E9460016C197D098E09DE
:100330009F09683E734081059105A8F321E0821A68
:100340009108A108B10888EEC80E83E0D81EE11C10
:10035000F11C81149104A104B10429F7FF90EF90DE
:10036000DF90CF90BF90AF909F908F900895CF93E4
:10037000DF9310924402C4E0D1E08881229660E0CD
:100380000E94010181E0C831D807B9F7DF91CF9110
:100390000895CF92DF92EF92FF920F931F93CF9326
:1003A000DF938091490290914A02019690934A020C
:1003B00080934902C0914702D091480220910001E8
:1003C000309101018217930794F42BE02C9FF001E8
:1003D0002D9FF00D1124E80FF91FEE0FFF1FEE5DAA
:1003E000FE4F808191818F3F980709F055C003E04F
:1003F00010E09EE0C92E91E0D92E84E0E82E81E045
:10040000F82EF7018081F2E0EF0EF11C61E00E940E
:100410000101CE14DF04A9F76CE271E080E090E006
:100420000E9485010E94B70161E089E00E940101FC
:1004300061E08AE00E94010161E08BE00E9401011D
:1004400061E08CE00E94010161E08DE00E94010109
:100450006CE271E080E090E00E9485010E94B701AB
:100460000150110951F6CE0101966DE070E00E9435
:10047000F905909348028093470210925602109219
:10048000550210924B02DF91CF911F910F91FF9077
:10049000EF90DF90CF9008959093460280934502AD
:1004A00081E090E09093560280935502ECCF8F92BA
:1004B0009F92AF92BF92CF92DF92EF92FF921F93E3
:1004C000CF93DF93C0904002D0904102E09042026F
:1004D000F09043024A015B018C189D08AE08BF08EA
:1004E0007501640134EFC31631E0D306E104F10471
:1004F00040F1122F6A017B01EC016091440281E01E
:10050000682760934402FE01EE0FFF1FEC5FFE4F71
:1005100080810E940101112361F0C530D105ECF00A
:100520002597CC0FDD1FCC5FDE4F60E088810E94F5
:100530000101C0924002D0924102E0924202F09248
:100540004302DF91CF911F91FF90EF90DF90CF900A
:10055000BF90AF909F908F9008952596E2CF1F9205
:100560000F920FB60F9211242F933F938F939F9367
:10057000AF93BF938091510290915202A091530288
:10058000B091540230914C0223E0230F2D3758F5DF
:100590000196A11DB11D20934C02809351029093AE
:1005A0005202A0935302B093540280914D02909155
:1005B0004E02A0914F02B09150020196A11DB11DB3
:1005C00080934D0290934E02A0934F02B09350023D
:1005D000BF91AF919F918F913F912F910F900FBE3F
:1005E0000F901F90189526E8230F0296A11DB11DAC
:1005F000D2CFCF93DF9300D000D0CDB7DEB77894C1
:1006000084B5826084BD84B5816084BD85B5826017
:1006100085BD85B5816085BD80916E0081608093C8
:100620006E00109281008091810082608093810031
:100630008091810081608093810080918000816041
:10064000809380008091B10084608093B10080919C
:10065000B00081608093B00080917A0084608093C4
:100660007A0080917A00826080937A0080917A008B
:10067000816080937A0080917A00806880937A000C
:100680001092C10028E131E03A83298304E011E0AF
:10069000E2E2CE2EE1E0DE2EE981FA81808132961F
:1006A000FA83E98362E00E942F01F801E0800E5F87
:1006B0001F4F61E08E2D0E942F01F801F08461E050
:1006C0008F2D0E942F0160E08E2D0E94010160E0BD
:1006D0008F2D0E94010129813A81C216D306E1F6CD
:1006E00005E010E022242394312C8FB7F894409039
:1006F00051025090520260905302709054028FBF8A
:1007000080915502909156028230910509F4DCC027
:1007100090F40097B9F1019709F493C080914B02CE
:10072000B12CA12C8111C9C120E030E0232BE9F2CA
:100730000E940000DACF8330910509F496C1049736
:1007400069F72FB7F8948091510290915202A091CD
:100750005302B09154022FBF40915702509158025A
:100760006091590270915A02841B950BA60BB70B2E
:10077000813D9740A105B10588F210925602109272
:100780005502CCCF80E00E94D800892B39F64091E9
:1007900047025091480210925602109255028FEF74
:1007A0009FEF909303018093020110924B02CA01C4
:1007B0004D30510514F08CE090E097FF02C090E0BE
:1007C00080E0909348028093470210924A02109270
:1007D000490226E1289FF001299FF00D1124EE5DCA
:1007E000FE4F80819181909346028093450286E17D
:1007F000849F9001859F300D112490E080E0582F58
:10080000492F8B309105C1F00196FC01EE0FFF1FBF
:10081000E20FF31FE05EFE4F608171816F3F7F4FFB
:1008200071F750930001409301010E94B70130928B
:1008300056022092550272CF9093010180930001DD
:10084000F4CF20914502309146023A83298320E07B
:10085000B301A20189819A810E94570289819A81FC
:10086000B8010E94F905FC01EE0FFF1FE85EFE4F84
:100870008081E981FA813597BCF00E94D800019708
:1008800009F04CCF29813A81220F331F2C5F3E4F54
:1008900061E0F90180810E94010122E030E03093A3
:1008A0005602209355023ACF0E94D800892B09F0B6
:1008B00035CF89819A81880F991F8C5F9E4F9A83CB
:1008C000898361E0FC01E6CFC0904902D0904A02E2
:1008D0003FEFC31AD30A8091000190910101C8161D
:1008E000D9060CF056C080914702909148022BE047
:1008F000289FF001299FF00D1124EC0DFD1DEE0F36
:10090000FF1FEE5DFE4F80819181909303018093E4
:100910000201E0910201F0910301FA83E983EF3FC4
:10092000FE0709F4C1C0E0904502F09046025F0165
:10093000AE18BF08B7FE03C0B194A194B10835E06A
:10094000A316B10471F521E0B301A20189819A8156
:100950000E94570289819A81B5010E94F905FC0124
:10096000EE0FFF1FE85EFE4F8081E981FA81359727
:100970009CF00E94D800892B09F4D0CED0924A0274
:10098000C092490229813A81309346022093450260
:100990004ECF8FEF9FEFB9CF0E94D800892B71F314
:1009A000BDCEF701EE0FFF1FEC5FFE4F61E08081CF
:1009B0000E940101C70135E0E316F10434F1059707
:1009C000880F991FFC01EC5FFE4F60E080810E9460
:1009D000010121E0B301A20189819A810E9457029D
:1009E000C701B8010E94F905FC01EE0FFF1FE85E88
:1009F000FE4F808195E0E916F1044CF00E94D8008A
:100A0000892B49F40E948C0089CE0596D9CF0E948B
:100A1000D800892BB9F789819A81B8010E94F9051C
:100A2000FC01EE0FFF1FE85EFE4F8081E981FA8135
:100A30003597B4F00E94D800892B09F46FCED0927C
:100A40004A02C092490229813A813093460220939A
:100A5000450283E090E090935602809355025ECE6B
:100A60000E94D800892B59F359CE64EF71E080E0E1
:100A700090E00E94850181E080934B022091020169
:100A800030910301C901B8010E94F905FC01EE0F84
:100A9000FF1FE85EFE4F80812530310544F00E9443
:100AA000D800019709F0AECF0E94C90137CE0E944D
:100AB000D800892BC9F3A6CF5401609049027090E9
:100AC0004A02A614B7040CF02FCEC0904702D09073
:100AD00048022BE02C9DF0012D9DF00D1124EA0D14
:100AE000FB1DEE0FFF1FEE5DFE4F808191819C8309
:100AF0008B83B8010E94F9057C0155245394EB8146
:100B0000FC8135970CF4512CF701EE0FFF1FE85EC6
:100B1000FE4F80810E94D80044244394892B09F41D
:100B2000412CEB81FC81EE0FFF1FEC5FFE4F60E07C
:100B300080810E9401014501FFEF8F1A9F0A86E123
:100B40008C9D90018D9D300D11243A832983940151
:100B500062167306E1F0F901EE0FFF1F89819A8199
:100B6000E80FF91FEE5DFE4F0190F081E02DCF01FF
:100B7000B8010E94F905E816F90631F4552453949A
:100B800035970CF4512C59012F5F3F4FE1CF45149D
:100B900009F492CF8091450290914602B8010E94DB
:100BA000F905E816F90609F487CFB0924A02A09237
:100BB0004902EB81FC81F0934602E09345023092BA
:100BC0005602209255020E94B701AECD8091470295
:100BD0009091480226E1289FF001299FF00D1124F1
:100BE000EE5DFE4F80819181909346028093450295
:100BF000089597FB072E16F4009407D077FD09D0CF
:100C00000E940D0607FC05D03EF4909581959F4FFC
:100C10000895709561957F4F0895AA1BBB1B51E104
:100C200007C0AA1FBB1FA617B70710F0A61BB70B5C
:100C3000881F991F5A95A9F780959095BC01CD0101
:100C40000895EE0FFF1F0590F491E02D0994F8949C
:020C5000FFCFD4
:100C52000B00FFFF04000500060007000800090062
:100C62000A000B000C000D0000000100020003004E
:100C72000E00050006000700080009000500060036
:100C8200070008000900000002000200030004003F
:100C9200060001000900040006000900000001002E
:100CA200070001000300FFFF000000000000000039
:100CB20000000000090003000200FFFFFFFF000028
:100CC2000000000000000000000000000000000022
:100CD2000000000000000000000000000000000012
:100CE2000000000000000000000000000000000002
:100CF20000000000000000000000000000000000F2
:100D020000000000000000000000000000000000E1
:100D120000000000000000000000000000000000D1
:100D220000000000000000000000000000000000C1
:100D320000000000000000000000000000000000B1
:100D420000000000000000000000000000000000A1
:100D52000000000000000000000000000000000091
:100D62000000000000000000000000000000000081
:100D72000000000000000000000000000000000071
:100D82000000000000000000000000000000000061
:00000001FF
