:100000000C9462000C948A000C948A000C948A0070
:100010000C948A000C948A000C948A000C948A0038
:100020000C948A000C948A000C948A000C948A0028
:100030000C948A000C948A000C948A000C948A0018
:100040000C9495020C948A000C948A000C948A00FB
:100050000C948A000C948A000C948A000C948A00F8
:100060000C948A000C948A000000000024002700F1
:100070002A0000000000250028002B0000000000DE
:1000800023002600290004040404040404040202DA
:100090000202020203030303030301020408102007
:1000A0004080010204081020010204081020000012
:1000B0000008000201000003040700000000000027
:1000C00000003B0511241FBECFEFD8E0DEBFCDBF3F
:1000D00011E0A0E0B1E0ECEFFAE002C005900D9273
:1000E000AE35B107D9F721E0AEE5B1E001C01D9210
:1000F000A837B207E1F710E0C2E6D0E004C02197CC
:10010000FE010E947605C136D107C9F70E94DF02C1
:100110000C947C050C940000833081F028F481302D
:1001200099F08230A9F008958730A9F08830C9F09D
:100130008430B1F4809180008F7D03C08091800075
:100140008F7780938000089584B58F7784BD08955C
:1001500084B58F7DFBCF8091B0008F778093B00006
:1001600008958091B0008F7DF9CFCF93DF93282F32
:1001700030E0F901E255FF4F8491F901E656FF4F57
:10018000D491F901EA57FF4FC491CC23A1F081111A
:100190000E948C00EC2FF0E0EE0FFF1FE458FF4FA1
:1001A000A591B491EC91ED2381E090E009F480E019
:1001B000DF91CF91089580E090E0FACF1F93CF9325
:1001C000DF93282F30E0F901E255FF4F8491F901C8
:1001D000E656FF4FD491F901EA57FF4FC491CC2363
:1001E000A9F0162F81110E948C00EC2FF0E0EE0F89
:1001F000FF1FEE58FF4FA591B4918FB7F894EC9183
:10020000111108C0D095DE23DC938FBFDF91CF9111
:100210001F910895DE2BF8CFCF93DF9390E0FC0180
:10022000E656FF4F24918A579F4FFC018491882303
:10023000D1F090E0880F991FFC01E859FF4FA5917C
:10024000B491FC01EE58FF4FC591D49161110EC0DD
:100250009FB7F8948C91E22FE0958E238C932881A0
:10026000E223E8839FBFDF91CF9108958FB7F89481
:10027000EC91E22BEC938FBFF6CF3FB7F8948091CF
:10028000740190917501A0917601B091770126B526
:10029000A89B05C02F3F19F00196A11DB11D3FBFBE
:1002A000BA2FA92F982F8827BC01CD01620F711D8D
:1002B000811D911D42E0660F771F881F991F4A9587
:1002C000D1F708958F929F92AF92BF92CF92DF9213
:1002D000EF92FF924B015C010E943D016B017C019A
:1002E0000E943D016C197D098E099F09683E73408B
:1002F00081059105A8F321E0821A9108A108B108AF
:1003000088EEC80E83E0D81EE11CF11C8114910414
:10031000A104B10429F7FF90EF90DF90CF90BF9038
:10032000AF909F908F900895CF93DF93C4E0D1E07A
:100330008881229660E00E94DE0081E0C831D80703
:10034000B9F7DF91CF9108958F929F92AF92BF92AC
:10035000CF92DF92EF92FF921F93CF93DF93C090E3
:100360005F01D0906001E0906101F09062014A016C
:100370005B018C189D08AE08BF087501640134EF5D
:10038000C31631E0D306E104F10440F1122F6A01F3
:100390007B01EC0160915E0181E0682760935E0162
:1003A000FE01EE0FFF1FEC5FFE4F80810E94DE001A
:1003B000112361F0C530D105ECF02597CC0FDD1F7E
:1003C000CC5FDE4F60E088810E94DE00C0925F015A
:1003D000D0926001E0926101F0926201DF91CF91D1
:1003E0001F91FF90EF90DF90CF90BF90AF909F90C4
:1003F0008F9008952596E2CFCF92DF92EF92FF92F1
:100400000F931F93CF93DF930091670110916801C1
:100410000F5F1F4F1093680100936701E091630124
:10042000F0916401EE0FFF1FEC5FFE4F61E08081F1
:100430000E94DE00C0916501D091660180910001AB
:10044000909101010817190794F48AE08C9FF0013C
:100450008D9FF00D1124E00FF11FEE0FFF1FE85EDE
:10046000FE4F808191818F3F980709F053C003E0D0
:1004700010E09EE0C92E91E0D92E84E0E82E81E0C4
:10048000F82EF7018081F2E0EF0EF11C61E00E948E
:10049000DE00CE14DF04A9F76CE271E080E090E0AA
:1004A0000E9462010E94940161E089E00E94DE00E6
:1004B00061E08AE00E94DE0061E08BE00E94DE00E5
:1004C00061E08CE00E94DE0061E08DE00E94DE00D1
:1004D0006CE271E080E090E00E9462010E94940171
:1004E0000150110951F6CE01019663E070E00E94BF
:1004F0004E05909366018093650110926E011092F3
:100500006D01DF91CF911F910F91FF90EF90DF90E0
:10051000CF900895909364018093630181E090E00F
:1005200090936E0180936D01ECCF1F920F920FB6E6
:100530000F9211242F933F938F939F93AF93BF9369
:100540008091700190917101A0917201B09173013D
:1005500030916F0123E0230F2D3758F50196A11D2F
:10056000B11D20936F018093700190937101A0934E
:100570007201B09373018091740190917501A09103
:100580007601B09177010196A11DB11D8093740190
:1005900090937501A0937601B0937701BF91AF91CD
:1005A0009F918F913F912F910F900FBE0F901F90B1
:1005B000189526E8230F0296A11DB11DD2CF78947D
:1005C00084B5826084BD84B5816084BD85B5826058
:1005D00085BD85B5816085BD80916E008160809309
:1005E0006E00109281008091810082608093810072
:1005F0008091810081608093810080918000816082
:10060000809380008091B10084608093B1008091DC
:10061000B00081608093B00080917A008460809304
:100620007A0080917A00826080937A0080917A00CB
:10063000816080937A0080917A00806880937A004C
:100640001092C100C4E5D1E004E011E08EE5C82EAF
:1006500081E0D82E8881229660E00E940C01F8018A
:10066000E0800E5F1F4F61E08E2D0E940C01F801AB
:10067000F08461E08F2D0E940C0160E08E2D0E94BD
:10068000DE0060E08F2D0E94DE00CC16DD0611F743
:10069000C5E08C2E912CD2E02D2E312C8FB7F89402
:1006A00040907001509071016090720170907301E0
:1006B0008FBF00916D0110916E010230110509F498
:1006C000B7C070F40115110599F10130110509F455
:1006D00080C080E090E0892B09F30E940000DECF0B
:1006E0000330110509F488C10430110591F72FB7C3
:1006F000F8948091700190917101A0917201B09174
:1007000073012FBF4091690150916A0160916B01A3
:1007100070916C01841B950BA60BB70B813D974024
:10072000A105B105B0F210926E0110926D01D1CF0A
:1007300080E00E94B500019761F6409165015091FB
:100740006601CA014330510514F082E090E097FF42
:1007500002C090E080E09093660180936501109262
:1007600068011092670124E1289FF001299FF00D94
:100770001124E85EFE4F8081918190936401809303
:10078000630184E1849F9001859F300D112490E0E6
:1007900080E0582F492F8A309105B1F00196FC0175
:1007A000EE0FFF1FE20FF31FEA5EFE4F60817181C3
:1007B0006F3F7F4F71F750930001409301010E94FA
:1007C000940181E090E00EC19093010180930001BB
:1007D000F6CFC0916301D091640120E0B301A20182
:1007E000CE010E94A401CE01B4010E944E05FC017D
:1007F000EE0FFF1FEC5AFE4F8081C530D10594F0FB
:100800000E94B500892B09F064CFCC0FDD1FCC5FAF
:10081000DE4F61E088810E94DE0030926E012092FE
:100820006D0157CF0E94B500019709F052CFEDCF6F
:10083000C0906701D09068019FEFC91AD90A8091D2
:10084000000190910101C816D9060CF04FC08091AB
:100850006501909166012AE0289FF001299FF00D23
:100860001124EC0DFD1DEE0FFF1FE85EFE4F808191
:1008700091819093030180930201C0910201D09174
:100880000301CF3FDC0709F4F3C0E0906301F0906F
:1008900064015E01AE18BF08B7FE03C0B194A19415
:1008A000B108E5E0AE16B10449F521E0B301A201BB
:1008B000CE010E94A401CE01B5010E944E05FC01AB
:1008C000EE0FFF1FEC5AFE4F8081C530D1058CF032
:1008D0000E94B500892B09F0FCCED0926801C0922D
:1008E0006701D0936401C09363016BCF8FEF9FEFDB
:1008F000C0CF0E94B500892B81F7EBCEF701EE0F38
:10090000FF1FEC5FFE4F61E080810E94DE0095E0FA
:10091000E916F1040CF443C0C7010597880F991F2D
:10092000FC01EC5FFE4F60E080810E94DE0021E070
:10093000B301A201CE010E94A401C701B4010E942B
:100940004E05FC01EE0FFF1FEC5AFE4F8081E5E0E3
:10095000EE16F1043CF10E94B500892B39F12FB756
:10096000F8948091700190917101A0917201B09101
:1009700073012FBF8093690190936A01A0936B016B
:10098000B0936C0180916D0190916E01039711F00D
:1009900001E010E010936E0100936D019ACEC70143
:1009A0000596BCCF0E94B500892BC9F2CE01B401D7
:1009B0000E944E05FC01EE0FFF1FEC5AFE4F808196
:1009C000C530D105A4F00E94B500892B09F081CE75
:1009D000D0926801C0926701D0936401C093630113
:1009E00083E090E090936E0180936D0172CE0E943F
:1009F000B500892B69F76DCE64EF71E080E090E07F
:100A00000E9462012091020130910301C901B401E9
:100A10000E944E05FC01EE0FFF1FEC5AFE4F808135
:100A2000253031050CF10E94B500892B09F12FB753
:100A3000F8948091700190917101A0917201B09130
:100A400073012FBF8093690190936A01A0936B019A
:100A5000B0936C0180916D0190916E01039709F044
:100A6000B0CE82E090E0BECF0E94B5000197F9F6CB
:100A70000E94FC012ECE809165019091660124E1D7
:100A8000289FF001299FF00D1124E85EFE4F808120
:100A900091819093640180936301089597FB072EE1
:100AA00016F4009407D077FD09D00E94620507FC78
:100AB00005D03EF4909581959F4F0895709561956E
:100AC0007F4F0895AA1BBB1B51E107C0AA1FBB1F84
:100AD000A617B70710F0A61BB70B881F991F5A95CA
:100AE000A9F780959095BC01CD010895EE0FFF1FE9
:0C0AF0000590F491E02D0994F894FFCFDC
:100AFC000A00FFFF040005000600070008000900BB
:100B0C000A000B000C000D000100020003000400A1
:100B1C00060001000900040006000900010007009E
:100B2C0001000300FFFF00000000000000000000B7
:100B3C00090003000200FFFFFFFF0000000000009F
:0E0B4C000000000000000100020003000E0087
:00000001FF
