:020000040000FA
:100000000C9461000C947E000C947E000C947E0095
:100010000C947E000C947E000C947E000C947E0068
:100020000C947E000C947E000C947E000C947E0058
:100030000C947E000C947E000C947E000C947E0048
:100040000C9488010C947E000C947E000C947E002D
:100050000C947E000C947E000C947E000C947E0028
:100060000C947E000C947E00000000002400270009
:100070002A0000000000250028002B0000000000DE
:1000800023002600290004040404040404040202DA
:100090000202020203030303030301020408102007
:1000A0004080010204081020010204081020000012
:1000B0000008000201000003040700000000000027
:1000C000000011241FBECFEFD8E0DEBFCDBF11E08E
:1000D000A0E0B1E0ECE8F8E002C005900D92A03499
:1000E000B107D9F721E0A0E4B1E001C01D92A43529
:1000F000B207E1F70E94D2010C9444040C94000072
:10010000833081F028F4813099F08230A9F008958D
:100110008730A9F08830C9F08430B1F48091800034
:100120008F7D03C0809180008F7780938000089539
:1001300084B58F7784BD089584B58F7DFBCF809182
:10014000B0008F778093B00008958091B0008F7DCC
:10015000F9CFCF93DF93282F30E0F901E255FF4F1D
:100160008491F901E656FF4FD491F901EA57FF4F08
:10017000C491CC23A1F081110E948000EC2FF0E00B
:10018000EE0FFF1FE458FF4FA591B491EC91ED23C2
:1001900081E090E009F480E0DF91CF91089580E064
:1001A00090E0FACF1F93CF93DF93282F30E0F9012F
:1001B000E255FF4F8491F901E656FF4FD491F901C2
:1001C000EA57FF4FC491CC23A9F0162F81110E944A
:1001D0008000EC2FF0E0EE0FFF1FEE58FF4FA591CF
:1001E000B4918FB7F894EC91111108C0D095DE232B
:1001F000DC938FBFDF91CF911F910895DE2BF8CF55
:10020000CF93DF9390E0FC01E656FF4F24918A578D
:100210009F4FFC0184918823D1F090E0880F991FB3
:10022000FC01E859FF4FA591B491FC01EE58FF4F36
:10023000C591D49161110EC09FB7F8948C91E22FB3
:10024000E0958E238C932881E223E8839FBFDF9182
:10025000CF9108958FB7F894EC91E22BEC938FBF78
:10026000F6CF3FB7F8948091500190915101A09141
:100270005201B091530126B5A89B05C02F3F19F03C
:100280000196A11DB11D3FBFBA2FA92F982F882716
:10029000BC01CD01620F711D811D911D42E0660FF1
:1002A000771F881F991F4A95D1F708958F929F92C3
:1002B000AF92BF92CF92DF92EF92FF924B015C011F
:1002C0000E9431016B017C010E9431016C197D0992
:1002D0008E099F09683E734081059105A8F321E0CE
:1002E000821A9108A108B10888EEC80E83E0D81ED2
:1002F000E11CF11C81149104A104B10429F7FF90C1
:10030000EF90DF90CF90BF90AF909F908F90089527
:100310001F920F920FB60F9211242F933F938F933A
:100320009F93AF93BF9380914C0190914D01A09109
:100330004E01B0914F0130914B0123E0230F2D3737
:1003400058F50196A11DB11D20934B0180934C01DE
:1003500090934D01A0934E01B0934F0180915001B5
:1003600090915101A0915201B09153010196A11DAC
:10037000B11D8093500190935101A0935201B0930D
:100380005301BF91AF919F918F913F912F910F900A
:100390000FBE0F901F90189526E8230F0296A11DFF
:1003A000B11DD2CF789484B5826084BD84B581605C
:1003B00084BD85B5826085BD85B5816085BD809130
:1003C0006E00816080936E001092810080918100A8
:1003D00082608093810080918100816080938100A0
:1003E000809180008160809380008091B100846062
:1003F0008093B1008091B00081608093B0008091C3
:100400007A00846080937A0080917A008260809381
:100410007A0080917A00816080937A0080917A00DE
:10042000806880937A001092C100CCE2D1E004E0B1
:1004300011E0F6E3EF2EF1E0FF2E8881229660E0D6
:100440000E940001F701C080F2E0EF0EF11C61E0B4
:100450008C2D0E940001F801D0800E5F1F4F61E0DB
:100460008D2D0E94000160E08C2D0E94D20060E082
:100470008D2D0E94D200F1E0C633DF07F1F643E094
:10048000242E312C50E0452E50E0552E66246394E6
:10049000712C72E0E72EF12CCC24CA94DC2C8FB79F
:1004A000F89480904C0190904D01A0904E01B09036
:1004B0004F018FBF8091490190914A018130910590
:1004C00009F44DC048F0029709F4D1C04114510419
:1004D00031F30E940000E3CFC0914201D09143016B
:1004E0008091450190914601A0914701B09148014A
:1004F000A5019401281B390B4A0B5B0BDA01C901DA
:10050000CC0FDD1F843F9140A105B105A0F06091A3
:10051000440181E0682760934401FE01EA5CFE4FDC
:1005200080810E94D2008092450190924601A09263
:100530004701B0924801FE01E45DFE4F80810E94B8
:10054000A9008C01019711F6CA5CDE4F61E0888139
:100550000E94D20010934A0100934901B7CF009145
:10056000420110914301C80101962091020130918E
:100570000301821793070CF05FC020914001309176
:10058000410145E0429FF001439FF00D1124E80F27
:10059000F91FEE0FFF1FE25FFE4F80819181909364
:1005A000010180930001C0910001D0910101CF3F72
:1005B000DC0709F48BCF8091450190914601A09111
:1005C0004701B0914801A5019401281B390B4A0B42
:1005D0005B0BDA01C901843F9140A105B105B0F080
:1005E0006091440181E0682760934401FE01EE0FB1
:1005F000FF1FEA5CFE4F80810E94D200809245017D
:1006000090924601A0924701B0924801000F111F3D
:10061000F801E45DFE4F80810E94A900892B89F4D6
:100620008091490190914A01029709F000C17092AE
:100630004A01609249014ACFD0920101C092000163
:10064000B2CFCC0FDD1FFE01E45DFE4F80810E9422
:10065000A900019709F03ACFCA5CDE4F61E08881BA
:100660000E94D200F0924A01E09249012FCF64EF3C
:1006700071E080E090E00E945601C0914201D0916B
:100680004301FE01EE0FFF1FE45DFE4F80810E94DB
:10069000A900019729F6E0910001F0910101EE0F08
:1006A000FF1FE45DFE4F80810E94A900019709F0C1
:1006B000B7CFCE0101969093430180934201009100
:1006C00040011091410120910201309103018217F4
:1006D000930794F445E0409FE001419FD00D112421
:1006E000C80FD91FCC0FDD1FC25FDE4F88819981F3
:1006F0008F3F980709F097C053E0A52EB12CC6E3B1
:10070000D1E08881229661E00E94D20061E0C0348D
:10071000D607B9F76CE271E080E090E00E945601E4
:10072000C6E3D1E08881229660E00E94D20081E099
:10073000C034D807B9F76CE271E080E090E00E9425
:10074000560191E0A91AB108D1F6C8010196B1018C
:100750000E941C048C019093410180934001EAE0C7
:10076000E09FC001E19F900D1124FC01E25FFE4F6C
:100770002081318130934301209342013A2D2B2D6A
:10078000F5E0AF16B10409F449C04FEFA41AB40A5A
:10079000F501EE0FFF1FE80FF91FE45FFE4F4081E8
:1007A00051814F3F5F4F51F7309302012093030176
:1007B00084E0A82E81E0B82E96E3892E91E0992E50
:1007C000F4018081F2E08F0E911C60E00E94D20063
:1007D000F5018081F2E0AF0EB11C60E00E94D20012
:1007E000C815D90569F7D0E0C0E00C171D07FCF06B
:1007F00061E08DE00E94D20068EC70E080E090E063
:100800000E94560160E08DE00E94D20068EC70E02A
:1008100080E090E00E9456012196E7CFB09203015C
:10082000A0920201C5CF90934301809342011092A0
:100830004A01109249014ACE97FB072E16F4009404
:1008400007D077FD09D00E94300407FC05D03EF4A4
:10085000909581959F4F0895709561957F4F08956C
:10086000AA1BBB1B51E107C0AA1FBB1FA617B707D6
:1008700010F0A61BB70B881F991F5A95A9F78095F2
:100880009095BC01CD010895F894FFCFFFFF0500BE
:1008900009000A000B000C000D000000010002001E
:1008A000030004000000020001000300FFFF040039
:1008B00003000200FFFFFFFF000001000200030031
:0C08C0000E000400050006000700080000
:107E0000112484B714BE81FFF0D085E080938100F7
:107E100082E08093C00088E18093C10086E0809377
:107E2000C20080E18093C4008EE0C9D0259A86E02C
:107E300020E33CEF91E0309385002093840096BBD3
:107E4000B09BFECF1D9AA8958150A9F7CC24DD24C4
:107E500088248394B5E0AB2EA1E19A2EF3E0BF2EE7
:107E6000A2D0813461F49FD0082FAFD0023811F036
:107E7000013811F484E001C083E08DD089C08234E0
:107E800011F484E103C0853419F485E0A6D080C0E4
:107E9000853579F488D0E82EFF2485D0082F10E0AE
:107EA000102F00270E291F29000F111F8ED06801E7
:107EB0006FC0863521F484E090D080E0DECF843638
:107EC00009F040C070D06FD0082F6DD080E0C81688
:107ED00080E7D80618F4F601B7BEE895C0E0D1E017
:107EE00062D089930C17E1F7F0E0CF16F0E7DF06D8
:107EF00018F0F601B7BEE89568D007B600FCFDCFD4
:107F0000A601A0E0B1E02C9130E011968C91119780
:107F100090E0982F8827822B932B1296FA010C0160
:107F200087BEE89511244E5F5F4FF1E0A038BF0790
:107F300051F7F601A7BEE89507B600FCFDCF97BE46
:107F4000E89526C08437B1F42ED02DD0F82E2BD052
:107F50003CD0F601EF2C8F010F5F1F4F84911BD097
:107F6000EA94F801C1F70894C11CD11CFA94CF0C13
:107F7000D11C0EC0853739F428D08EE10CD085E9AC
:107F80000AD08FE07ACF813511F488E018D01DD067
:107F900080E101D065CF982F8091C00085FFFCCF94
:107FA0009093C60008958091C00087FFFCCF809118
:107FB000C00084FD01C0A8958091C6000895E0E648
:107FC000F0E098E1908380830895EDDF803219F02E
:107FD00088E0F5DFFFCF84E1DECF1F93182FE3DFCA
:107FE0001150E9F7F2DF1F91089580E0E8DFEE27F6
:047FF000FF270994CA
:027FFE00040479
:00000001FF
