:100000000C9462000C948A000C948A000C948A0070
:100010000C948A000C948A000C948A000C948A0038
:100020000C948A000C948A000C948A000C948A0028
:100030000C948A000C948A000C948A000C948A0018
:100040000C94B5020C948A000C948A000C948A00DB
:100050000C948A000C948A000C948A000C948A00F8
:100060000C948A000C948A000000000024002700F1
:100070002A0000000000250028002B0000000000DE
:1000800023002600290004040404040404040202DA
:100090000202020203030303030301020408102007
:1000A0004080010204081020010204081020000012
:1000B0000008000201000003040700000000000027
:1000C0000000B60411241FBECFEFD8E0DEBFCDBFC5
:1000D00011E0A0E0B1E0E2EFF9E002C005900D927E
:1000E000A034B107D9F721E0A0E4B1E001C01D922E
:1000F000AA35B207E1F710E0C2E6D0E004C02197CC
:10010000FE010E94F104C136D107C9F70E94FF0227
:100110000C94F7040C9400002FB7F89480915001D0
:1001200090915101A0915201B09153012FBF809342
:10013000560190935701A0935801B093590181E063
:1001400090E090935501809354010895833081F09D
:1001500028F4813099F08230A9F008958730A9F011
:100160008830C9F08430B1F4809180008F7D03C065
:10017000809180008F7780938000089584B58F7779
:1001800084BD089584B58F7DFBCF8091B0008F77BB
:100190008093B00008958091B0008F7DF9CFCF9308
:1001A000DF93282F30E0F901E255FF4F8491F901E8
:1001B000E656FF4FD491F901EA57FF4FC491CC2383
:1001C000A1F081110E94A600EC2FF0E0EE0FFF1FBE
:1001D000E458FF4FA591B491EC91ED2381E090E0BC
:1001E00009F480E0DF91CF91089580E090E0FACFAC
:1001F0001F93CF93DF93282F30E0F901E255FF4F93
:100200008491F901E656FF4FD491F901EA57FF4F67
:10021000C491CC23A9F0162F81110E94A600EC2FC7
:10022000F0E0EE0FFF1FEE58FF4FA591B4918FB78E
:10023000F894EC91111108C0D095DE23DC938FBFA8
:10024000DF91CF911F910895DE2BF8CFCF93DF93ED
:1002500090E0FC01E656FF4F24918A579F4FFC0126
:1002600084918823D1F090E0880F991FFC01E85910
:10027000FF4FA591B491FC01EE58FF4FC591D49169
:1002800061110EC09FB7F8948C91E22FE0958E23F8
:100290008C932881E223E8839FBFDF91CF9108955B
:1002A0008FB7F894EC91E22BEC938FBFF6CF3FB76A
:1002B000F89480914C0190914D01A0914E01B09124
:1002C0004F0126B5A89B05C02F3F19F00196A11D2F
:1002D000B11D3FBFBA2FA92F982F8827BC01CD0190
:1002E000620F711D811D911D42E0660F771F881FEF
:1002F000991F4A95D1F708958F929F92AF92BF921E
:10030000CF92DF92EF92FF924B015C010E94570166
:100310006B017C010E9457016C197D098E099F09B0
:10032000683E734081059105A8F321E0821A910887
:10033000A108B10888EEC80E83E0D81EE11CF11CAC
:1003400081149104A104B10429F7FF90EF90DF908C
:10035000CF90BF90AF909F908F900895CF93DF93F1
:10036000C4E0D1E08881229660E00E94F80081E03C
:10037000C831D807B9F7DF91CF910895CF92DF92B6
:10038000EF92FF920F931F93CF93DF9380914701DA
:100390009091480101969093480180934701C09144
:1003A0004501D09146012091000130910101821751
:1003B000930794F425E02C9FF0012D9FF00D11245C
:1003C000E80FF91FEE0FFF1FE85EFE4F808191815D
:1003D0008F3F980709F053C003E010E09EE0C92E5C
:1003E00091E0D92E84E0E82E81E0F82EF70180819B
:1003F000F2E0EF0EF11C61E00E94F800CE14DF0481
:10040000A9F76CE271E080E090E00E947C010E941C
:10041000AE0161E089E00E94F80061E08AE00E949C
:10042000F80061E08BE00E94F80061E08CE00E943F
:10043000F80061E08DE00E94F8006CE271E080E07D
:1004400090E00E947C010E94AE010150110951F61A
:10045000CE01019663E070E00E94C90490934601CA
:10046000809345011092550110925401DF91CF9174
:100470001F910F91FF90EF90DF90CF900895909390
:100480004A018093490181E090E090935501809367
:100490005401ECCFCF93DF93EC01FC01EE0FFF1F73
:1004A000EC5FFE4F61E080810E94F800C530D1050D
:1004B0005CF02597CC0FDD1FCC5FDE4F60E08881BC
:1004C000DF91CF910C94F8002596F4CFCF92DF9274
:1004D000EF92FF920F931F93CF93DF93C090410150
:1004E000D0904201E0904301F09044018A019B01C9
:1004F0000C191D092E093F096801790114EFC11675
:1005000011E0D106E104F10428F16A017B01EC015C
:100510006091400181E0682760934001FE01EE0F89
:10052000FF1FEC5FFE4F80810E94F800C530D105AF
:10053000D4F02597CC0FDD1FCC5FDE4F60E08881C3
:100540000E94F800C0924101D0924201E092430122
:10055000F0924401DF91CF911F910F91FF90EF90A6
:10056000DF90CF9008952596E5CF1F920F920FB69A
:100570000F9211242F933F938F939F93AF93BF9329
:100580008091500190915101A0915201B09153017D
:1005900030914B0123E0230F2D3758F50196A11D13
:1005A000B11D20934B018093500190935101A09372
:1005B0005201B093530180914C0190914D01A09153
:1005C0004E01B0914F010196A11DB11D80934C01C8
:1005D00090934D01A0934E01B0934F01BF91AF9105
:1005E0009F918F913F912F910F900FBE0F901F9071
:1005F000189526E8230F0296A11DB11DD2CF78943D
:1006000084B5826084BD84B5816084BD85B5826017
:1006100085BD85B5816085BD80916E0081608093C8
:100620006E00109281008091810082608093810031
:100630008091810081608093810080918000816041
:10064000809380008091B10084608093B10080919C
:10065000B00081608093B00080917A0084608093C4
:100660007A0080917A00826080937A0080917A008B
:10067000816080937A0080917A00806880937A000C
:100680001092C100C6E3D1E004E011E08881229617
:1006900060E00E942601F801E0800E5F1F4F61E0DC
:1006A0008E2D0E942601F801F08461E08F2D0E94BA
:1006B000260160E08E2D0E94F80060E08F2D0E94E0
:1006C000F800F1E0C034DF0709F7C5E0D0E073E0DF
:1006D000272E312C44244A94542C66246394712C84
:1006E000A2E0CA2ED12C8FB7F89480905001909040
:1006F0005101A0905201B09053018FBF80915401DD
:10070000909155018230910509F4A1C060F40097E1
:10071000E9F1019709F47BC080E090E0892B19F39F
:100720000E940000E0CF8330910509F4F3C00497E4
:1007300099F78091490190914A01BE010E94C90434
:10074000B501A40105960E9466022FB7F894809126
:10075000500190915101A0915201B09153012FBFCE
:100760004091560150915701609158017091590183
:10077000841B950BA60BB70B813D9740A105B105D6
:1007800058F21092550110925401C6CF80E00E9499
:10079000CF00019709F0C0CF8091450190914601AB
:1007A00010924801109247014AE0489F9001499FEA
:1007B000300D1124F901E85EFE4F80819181909304
:1007C0004A018093490190E080E0582F492F8530FD
:1007D0009105C1F00196FC01EE0FFF1FE20FF31F20
:1007E000EA5EFE4F608171816F3F7F4F71F75093DA
:1007F0000001409301010E94AE0170925501609288
:1008000054018ACF9093010180930001F4CF0091AD
:10081000490110914A01B501A401C8010E94660274
:10082000C801BE010E94C904FC01EE0FFF1FEA5C73
:10083000FE4F80810E94CF00019709F06DCFC80163
:100840000E944A02D0925501C092540165CF809116
:1008500047019091480101962091000130910101DA
:1008600082179307DCF5209145013091460145E060
:10087000429FF001439FF00D1124E80FF91FEE0F86
:10088000FF1FE85EFE4F808191819093030180936A
:10089000020100910201109103010F3F100709F4BA
:1008A00062C0E0904901F0904A01C7010E944A02EB
:1008B000B501A401C8010E946602C701BE010E94E1
:1008C000C904FC01EE0FFF1FEA5CFE4F80810E940D
:1008D000CF00892B41F40E948C001ECF509203015F
:1008E00040920201D6CFC801BE010E94C904FC019A
:1008F000EE0FFF1FEA5CFE4F80810E94CF00019740
:1009000009F00ACFC8010E944A0230925501209294
:10091000540102CF64EF71E080E090E00E947C011E
:100920008091490190914A01BE010E94C904FC01D5
:10093000EE0FFF1FEA5CFE4F80810E94CF000197FF
:1009400051F68091020190910301BE010E94C904F9
:10095000FC01EE0FFF1FEA5CFE4F80810E94CF007A
:10096000019709F0B8CF0E94BE01D6CE8091450113
:10097000909146012AE0289FF001299FF00D112453
:10098000E85EFE4F8081918190934A0180934901F6
:10099000089597FB072E16F4009407D077FD09D031
:1009A0000E94DD0407FC05D03EF4909581959F4F91
:1009B0000895709561957F4F0895AA1BBB1B51E167
:1009C00007C0AA1FBB1FA617B70710F0A61BB70BBF
:1009D000881F991F5A95A9F780959095BC01CD0164
:1009E0000895EE0FFF1F0590F491E02D0994F894FF
:0209F000FFCF37
:1009F2000500FFFF040005000600070008000900CB
:100A02000A000B000C000D000000010002000300B0
:100A120004000100070001000300FFFF09000300BA
:100A22000200FFFFFFFF00000100020003000E00B2
:00000001FF
